:1000000005C100000C94E6310C9411320C943C3282
:100010000C9467320C9492320C94BD320C94E832FA
:100020000C94133324C1000022C1000020C1000041
:100030001EC100001CC100001AC1000018C1000050
:1000400016C1000014C1000012C1000010C1000060
:100050000EC100000CC100000AC100000C943E3328
:1000600006C100000C943A370C94703700C10000B0
:10007000FEC00000FCC00000FAC00000F8C0000094
:10008000F6C00000F4C00000F2C00000F0C00000A4
:100090000C94C6370C94FC37EAC00000E8C000009E
:1000A000E6C00000E4C00000E2C00000E0C00000C4
:1000B000DEC00000DCC00000DAC00000D8C00000D4
:1000C000D6C00000D4C000000C942F2D0C945238E0
:1000D0000C948838CCC000000C94DE380C94143991
:1000E000C6C0000000000A0B02090C0D0E08070331
:1000F00004010000000000000000000000000000FB
:1001000000000000000000000000000000000000EF
:1001100012111000000000000000000000000000AC
:100120000000000000000000000001021020200874
:100130000810204010204080020102010804020142
:1001400001020408102040808040201008040201B1
:10015000800402018040201008040201080402010A
:100160000102040810204080010204081020408091
:1001700005050505070508080808020202020A0A23
:100180000808040404040101010101010101030341
:10019000030303030303040707070C0C0C0C0C0CEC
:1001A0000C0C0202020206060606060606060B0BE9
:1001B0000B0B0B0B0B0B000020002300260029006B
:1001C0002C002F003200000100000301060109018C
:1001D00000002200250028002B002E0031003400F2
:1001E00002010000050108010B01000021002400AC
:1001F00027002A002D003000330001010000040117
:1002000007010A0199372538B1383D3911241FBE3D
:10021000CFEFD1E2DEBFCDBF00E00CBF13E0A0E026
:10022000B2E0E8EFF3E700E00BBF02C007900D92E9
:10023000AA37B107D9F724E1AAE7B3E001C01D92BC
:10024000AA3DB207E1F711E0C6E0D1E000E006C048
:1002500021970109802FFE010E94C939C230D107C0
:1002600080E00807A9F70E94242E0C94FA39C8CE22
:10027000611102C00C947F356130E1F362E0FACF86
:10028000662319F061E00C94BB3560E0FCCF089563
:10029000CF92DF92EF92FF92CF93882351F16A01C0
:1002A0007B01CFEFC80F20E030E0A901CB01B60100
:1002B0000E94462F87FF11C0C701B60190580E94C7
:1002C0004F2F9B01AC016C2F70E090E080E0CF914C
:1002D000FF90EF90DF90CF90B2C0C701B6010E94AF
:1002E0004A2F8C2FCF91FF90EF90DF90CF900C94FE
:1002F0004534CF91FF90EF90DF90CF9008950F930A
:100300001F938B019C0183E03695279517950795E0
:100310008A95D1F706581C4F462F477021E030E0F0
:10032000F90102C0EE0FFF1F4A95E2F7AF01F80195
:1003300020812423CB010196211102C090E080E0AE
:100340001F910F9108950F931F938B019C0183E0E0
:1003500036952795179507958A95D1F7677081E0AF
:1003600090E001C0880F6A95EAF7F801E658FC4F63
:100370002081452B31F48095822380831F910F913A
:100380000895822BFACF2F923F924F925F926F92F5
:100390007F928F929F92AF92BF92CF92DF92EF9215
:1003A000FF920F931F93CF93DF93D62EC72E782EF5
:1003B000692E49015A01280161E08D2D0E947F3587
:1003C000CD2DDC2D8E010F5F1F4FA8016D2D7C2DD3
:1003D000872D962DB8DF20E030E0A901C201B701DA
:1003E0000E94CE30181664F4C201B7010E944F2F4C
:1003F0002B01C501B4010E944F2FA201CE0123D0D1
:10040000C801DF91CF911F910F91FF90EF90DF9086
:10041000CF90BF90AF909F908F907F906F905F90A4
:100420004F903F902F900895882341F08150682F7E
:1004300070E090E080E050E040E085CF0895862FA6
:10044000B9010C9445349C01FC01EC51FF4FE4913F
:10045000E150E231E0F4F0E08827EE5CFD4F8F4F91
:100460000C94C93944024B024E0265027A024702DB
:100470008F029B029F02B602CB02E002F7020C033E
:100480004702210338034D0384B5806884BD60E0D2
:10049000822F0C94BB3584B58062F8CF80918000A8
:1004A0008C7F82608093800080918100807E80615B
:1004B000682B609381005093870040938600809161
:1004C0008000806880938000E2CF809180008C7FE4
:1004D00082608093800080918100807E8061682BA3
:1004E0006093810050938700409386008091800044
:1004F0008062E8CF809180008C7F82608093800052
:1005000080918100807E8061682B60938100509390
:10051000870040938600809180008860D3CF8091CF
:10052000B00080688093B0008091B100887F682B14
:100530006093B100ACCF8091B0008062F3CF809126
:1005400090008C7F82608093900080919100807EEB
:100550008061682B609391005093970040939600C0
:100560008091900080688093900091CF809190005E
:100570008C7F82608093900080919100807E80616A
:10058000682B609391005093970040939600809160
:1005900090008062E8CF809190008C7F8260809391
:1005A000900080919100807E8061682B6093910023
:1005B0005093970040939600809190008860D3CF2D
:1005C0008091A0008C7F82608093A0008091A10028
:1005D000807E8061682B6093A1005093A7004093B8
:1005E000A6008091A00080688093A00050CF8091E9
:1005F000A0008C7F82608093A0008091A100807E0B
:100600008061682B6093A1005093A7004093A600DF
:100610008091A0008062E8CF8091A0008C7F8260F2
:100620008093A0008091A100807E8061682B609300
:10063000A1005093A7004093A6008091A00088607D
:10064000D3CF809120018C7F8260809320018091A4
:100650002101807E8061682B6093210150932701E6
:1006600040932601809120018068809320010FCF64
:10067000809120018C7F82608093200180912101F4
:10068000807E8061682B6093210150932701409305
:100690002601809120018062E8CF809120018C7F2B
:1006A00082608093200180912101807E8061682B8F
:1006B00060932101509327014093260180912001EE
:1006C0008860D3CFCF93DF93EC0170E060E06C17CC
:1006D0007D070CF5072E000C880B990B0E947D2FCF
:1006E00020E030E0A9010E94CF2E20E030E0A901F7
:1006F0000E94CF2E20E030E040E450E40E94CF2E54
:1007000020E030E040E450E40E94CE2E0E944A2FC8
:100710006F5F7F4FDCCFDF91CF910895CF93DF9351
:1007200080919303909194030E94E835EC018091AD
:10073000990390919A03C6DF809195039091960357
:100740000E94E835019771F4809197039091980386
:10075000219771F401969093980380939703DF910A
:10076000CF9108958091970390919803CD2B91F3A9
:100770000197F1CFCF93DF9380918B0390918C03FE
:100780000E94E835EC0180919103909192039ADFE9
:1007900080918D0390918E030E94E835019771F44A
:1007A00080918F0390919003219771F4019690931B
:1007B000900380938F03DF91CF91089580918F03F1
:1007C00090919003CD2B91F30197F1CFCF93DF93CD
:1007D00080918303909184030E94E835EC0180911D
:1007E000890390918A036EDF80918503909186033F
:1007F0000E94E835019771F48091870390918803F6
:10080000219771F401969093880380938703DF9179
:10081000CF9108958091870390918803CD2B91F318
:100820000197F1CFCF93DF9380918D0390918E0349
:100830000E94E835EC01809191039091920342DF90
:1008400080918B0390918C030E94E835019771F49D
:1008500080918F0390919003CD2B71F4019690932A
:10086000900380938F03DF91CF91089580918F0340
:1008700090919003219791F30197F1CFCF93DF935C
:1008800080918503909186030E94E835EC01809168
:10089000890390918A0316DF8091830390918403EA
:1008A0000E94E835019771F4809187039091880345
:1008B000CD2B71F401969093880380938703DF9189
:1008C000CF9108958091870390918803219791F3A8
:1008D0000197F1CFCF93DF93809195039091960389
:1008E0000E94E835EC018091990390919A03EADE29
:1008F00080919303909194030E94E835019771F4DD
:100900008091970390919803CD2B71F40196909369
:10091000980380939703DF91CF9108958091970377
:1009200090919803219791F30197F1CF0F931F9323
:10093000CF93DF938C01EC0183E0CC0FDD1F8A9510
:10094000E1F7CD57DC4F798368835B834A838881E5
:10095000998160E00E947F358A819B8160E00E94DE
:100960007F358881998161E00E94BB358A819B81B6
:1009700061E00E94BB3501301105D9F1023011054B
:1009800009F466C0012B09F092C080918303909115
:10099000840302978431910530F5845D9C4FFC01FE
:1009A0008081082E000C990B41E050E06EE374E06A
:1009B0000E946C3180918503909186030297843167
:1009C0009105A0F4845D9C4FFC018081082E000CF1
:1009D000990B41E050E066EE73E0DF91CF911F91FB
:1009E0000F910C946C318FEF9FEFDECF8FEF9FEF65
:1009F000F0CF80918B0390918C0302978431910505
:100A000008F5845D9C4FFC018081082E000C990B39
:100A100041E050E062E174E00E946C3180918D030E
:100A200090918E0302978431910578F4845D9C4FF8
:100A3000FC018081082E000C990B41E050E06AEB2C
:100A400073E0CBCF8FEF9FEFE3CF8FEF9FEFF5CF2B
:100A5000809193039091940302978431910508F556
:100A6000845D9C4FFC018081082E000C990B41E0B5
:100A700050E06AE674E00E946C3180919503909199
:100A8000960302978431910578F4845D9C4FFC01B4
:100A90008081082E000C990B41E050E06EE873E075
:100AA0009CCF8FEF9FEFE3CF8FEF9FEFF5CFDF91DD
:100AB000CF911F910F91089523E0880F991F2A95D8
:100AC000E1F7FC01ED57FC4F848195810895CF93A8
:100AD000DF934115510509F450C0EA01DC0112967B
:100AE000ED91FC9180819181A281B3818093E40397
:100AF0009093E503A093E603B093E7038481958187
:100B0000A681B7818093E0039093E103A093E20371
:100B1000B093E30380859185A285B3858093DC0340
:100B20009093DD03A093DE03B093DF038485958566
:100B3000A685B7858093D8039093D903A093DA0351
:100B4000B093DB031092D4031092D5031092D60316
:100B50001092D7038091E903811103C08881882313
:100B600079F08091980290919902049731F083E096
:100B700090E09093990280939802DF91CF9108952D
:100B80006AE070E080E090E00E94AD3380E00E9477
:100B900072188091E8038883DDCFCF93DF934115EE
:100BA000510569F08091980290919902049739F06B
:100BB000EA0180E00E9472188091E8038883DF9147
:100BC000CF9108958F3F910509F010F40C945B18B4
:100BD0000895089508950E942F18892B21F081E02F
:100BE00090E00C94FA3908950C94B518CF93DF93E4
:100BF000EC0160919402709195028091960290911F
:100C0000970220E030E040E050EC0E94462F88231D
:100C100061F08091940290919502A0919602B0911A
:100C2000970288839983AA83BB83DF91CF9108952C
:100C3000DDCF08950895CF93DF93EC0189819A81E8
:100C4000AB81BC810197A105B105C1F48D818823D9
:100C5000A9F06A857B858C859D8551DB998788877E
:100C600040E050E0BA0114DB6A857B858C859D8568
:100C700046DB99878887DF91CF91D6CBDF91CF91E3
:100C800008952F923F924F925F926F927F928F9230
:100C90009F92AF92BF92CF92DF92EF92FF920F930B
:100CA0001F93CF93DF93CDB7DEB7CB54D1090FB6E7
:100CB000F894DEBF0FBECDBF26967FAF6EAF2697EE
:100CC00028965FAF4EAF28973E8B2D8B18012C9640
:100CD000FFAEEEAE2C97FB01E150F04CEE0FFF1F84
:100CE000EE0FFF1FE80FF91F80809180A280B38074
:100CF0008F8A988EA98EBA8EB501A401442777FDFC
:100D0000439555276627772729964FAF2997F901ED
:100D1000E150F04CEE0FFF1FEE0FFF1F2896AEAC18
:100D2000BFAC2897EA0DFB1DC080D180E280F38024
:100D3000CB8EDC8EED8EFE8EB701A601442777FDAB
:100D400043955527662777272A964FAF2A97188B02
:100D50000F87F80130E020E02C96EEACFFAC2C972A
:100D60002E153F050CF43FC022969FAF8EAF229701
:100D70003A8A298A812C912C540183948F829886F7
:100D8000A986BA8610E000E026968EAC9FAC269726
:100D9000081519057CF129969FAC29972A96AFACC6
:100DA0002A9741E050E060E070E030E020E09A10E7
:100DB000F4C1C55BDF4F0FB6F894DEBF0FBECDBFE9
:100DC000DF91CF911F910F91FF90EF90DF90CF9027
:100DD000BF90AF909F908F907F906F905F904F905B
:100DE0003F902F90089511921192119211922F5FBE
:100DF0003F4FB2CF2296EEADFFAD229781919191F8
:100E0000A191B1912296FFAFEEAF22978F88988C77
:100E1000A98CBA8CB7FE23C04F81588569857A8525
:100E200041505109610971095A016B01A81AB90AA7
:100E3000CA0ADB0AD601C50121E0CF80D884E98443
:100E4000FA848C159D05AE05BF0508F020E0822EC2
:100E5000912CB12CA12C8F829886A986BA865D012F
:100E6000CC24DD24A8A2B9A2CAA2DBA29C01AD01B8
:100E7000442755272CA33DA34EA35FA32C96EEAD8C
:100E8000FFAD2C97E01BF10B8D889E888E169F0678
:100E90000CF4F4012896AEACBFAC28972496BFAEF4
:100EA000AEAE2497C988DA88DC8ACB8A812C912C53
:100EB000540183948B869C86AD86BE86812C912CB2
:100EC00054011E821D82CD80DE80CE16DF06FCF02E
:100ED000F7FF02C0F0E0E0E0E00FF11F2C96EEAC6F
:100EE000FFAC2C97EE15FF0554F4EE0FFF1FEE0F2D
:100EF000FF1FE20DF31D80829182A282B3820F5FF9
:100F00001F4FE989FA893496FA8BE98B3DCF2496F5
:100F1000AEADBFAD2497CD90DD90ED90FD902496C1
:100F2000BFAFAEAF24972B8D3C8D4D8D5E8D57FF9F
:100F300022C08B859C85AD85BE850197A109B1092D
:100F4000AC01BD014C195D096E097F096A017B0185
:100F500081E02B853C854D855E85C216D306E4066F
:100F6000F50608F080E0482F50E070E060E04B8725
:100F70005C876D877E87B7018827992768A779A73F
:100F80008AA79BA7EE24FF2428A139A14AA15BA12F
:100F9000C701B6010E9498392B013C012CA13DA14B
:100FA0004EA15FA168A579A58AA59BA50E94983945
:100FB0006CA77DA78EA79FA7AB89BC894D915D913A
:100FC0006D917D91BC8BAB8BDB01CA01880D991DA6
:100FD000AA1DBB1D89839A83AB83BC8391E09F8F3D
:100FE00029813A814B815C81281539054A055B05C9
:100FF00008F01F8E2CA13DA14EA15FA1C701B60133
:101000000E9498396B017C0189809A80AB80BC80FA
:101010008C0C9D1CAE1CBF1C89829A82AB82BC8248
:1010200052019924882488AA99AAAAAABBAA29812C
:101030003A814B815C81280D391D4A1D5B1D2CAB0B
:101040003DAB4EAB5FAB8CA49DA4AEA4BFA454013A
:101050009924882488AE99AEAAAEBBAE280D391D5E
:101060004A1D5B1D2CAF3DAF4EAF5FAFAB89BC8956
:1010700014972D933D934D935C93139728A139A119
:101080004AA15BA168A579A58AA59BA50E9498396C
:101090009F8C690D711D811D911D2301662477248C
:1010A000460E571E681E791E2CA53DA54EA55FA5B0
:1010B0004A01AA24BB24840C951CA61CB71C81E001
:1010C00090E0A0E0B0E049815A816B817C814C15B1
:1010D0005D056E057F0518F080E090E0DC01880D6D
:1010E000991DAA1DBB1D41E050E060E070E088A89A
:1010F00099A8AAA8BBA8CCA8DDA8EEA8FFA8C814E8
:10110000D904EA04FB0418F040E050E0BA01840F6F
:10111000951FA61FB71F812C912C54018394C8AC36
:10112000D9ACEAACFBAC2CAD3DAD4EAD5FAD2C15F2
:101130003D054E055F0518F0812C912C5401880E59
:10114000991EAA1EBB1E4D815E814F5F5F4F5E835D
:101150004D83B9CEEF85F889C190D190E190F1909F
:10116000F88BEF87DB01CA010197A109B1098C193E
:101170009D09AE09BF09349780839183A283B3830D
:10118000E1E084179507A607B70708F0E0E04E2FC7
:1011900050E070E060E02F5F3F4F2C968EAC9FAC2C
:1011A0002C9728153905B4F204CE2F923F924F9216
:1011B0005F926F927F928F929F92AF92BF92CF92E7
:1011C000DF92EF92FF920F931F93CF93DF9300D0A4
:1011D0001F92CDB7DEB78B015C834B83FB01E150DF
:1011E000F04CEE0FFF1FEE0FFF1FE80FF91F4081BD
:1011F00051816281738177FD27C04C01B12CA12CF4
:10120000C12CD12C7601A016B10664F5F4016191D0
:101210007191819191914F010E947B2F4B815C8153
:101220000E94D4309B01AC01C701B6010E94CF2EB1
:101230006B017C012B813C81205E3F4F3C832B83E3
:101240003FEFA31AB30ADFCF9A83898381E090E04E
:10125000A0E0B0E0312C212CC12CD12C760120163D
:101260003106CCF0C701B6010F900F900F900F9090
:10127000DF91CF911F910F91FF90EF90DF90CF9072
:10128000BF90AF909F908F907F906F905F904F90A6
:101290003F902F900895E981FA814190519061909B
:1012A0007190FA83E9834094509460947094530150
:1012B0004201880E991EAA1EBB1EC501B4010E94E0
:1012C0007B2F4B815C810E94D4309B01AC01C70114
:1012D000B6010E94CE2E6B017C0181E0841495043E
:1012E000A604B70408F080E090E0B0E0A0E02B8115
:1012F0003C81205E3F4F3C832B833FEF231A330A10
:10130000AECFCF92DF92EF92FF926B017C019F777D
:1013100020E030E040E859E50E94462F87FF2BC0CF
:1013200020E030E040E05FE3C701B6010E94CE302C
:1013300087FD0EC020E030E040E05FE3C701B6016A
:101340000E94CF2EFF90EF90DF90CF900C94B82F9B
:1013500020E030E040E05FEBC701B6010E94CE30F4
:10136000181684F420E030E0A901C701B6010E94FC
:1013700008316B017C01C701B601FF90EF90DF904F
:10138000CF90089520E030E040E05FE3C701B60170
:101390000E94CE2EFF90EF90DF90CF900C94332FD1
:1013A000E091E013F091E113ACE7B4E1D8964D91F0
:1013B0005D916D917C91DB97408351836283738350
:1013C00014964D915D916D917C911797448355834F
:1013D000668377831C964D915D916D917C911F97EB
:1013E000408751876287738754968D919D910D90A8
:1013F000BC91A02D84879587A687B78708952F92E3
:101400003F924F925F926F927F928F929F92AF9294
:10141000BF92CF92DF92EF92FF920F931F93CF93E1
:10142000DF93CDB7DEB7E6970FB6F894DEBF0FBEF9
:10143000CDBF00915F14109160140130110509F0C7
:1014400086C38091471490914814A0914914B0919B
:101450004A1480904F1490905014A0905114B09062
:101460005214C0904B14D0904C14E0904D14F09056
:101470004E148F3F2FEF9207A207B20709F044C323
:10148000C701B6016F5F7F4F8F4F9F4F0E947B2F29
:10149000A50194010E94083120E030E040E85FE4BB
:1014A0000E9408316093691370936A1380936B13E1
:1014B00090936C13809158138150823008F45FC36D
:1014C00080E0809358130130110509F0A0C0C0904E
:1014D0003002D0903102E0903202F0903302A70146
:1014E000960160919C1270919D1280919E12909134
:1014F0009F120E94462F882341F0C0929C12D092E6
:101500009D12E0929E12F0929F1290E080E0D4DA59
:10151000092E000CAA0BBB0B8093BC149093BD1436
:10152000A093BE14B093BF1440915C0250915D0231
:1015300060915E0270915F024D835E836F83788756
:1015400089839A83AB83BC8332E0E32EF12C00EADB
:1015500014E121E030E0AE014F5F5F4F61E070E0E9
:10156000CE0105968EDB88E0F801ACE6B4E101908F
:101570000D928A95E1F7C0903802D0903902E09040
:101580003A02F0903B0250E040E062E070E0C801B7
:101590000CDE20E030E040E05FE20E9408319B0179
:1015A000AC01C701B6010E94CE2E6B017C01C09236
:1015B0009C14D0929D14E0929E14F0929F14AC0162
:1015C0009B01609100027091010280910202909152
:1015D00003020E9408316093B0147093B114809399
:1015E000B2149093B314A7019601609128027091F0
:1015F000290280912A0290912B020E940831609367
:101600007C1470937D1480937E1490937F142091AA
:101610006012309161124091621250916312609198
:10162000B0147091B1148091B2149091B3140E94CF
:10163000CE2E209120023091210240912202509121
:1016400023020E9408316B017C01C092B414D09235
:10165000B514E092B614F092B71420916412309150
:101660006512409166125091671260917C147091DE
:101670007D1480917E1490917F140E94CF2EA7013B
:1016800096010E94CF2E6B017C014B015C01E89416
:10169000B7F88092981490929914A0929A14B092EC
:1016A0009B1440903C0250903D0260903E0270902E
:1016B0003F02AC019B01C301B2010E94462F87FD8E
:1016C00012C04090400250904102609042027090DF
:1016D0004302A7019601C301B2010E94CE30181641
:1016E00014F02601370100915F141091601401304D
:1016F0001105B9F420E030E0A901C301B2010E9454
:10170000CE3018160CF03DC220E030E040E450E44A
:10171000C501B4010E94CE3018160CF032C21092EE
:10172000481380914813813009F44BC2823009F488
:1017300076C2811127C080918C0290918D02A09178
:101740008E02B0918F02898B9A8BAB8BBC8B809170
:10175000900290919102A0919202B0919302898798
:101760009A87AB87BC870130110561F480915813CB
:10177000882309F423C2833009F01CC281E090E081
:1017800080935813E89477F86091881270918912C9
:1017900080918A1290918B120E947F017C0190931C
:1017A0008712809386122091440230914502409125
:1017B000460250914702C301B2010E9408314B0119
:1017C0005C0120E030E04FE753E40E94462F87FFA2
:1017D00054C220E030E0A901C501B4010E94CE301E
:1017E00018160CF051C2B501A401C7010E944801AE
:1017F00080915F1490916014019709F027C12091A6
:101800009C1430919D1440919E1450919F146091AE
:1018100008027091090280910A0290910B020E94C5
:101820000831609380147093811480938214909394
:10183000831469897A898B899C8963DD6B017C01BA
:10184000C0929C14D0929D14E0929E14F0929F142A
:1018500020E030E040E853E40E94462F6FEF87FF1E
:101860000EC020E030E0A901C701B6010E94CE30D1
:1018700060E087FD04C0C701B6010E944F2F8EE1D2
:101880000E94400169857A858B859C853ADD6B01D4
:101890007C01C0929C14D0929D14E0929E14F09210
:1018A0009F1420E030E040E853E40E94462F6FEFA1
:1018B00087FF0EC020E030E0A901C701B6010E94F9
:1018C000CE3060E087FD04C0C701B6010E944F2FF3
:1018D0008FE10E944001C0903402D0903502E09028
:1018E0003602F0903702A701960160919212709132
:1018F000931280919412909195120E94462F882302
:1019000019F1C701B6010E942E17882309F4C0C13E
:1019100060913402709135028091360290913702C5
:101920000E942E178111C0C180919414909195143A
:10193000A0919614B0919714809392129093931261
:10194000A0939412B093951281E090E0B5D8092E3F
:10195000000CAA0BBB0B8093B8149093B914A093FE
:10196000BA14B093BB14409160025091610260912F
:101970006202709163024D835E836F8378878983EF
:101980009A83AB83BC8392E0E92EF12C08EA14E140
:1019900021E030E0AE014F5F5F4F61E070E0CE01CB
:1019A00005966FD988E0F801A4E7B4E101900D92A3
:1019B0008A95E1F7C0904802D0904902E0904A022F
:1019C000F0904B0250E040E062E070E0C801EDDBD7
:1019D00020E030E040E05FE20E9408319B01AC0172
:1019E000C701B6010E94CE2E6B017C01C0929C14EF
:1019F000D0929D14E0929E14F0929F14AC019B0132
:101A00006091040270910502809106029091070294
:101A10000E94083160938414709385148093861417
:101A200090938714A701960160912C0270912D026A
:101A300080912E0290912F020E94083160938C14A5
:101A400070938D1480938E1490938F14209168124C
:101A50003091691240916A1250916B126091841416
:101A60007091851480918614909187140E94CE2ED7
:101A700020912402309125024091260250912702A4
:101A80000E9408316B017C01C0928814D0928914A5
:101A9000E0928A14F0928B1420916C1230916D12A6
:101AA00040916E1250916F1260918C1470918D1450
:101AB00080918E1490918F140E94CF2EA7019601D1
:101AC0000E94CF2E4B015C01809298149092991441
:101AD000A0929A14B0929B14C0904C02D0904D02E8
:101AE000E0904E02F0904F02A70196010E94CE3086
:101AF00018160CF0EAC0C0929814D0929914E09293
:101B00009A14F0929B14F1C0BC01CD016F5F7F4F1E
:101B10008F4F9F4F0E947B2FA50194010E94083197
:101B20002B013C01C701B6010E947B2FA501940146
:101B30000E94083120E030E040E85FE40E94083174
:101B40009B01AC01C301B2010E94CF2EABCC0115A9
:101B5000110509F0AFCCE0919913F0919A1301901F
:101B6000F081E02D80819181A281B381E0916214A6
:101B7000F091631480839183A283B3839BCC83E031
:101B8000A0CC20E030E0A901C301B2010E94462FA1
:101B900087FF0EC020E030E040E450E4C501B4010E
:101BA0000E94CE30181624F481E080934813B9CDFA
:101BB00082E0FBCF082E000C990BE2CD82E090E092
:101BC000DFCD8091840290918502A0918602B09130
:101BD0008702898B9A8BAB8BBC8B8091880290910A
:101BE0008902A0918A02B0918B0289879A87AB877C
:101BF000BC870130110509F0C5CD809157138823AA
:101C000059F0833029F481E090E080935713BACDE6
:101C1000082E000C990BF9CF82E090E0F6CF80916E
:101C20007C0290917D02A0917E02B0917F02898B0F
:101C30009A8BAB8BBC8B8091800290918102A0919A
:101C40008202B091830289879A87AB87BC87013073
:101C5000110509F097CD80915613882359F08330F0
:101C600029F481E090E0809356138CCD082E000C6F
:101C7000990BF9CF82E090E0F6CF812C912C2FE7E1
:101C8000A22E23E4B22EAFCD812C912C5401ABCDEA
:101C90006091340270913502809136029091370242
:101CA0000E947317811134CE8091340290913502D5
:101CB000A0913602B09137028093941490939514BA
:101CC000A0939614B09397142FCEC0905002D0904A
:101CD0005102E0905202F0905302A7019601C50113
:101CE000B4010E94462F87FD06CFE0905F14F0906C
:101CF0006014409098145090991460909A147090C9
:101D00009B1491E0E916F104C9F4E894B7F820E0D7
:101D100030E0A901C301B2010E94CE3018160CF0C8
:101D200023C420E030E040E450E4C501B4010E9447
:101D3000CE3018160CF018C4109249138091491334
:101D4000813009F431C4823009F45CC4811127C0A8
:101D50008091740290917502A0917602B091770201
:101D60008D879E87AF87B88B80917802909179029A
:101D7000A0917A02B0917B028D8B9E8BAF8BB88F36
:101D8000EA94EF2861F480915513882309F409C47B
:101D9000833009F002C481E090E080935513E89409
:101DA00077F8409298145092991460929A14709215
:101DB0009B1460917A1270917B1280917C129091A9
:101DC0007D120E947F018C0190937912809378128A
:101DD000209198143091991440919A1450919B1429
:101DE0006091540270915502809156029091570271
:101DF0000E9408316B017C0120E030E04FE753E4A2
:101E00000E94462F87FF2CC420E030E0A901C701C3
:101E1000B6010E94CE3018160CF029C4B701A601F5
:101E2000C8010E94480180915F149091601401974D
:101E300009F099C020919C1430919D1440919E14FA
:101E400050919F1460910C0270910D0280910E02CE
:101E500090910F020E940831609390147093911436
:101E600080939214909393146D857E858F859889C5
:101E700048DA6B017C01C0929C14D0929D14E092D0
:101E80009E14F0929F1420E030E040E853E40E945A
:101E9000462F6FEF87FF0EC020E030E0A901C70199
:101EA000B6010E94CE3060E087FD04C0C701B601D4
:101EB0000E944F2F80E20E9440016D897E898F89A8
:101EC000988D1FDA6B017C01C0929C14D0929D14F6
:101ED000E0929E14F0929F1420E030E040E853E43A
:101EE0000E94462F6FEF87FF0EC020E030E0A9016F
:101EF000C701B6010E94CE3060E087FD04C0C70173
:101F0000B6010E944F2F81E20E9440016091580269
:101F10007091590280915A0290915B02F2D96B0143
:101F20007C01C0929C14D0929D14E0929E14F09279
:101F30009F1420E030E040E853E40E94462F6FEF0A
:101F400087FF0EC020E030E0A901C701B6010E9462
:101F5000CE3060E087FD04C0C701B6010E944F2F5C
:101F600089E00E94400180915F1490916014019774
:101F700009F0E1C282E090E00E94EA05E09162147B
:101F8000F0916314408151816281738190E080E01F
:101F90000E94E20580915F1490916014019709F00E
:101FA000CAC260915714709158148091591490913D
:101FB0005A140E947B2F20E030E040E85FE40E944A
:101FC00008316B017C01609153147091541480911D
:101FD0005514909156140E947B2F9B01AC01C701B0
:101FE000B6010E94CF2E2FE632E143E85AE30E9469
:101FF0000831AB01BC0181E090E00E94E2058091D4
:102000005F1490916014019709F095C280905B1461
:1020100090905C14A0905D14B0905E1420E030E0CD
:1020200040E85FEBC501B4010E94462F882309F404
:1020300048C0609157147091581480915914909130
:102040005A140E947B2F20E030E040E85FE40E94B9
:1020500008316B017C01609153147091541480918C
:102060005514909156140E947B2F9B01AC01C7011F
:10207000B6010E94CF2E2FE632E143E85AE30E94D8
:1020800008316B017C01AC019B01C501B4010E94C8
:10209000CE2E4B015C0120E030E040E054E3C7016C
:1020A000B6010E9408319B01AC01C501B4010E9438
:1020B000CE30181634F080E493E090935A13809356
:1020C000591380916114882331F080E493E0909358
:1020D0005A1380935913E0919913F0919A13019038
:1020E000F081E02D80819181A281B3818F8F98A3AF
:1020F000A9A3BAA38091691390916A13A0916B135D
:10210000B0916C138FA798ABA9ABBAABE0916D13EC
:10211000F0916E1380809180A280B380E0919D1336
:10212000F0919E1370806180E0916113F0916213D1
:1021300020803180528043809481998FA581ABA308
:10214000B681BDA727812EA7E0915F13F0916013A0
:102150001182108280E1E72DF62DD10101900D92C0
:102160008A95E1F7E0919713F0919813508241829C
:1021700017D920E030E040E05FE3C501B4010E94E0
:1021800008316B017C0138A62FA25D8E4E8E7D8AB0
:102190006E8A8101005F1F4F7D866E8659864A8652
:1021A0003A8A298AE989FA8981919191A191B1911B
:1021B000FA8BE98B89A79AA7ABA7BCA7A985BA8593
:1021C0002D913D914D915D91BA87A987C701B601C7
:1021D0000E94083129A53AA54BA55CA50E94CF2EE7
:1021E000ED85FE856193719381939193FE87ED87D1
:1021F00089899A8908171907A9F6E0919913F0912E
:102200009A1300811181A70196016F8D78A189A190
:102210009AA10E94CF2ED8016D937D938D939C93AC
:102220001397E0919713F0919813B98DB0832BA178
:102230002183E5D8B5D820E030E0A901C501B4017B
:102240000E94083169A77AA78BA79CA720E030E0FD
:1022500040E45FE3C501B4010E9408316B017C01D9
:10226000898D8D879BA19E87072D162DAD85BE85F7
:10227000BA8FA98F59864A86F10181919191A191D6
:10228000B1911F018BA39CA3ADA3BEA3A985BA8561
:102290006D917D918D919D91BA87A987E98DFA8D78
:1022A0004190519061907190FA8FE98F29A53AA5DC
:1022B0004BA55CA50E9408316BAB7CAB8DAB9EAB94
:1022C000A7019601C301B2010E9408319B01AC0134
:1022D0006BA97CA98DA99EA90E94CF2E2BA13CA100
:1022E0004DA15EA10E94CF2ED8016D937D938D9359
:1022F0009D938D01E989FA89E215F30509F0BCCFB8
:10230000E0919913F0919A1300811181A701960130
:102310006F8D78A189A19AA10E94CF2ED8016D93CB
:102320007D938D939C931397E0919713F09198135D
:10233000BDA5B0832EA5218362D832D829E33EE81B
:1023400043E65EE3C501B4010E940831698B7A8BD4
:102350008B8B9C8B2BEA3AEA4AEA5EE3C501B40117
:102360000E9408316F8F78A389A39AA329E33EE8DE
:1023700043EE5EE3C501B4010E940831698F7A8F94
:102380008B8F9C8F0DA51EA5EFA1F8A58191919132
:10239000A191B191F8A7EFA389879A87AB87BC87F2
:1023A000AD8DBE8D6D917D918D919D91BE8FAD8FC7
:1023B000ED85FE854190519061907190FE87ED878B
:1023C000D801CD90DD90ED90FD908D0129893A895D
:1023D0004B895C890E9408314B015C012F8D38A12B
:1023E00049A15AA1C301B2010E9408319B01AC016D
:1023F000C501B4010E94CF2E4B015C01298D3A8D9D
:102400004B8D5C8DC701B6010E9408319B01AC0168
:10241000C501B4010E94CF2E29853A854B855C8584
:102420000E94CF2EED89FE896193719381939193E0
:10243000FE8BED8B8FA198A52816390609F0A4CF45
:10244000E0919913F0919A130190F081E02D8FA5FE
:1024500098A9A9A9BAA980839183A283B383E091A3
:102460005F13F091601381E090E09183808380910D
:10247000471490914814A0914914B0914A140196C0
:10248000A11DB11D8093471490934814A093491443
:10249000B0934A14892B8A2B8B2B99F480914B147F
:1024A00090914C14A0914D14B0914E140196A11D21
:1024B000B11D80934B1490934C14A0934D14B09382
:1024C0004E148091691390916A13A0916B13B0918F
:1024D0006C13E0916214F091631480839183A28362
:1024E000B3838091531490915414A0915514B091DA
:1024F00056140196A11DB11D80935314909354144A
:10250000A0935514B0935614892B8A2B8B2B99F4D6
:102510008091571490915814A0915914B0915A1465
:102520000196A11DB11D8093571490935814A09348
:102530005914B0935A14E6960FB6F894DEBF0FBE46
:10254000CDBFDF91CF911F910F91FF90EF90DF9062
:10255000CF90BF90AF909F908F907F906F905F9043
:102560004F903F902F90089520E030E0A901C301E3
:10257000B2010E94462F87FF0EC020E030E040E409
:1025800050E4C501B4010E94CE30181624F481E055
:1025900080934913D3CB82E0FBCF082E000C990B1C
:1025A000FCCB82E090E0F9CB80916C0290916D02BF
:1025B000A0916E02B0916F028D879E87AF87B88B16
:1025C0008091700290917102A0917202B091730299
:1025D0008D8B9E8BAF8BB88FEA94EF2809F0DFCB01
:1025E00080915413882359F0833029F481E090E0DE
:1025F00080935413D4CB082E000C990BF9CF82E0B2
:1026000090E0F6CF8091640290916502A0916602FD
:10261000B09167028D879E87AF87B88B80916802E3
:1026200090916902A0916A02B0916B028D8B9E8B92
:10263000AF8BB88FEA94EF2809F0B1CB8091531398
:10264000882359F0833029F481E090E0809353137C
:10265000A6CB082E000C990BF9CF82E090E0F6CFC4
:10266000C12CD12C8FE7E82E83E4F82ED7CBC12CD8
:10267000D12C7601D3CB4F925F926F927F928F9243
:102680009F92AF92BF92EF92FF920F931F93CF93BF
:10269000DF9384E090E0ABD3E9E5F3E183E191E0FF
:1026A000DF01EC011D922197E9F78FE594E190930A
:1026B000601380935F1382E694E190939A13809362
:1026C00099138FE494E190936E1380936D1380EED1
:1026D00093E190939813809397138AED93E19093ED
:1026E0009E1380939D138FE394E190939C138093AA
:1026F0009B1381E494E19093A01380939F138CED3E
:1027000093E19093A2138093A1138EED93E19093A4
:10271000A4138093A313F093C413E093C313F09313
:102720005E13E0935D1381E090E0909360148093DA
:102730005F1487EE93E1909328148093271487EF1A
:1027400093E190932A148093291487E094E1909365
:102750002C1480932B1487E194E190932E14809392
:102760002D14E0E6F2E1F093DB13E093DA1387E255
:1027700094E1909362138093611384E593E09093C6
:1027800064138093631324E634E13093631420933D
:10279000621480E090E5A3ECB7E480935B1490931F
:1027A0005C14A0935D14B0935E148FE692E1A3E8ED
:1027B000BAE380934F1490935014A0935114B093A4
:1027C000521484EF95E9A0ECB0E380932F1490931A
:1027D0003014A0933114B09332148EE595EFA7ED29
:1027E000BFE28093331490933414A0933514B093C4
:1027F00036148CE296E4A9E0B7E7809337149093FF
:102800003814A0933914B0933A1481E19FE9AFEEE4
:10281000B4E080933B1490933C14A0933D14B09388
:102820003E148BEB93E090935C1380935B138BE9E6
:1028300093E09093BC038093BB0389E593E090936E
:102840009C0380939B0390939E0380939D0390939E
:10285000A00380939F039093A2038093A10390937E
:10286000A4038093A3039093A6038093A50346E556
:1028700053E15093A8034093A70347E553E15093D6
:10288000AA034093A90348E553E15093AC03409356
:10289000AB039093AE038093AD039093B00380930A
:1028A000AF039093B2038093B1039093B4038093EA
:1028B000B30383E593E19093B6038093B50384E576
:1028C00093E19093B8038093B70385E593E19093E8
:1028D000BA038093B90385E494E19093C003809395
:1028E000BF038FE294E19093BE038093BD033093C6
:1028F000C2032093C103ACE7B4E184E4ED01199273
:102900008A95E9F780E1DF01C82F1D92CA95E9F7A2
:10291000E0E7F2E199EEDF011D929A95E9F7ECE626
:10292000F4E1EF0119928A95E9F7C1E0C0934E13E3
:102930008091300290913102A0913202B091330225
:1029400080939C1290939D12A0939E12B0939F121D
:10295000812C912C5401839480929712909298121A
:10296000A0929912B0929A1243E050E062E070E0B7
:1029700090E080E00E949604C0939B128FEF8093BA
:10298000481310927E12C0934F1322E32093F0124B
:1029900093E39093F11284E38093F21285E38093A2
:1029A000F31286E38093F41287E38093F51288E3B1
:1029B0008093F61289E38093F71281E38093F812F3
:1029C00030E33093F9128093FA128093FB128093D4
:1029D000FC122093FD128093FE129093FF1280EF61
:1029E00092E1909385128093841285E090E0A0E0BC
:1029F000B0E08093881290938912A0938A12B093CA
:102A00008B121092831280927F1290928012A09269
:102A10008112B0928212E12CF12C8701A80197015A
:102A200065E070E080E090E00E94C301909387121F
:102A300080938612609188127091891280918A1217
:102A400090918B120E947F0190938712809386123F
:102A50000E944701C093831210923013C093501309
:102A60008092311390923213A0923313B0923413A8
:102A700061E08EE10E943801C09335131092381343
:102A8000C09351138092391390923A13A0923B1342
:102A9000B0923C1361E08FE10E943801C0933D1376
:102AA00010928C12C0934A136091340270913502D7
:102AB0008091360290913702D1D1882309F41DC14B
:102AC0006091340270913502809136029091370204
:102AD000C5D181111DC14092921250929312609201
:102AE000941270929512812C912C540183948092AF
:102AF0008D1290928E12A0928F12B092901243E19A
:102B000050E062E170E081E090E00E949604C1E054
:102B1000C09391128FEF8093491310927012C0935B
:102B20004B1322E32093B01293E39093B11284E30A
:102B30008093B21285E38093B31286E38093B4123C
:102B400087E38093B51288E38093B61289E380937C
:102B5000B71281E38093B81230E33093B9128093B7
:102B6000BA128093BB128093BC122093BD12809343
:102B7000BE129093BF1280EB92E1909377128093F4
:102B8000761286E090E0A0E0B0E080937A12909315
:102B90007B12A0937C12B0937D12109275128092DA
:102BA000711290927212A0927312B0927412E12C70
:102BB000F12C8701A801970166E070E080E090E0C9
:102BC0000E94C301909379128093781260917A12D7
:102BD00070917B1280917C1290917D120E947F01F6
:102BE00090937912809378120E944701C0937512D6
:102BF00010922013C0934C138092211390922213B1
:102C0000A0922313B092241361E080E20E94380165
:102C1000C093251310922813C0934D13809229134B
:102C200090922A13A0922B13B0922C1361E081E2B0
:102C30000E943801C0932D1310924013C093521379
:102C40008092411390924213A0924313B092441386
:102C500061E089E00E943801C09345138091100221
:102C600090911102A0911202B09113028093601210
:102C700090936112A0936212B09363128091180234
:102C800090911902A0911A02B0911B0280936412D4
:102C900090936512A0936612B0936712809114020C
:102CA00090911502A0911602B091170280936812BC
:102CB00090936912A0936A12B0936B1280911C02D8
:102CC00090911D02A0911E02B0911F0280936C1280
:102CD00090936D12A0936E12B0936F12DF91CF910B
:102CE0001F910F91FF90EF90BF90AF909F908F90AA
:102CF0007F906F905F904F90089560913402709133
:102D000035028091360290913702EDD08111D8CEF4
:102D10004090340250903502609036027090370235
:102D2000DACE80919612811103C081E080939612D1
:102D300080917E12811107C081E080937E128EE720
:102D400092E10E941B0680913013811103C081E043
:102D50008093301380913813811103C081E08093F8
:102D6000381380918C12811103C081E080938C1202
:102D700080917012811107C081E08093701280E70A
:102D800092E10E941B0680912013811103C081E013
:102D90008093201380912813811103C081E08093D8
:102DA000281380914013811103C081E08093401368
:102DB000089560E070E080E89FE7089560E070E0CB
:102DC00080E89FE7089560E070E080E89FEF089555
:102DD00060E070E080E89FEF089560E070E080ECD4
:102DE0009FEF089560E070E080EC9FEF0895F5DFBD
:102DF0006093CC147093CD148093CE149093CF1421
:102E0000F1DF6093C0147093C1148093C214909347
:102E1000C314CFDF6093C8147093C9148093CA148D
:102E20009093CB14CBDF6093C4147093C51480933C
:102E3000C6149093C714C7DF6093D0147093D11455
:102E40008093D2149093D314C3DF6093D4147093FF
:102E5000D5148093D6149093D7140895CF92DF920F
:102E6000EF92FF92CF936B017C01AC019B016091CB
:102E7000C8147091C9148091CA149091CB140E9407
:102E8000462FC1E0882371F0A70196016091D0140C
:102E90007091D1148091D2149091D3140E94462F36
:102EA0008111C0E08C2FCF91FF90EF90DF90CF90F9
:102EB00008950F931F938B019C0100271127207801
:102EC0003F770115110520483F4749F4AB01BC018C
:102ED0006F77772781E0452B462B472B09F480E05D
:102EE0001F910F910895E5CF4F925F926F927F925D
:102EF0008F929F92AF92BF92CF92DF92EF92FF920A
:102F00006B017C014130510509F082C020E030E0C6
:102F10004AE754E40E9408314B015C0120E030E0B4
:102F200040E85FE40E94D22F0E944F2F2B013C010A
:102F300020E030E040E85FE4C501B4010E94CE30FB
:102F400018160CF088C020E030E040E85FE2C501D0
:102F5000B4010E9408310E944F2FF8944092CB0395
:102F60005092CC036092CD037092CE036093CF0356
:102F70007093D0038093D1039093D2036091940215
:102F800070919502809196029091970220E030E036
:102F900040E85FEB0E94462F882389F160919402FC
:102FA00070919502809196029091970220E030E016
:102FB00040E050EC0E94462F882309F16091940272
:102FC000709195028091960290919702A7019601C7
:102FD0000E94CE2E4B015C0120E030E040E054E343
:102FE000C701B6010E9408319B01AC01C501B401C3
:102FF0000E94462F881F8827881F8093D303C09282
:10300000C703D092C803E092C903F092CA03789430
:1030100020E034E244E759E4C701B6010E940831D8
:1030200020E030E040E05FE30E94CF2E20E030E07F
:1030300040E85FE40E94D22F0E944F2FFF90EF9054
:10304000DF90CF90BF90AF909F908F907F906F90C8
:103050005F904F90089560E070E0CB017ECFCF93FA
:10306000DF9300D01F92CDB7DEB71C821B821A827D
:103070001982BE016F5F7F4FCE0103960E94FD2C27
:1030800069817A818B819C810E94CA26009761F4B4
:10309000BE016F5F7F4FCE0103960E94092D6981AB
:1030A0007A818B819C8141D10F900F900F900F906E
:1030B000DF91CF910895CF93DF939C018F3F9105CE
:1030C00009F058F4CB01BA01E901A9010DDFAB0108
:1030D000BC01CE01DF91CF917DC28FEF9FEFDF91D9
:1030E000CF9108951F93CF93DF93D82F60E070E0C6
:1030F000CB010E94AD3311E00E94B525009751F03D
:10310000C0E08E3F2FEF920731F0DD2319F121E06F
:1031100030E028C0C1E021D1009721F08E3F3FEF81
:10312000930799F7C1111AC0C1E0029609F4C0E0F3
:103130000E946725009721F08E3F3FEF930729F704
:1031400021E0C11105C08E3F3FEF930709F420E055
:10315000D11106C0DF91CF911F910895C1E0E8CF52
:10316000212730E0232B41F2F5CFCF93DF9381E08D
:1031700090E0909399028093980233D2D0E0C0E01F
:10318000892B71F06AE070E080E090E00E94AD333E
:1031900081E0A8DF26D22196C03D27E0D20781F743
:1031A00025D20E941E271092E9031092E803109284
:1031B0009902109298021092E4031092E503109283
:1031C000E6031092E7031092E0031092E1031092DD
:1031D000E2031092E3031092DC031092DD031092DD
:1031E000DE031092DF031092D8031092D9031092DD
:1031F000DA031092DB031092D4031092D5031092DD
:10320000D6031092D70340E050E060E070EC4093AA
:1032100094025093950260939602709397021092D5
:10322000D303EBECF3E028E0DF011D922A95E9F7E8
:103230001092C7031092C8031092C9031092CA03D8
:10324000DF91CF91089582E090E0FA01918380832D
:103250008FEF9FEF0895CF93DF93EA01009711F06E
:103260000E9429281982188290E080E0DF91CF9196
:103270000895DB01009719F48FEF8C9308952EEFDA
:103280002C93FC013C96EB30F105C8F48827E45BF5
:10329000F64E8F4F0C94C93970196E196A196C1952
:1032A00068196619641961195B1957195D1980E36A
:1032B00011968C93089589E2FBCF82E2F9CF80E2E8
:1032C000F7CF11961C92089583E2F2CF81E2F0CFFE
:1032D00081E1EECF87E2ECCF8AE2EACF80E1E8CF6E
:1032E00084E2E6CF8091FE039091FF0308959093CE
:1032F000FF038093FE0308958091FD03089590914C
:10330000FD03892B8093FD030895982F909580915C
:10331000FD0389238093FD0308958091FC030895A4
:103320008091FA039091FB0308958091000481112C
:1033300011C08AEE93E023D282EF93E00E9419221B
:103340008EEE93E00E94D62481E08093000490E00A
:1033500080E0089584EF9FEF08957F928F929F926F
:10336000AF92BF92CF92DF92EF92FF920F931F9393
:10337000CF93DF9300D000D000D01F92CDB7DEB73F
:103380001A86198618861F821E821D821C821B8245
:103390001A8219828091000407EF1FEF882309F435
:1033A000C2C08E010D5F1F4F9E012B5F3F4FAE01CC
:1033B000495F5F4FBE01675F7F4F90E080E00E94F2
:1033C0004F268C01009721F00596029708F0FAC06D
:1033D00089859A85009709F4F3C06D817E812B81E0
:1033E0003C81260F371F4F8158854217530708F439
:1033F000E7C06C01C60ED71EF60140812091FE0386
:103400003091FF03232B09F4A3C0413F68F52CE161
:10341000240F2D3060F12DE2240F203158F128E3E4
:10342000240F2B3008F03FC023E030E0220F331F81
:10343000220F331FF901E651FC4F82809380A08157
:10344000B181F12CE12CF0E0E0E030E020E0712CE3
:10345000A42EB12C8216930621F1772071F03097BB
:1034600041F504EF1FEFAEC030E020E0DFCF21E0F8
:1034700030E0DCCF22E030E0D9CF4D915C91119764
:10348000A416B50651F41296ED91FC91139714967B
:10349000ED90FC901597772473942F5F3F4F16960D
:1034A000D9CF7110DCCF29E3E22E29E1F22EE3E23D
:1034B000F9E1AE014F5F5F4F19955C01E114F10432
:1034C00091F189809A808114910469F18B819C81AA
:1034D0008815990508F44FC010E000E04B815C812D
:1034E00070E060E0C6010E94F33901151105D9F4BE
:1034F00049815A8169857A858D819E81680F791FFE
:10350000C501F701199509811A812D813E814F81ED
:10351000588569857A8581E090E00E94EC258C01D0
:10352000892B09F04FC0C8012A960FB6F894DEBF68
:103530000FBECDBFDF91CF911F910F91FF90EF9004
:10354000DF90CF90BF90AF909F908F907F90089525
:10355000F12CE12CEBE2F9E14F3F09F0AACFA09169
:10356000EA03B091EB031296ED91FC911397149638
:10357000ED90FC9074CF0E9419278C0189859A8563
:103580000E94292870E060E0C4010E94B22698875A
:103590008F830E94E9259E838D836F8178856115D5
:1035A000710559F0C8010E945C299A87898706EF46
:1035B0001FEF892B09F090CF91CF08EF1FEF8ECF2F
:1035C00008EF1FEF89859A85009709F4ACCF0E9418
:1035D0002928A9CF20910004211140C787EF9FEF30
:1035E00008958091FE039091FF0308950E94E024C6
:1035F0000E945A24CED0EAEEF3E080E1DF011D9272
:103600008A95E9F71092000490E080E0089586E042
:1036100090E0FA019183808390E080E00895FF922A
:103620000F931F93CF93DF938A01EC01C60FD71F2F
:10363000F9800E940127F816190668F082E090E0F0
:10364000F801918380838EEF9FEFDF91CF911F91DF
:103650000F91FF90089589818093010490E0019675
:10366000F8019183808390E080E0EFCFCF93DF93E8
:10367000EA010E940E2782E090E0998388838BEF15
:103680009FEFDF91CF910895CF93DF93EB0186E019
:10369000FB0111928A95E9F78FEF88832DDE8983EC
:1036A0003CDE8A833DDE9D838C83DF91CF9108953C
:1036B000CF93DF93EA010E948123811109C082E048
:1036C00090E09983888385EF9FEFDF91CF910895F4
:1036D00090E080E00CDE81E090E09983888390E0C8
:1036E00080E0F3CF0F931F93CF93DF93EA018C0118
:1036F000060F171F0E94812381110BC082E090E00A
:103700009983888385EF9FEFDF91CF911F910F9170
:103710000895F8018181823038F082E090E0998349
:1037200088838EEF9FEFF0CF81E090E0E0DD88E0CE
:1037300090E09983888390E080E0E6CFCF93DF9399
:103740000097D1F4EB01FB01329686E0DF011D9278
:103750008A95E9F78FEF888385E089831A820E9432
:1037600001278B830E9400279D838C8381E08E83B9
:103770008F83DF91CF910895DF91CF917ACD2AE9A0
:1037800032E0FC013183208327E030E03383228361
:1037900008950895809102049091030408954111C1
:1037A00005C0611571058105910561F06093020402
:1037B00070930304809304049093050440930604DB
:1037C00081E0089580E00895FF920F931F93CF93B7
:1037D000DF938A01EC01C60FD71FF9800E940127F1
:1037E000F816190668F082E090E0F8019183808372
:1037F0008EEF9FEFDF91CF911F910F91FF90089572
:103800006C817D818E819F814B81C9DF811108C0D0
:1038100082E090E0F8019183808384EF9FEFEACF0C
:1038200089818093010490E00196F801918380835F
:1038300090E080E0DFCFCF93DF93EA01FC01E60F59
:10384000F71F64817581868197814381A8DF81118B
:1038500009C082E090E09983888384EF9FEFDF9135
:10386000CF91089581E090E09983888390E080E093
:10387000F6CFE2E0F4E04081518162817381480F2C
:10388000511D611D711D40835183628373830895AF
:10389000CF9320910204309103044FEFFC01408349
:1038A0002115310589F0C09101044C2F50E0FA0137
:1038B0003196E617F70741F4B90101960E94EA39FB
:1038C0008C2FD7DF10920104CF9108959B010097B0
:1038D00019F4BA01C901DCCFCCCC9B01009719F4D3
:1038E000BA01C901D5CFC5CC2DE0AC01249FC001E0
:1038F000259F900D1124E0910904F0910A04E80F2E
:10390000F91F238134812250310981E022303105B1
:1039100008F080E008950F931F93CF93DF930091F9
:103920000B0410910C04D0E0C0E080E00C171D07E0
:1039300049F491E0811190E0892FDF91CF911F919F
:103940000F9108958111F5CFCE01CEDF2196EECFF4
:10395000A0910904B0910A04109729F120910B0459
:1039600030910C0482179307F0F45DE0589F9001AA
:10397000599F300D1124A20FB31FED91FC911197A7
:10398000309789F012968C91681768F485E0689FEB
:10399000E00DF11D112480819181892B21F081E0BE
:1039A0009281491708F080E00895EF92FF920F93FB
:1039B0001F93CF93DF93EA01FC01E60FF71F02810B
:1039C0001381E480F5804F2D6E2DC801C1DF811178
:1039D0000DC082E090E0998388838EEF9FEFDF91A6
:1039E000CF911F910F91FF90EF900895C8017CDF58
:1039F000882339F082E090E09983888388EF9FEFF5
:103A0000EECF1093070300930603E0920803F092B1
:103A1000090381E090E09983888390E080E0DFCF24
:103A2000CF92DF92EF92FF920F931F93CF93DF938A
:103A30007A01EC01C60FD71FC0900603D090070390
:103A40000091080310910903412F602FC60180DF08
:103A5000811110C082E090E0F701918380838AEFAA
:103A60009FEFDF91CF911F910F91FF90EF90DF902B
:103A7000CF900895C60138DF882341F082E090E0BE
:103A8000F7019183808388EF9FEFEBCF4C815D81BD
:103A90006E817F819A8189818F3F41F082E090E041
:103AA000F701918380838EEF9FEFDBCFEDE0EC9DFC
:103AB0009001ED9D300D1124E0910904F0910A046C
:103AC000E20FF31F0190F081E02D25E0029FE00D51
:103AD000F11D11240190F081E02D27E0129FE00DEF
:103AE000F11D1124808391838B81828343835483CE
:103AF000658376831F5F1093090381E090E0F701EF
:103B00009183808390E080E0ACCFEF92FF920F939F
:103B10001F93CF93DF937A018C01060F171FC0917B
:103B20000904D0910A04209781F021E030E0F801E7
:103B30008281938140910B0450910C048417950766
:103B400010F030E020E0232B71F482E090E0F701E8
:103B5000918380838EEF9FEFDF91CF911F910F9123
:103B6000FF90EF9008954DE0489F9001499F300DE0
:103B70001124C20FD31FB8DE882341F082E090E009
:103B8000F7019183808388EF9FEFE6CFF8012481CE
:103B9000358120383105C8F687818111D6CF418122
:103BA000842F90E08F7E009741F082E090E0F70153
:103BB0009183808386EF9FEFCFCF4F833E832D830A
:103BC000268128871986223010F421E0288721E0F9
:103BD00030E0F70131832083BFCF88E090E0FA0125
:103BE0009183808390E080E00895FB018FEF8083D4
:103BF00081E181838FEF9FEF9383828380E890E060
:103C000095838483168217820895FB018FEF80834A
:103C100091E0918382839383848384E3858381E02D
:103C200090E09783868308958F929F92BF92CF9260
:103C3000DF92EF92FF920F931F93CF93DF93EA01EE
:103C4000FC01E60FF71F828193810481B580E0912A
:103C50000904F0910A04309791F482E090E099838E
:103C600088838CEF9FEFDF91CF911F910F91FF9091
:103C7000EF90DF90CF90BF909F908F90089520910C
:103C80000B0430910C048217930738F082E090E027
:103C9000998388838EEF9FEFE6CF2DE0289F600108
:103CA000299FD00C1124EC0DFD1DE080F180E11462
:103CB000F10499F28281081748F785E0089F800196
:103CC0001124E00EF11EF70180819181892B29F6E4
:103CD000F7E0BF9E40011124C4010E94DC27F701D8
:103CE00091838083E0910904F0910A04EC0DFD1D9D
:103CF0000190F081E02DE00FF11F8081918100970C
:103D000039F482E090E0998388838DEF9FEFABCF09
:103D1000A40170E060E00E94F33980910904909161
:103D20000A04C80ED91EF60180819181080F191F5F
:103D3000F801B28281E090E09983888390E080E08E
:103D400092CFBF92CF92DF92EF92FF920F931F9389
:103D5000CF93DF93EA01FC01E60FF71F8281938185
:103D6000B4800091090410910A040115110581F431
:103D700082E090E0998388838CEF9FEFDF91CF9171
:103D80001F910F91FF90EF90DF90CF90BF9008951B
:103D900020910B0430910C048217930738F082E0D5
:103DA00090E0998388838EEF9FEFE8CF2DE0289FE6
:103DB0007001299FF00C11240E0D1F1DF801808148
:103DC0009181892BA9F6F5E0BF9E60011124C601FF
:103DD0000E94DC27F80191838083E0910904F0912F
:103DE0000A04EE0DFF1D80819181009739F482E075
:103DF00090E0998388838DEF9FEFC0CFA60170E09C
:103E000060E00E94F339E0910904F0910A04EE0D9C
:103E1000FF1DB28281E090E09983888390E080E08A
:103E2000ADCFCF92DF92EF92FF920F931F93CF937C
:103E3000DF93860F971FFC01E280F38080910904D5
:103E400090910A04892B81F082E090E0FA0191833D
:103E500080838CEF9FEFDF91CF911F910F91FF90A7
:103E6000EF90DF90CF9008958A018DE08E9D6001E4
:103E70008F9DD00C1124C6010E94DC27EC01009715
:103E800041F482E090E0F801918380838DEF9FEF11
:103E9000E2CFA60170E060E00E94F339D0930A04FB
:103EA000C0930904F0920C04E0920B0490E080E0CF
:103EB0002FEF3FEF8E159F0541F481E090E0F80170
:103EC0009183808390E080E0C6CF3C872B8701966A
:103ED0002D96F0CFCF92DF92EF92FF920F931F9328
:103EE000CF93DF93EC01D12CC12C10E000E0F12C3A
:103EF000E12C8A818017110609F0BCF4AE01455F00
:103F00005F4F63E070E0C7010E944728009721F0EF
:103F10002FEF3FEF3C872B87DF91CF911F910F91C0
:103F2000FF90EF90DF90CF900895E881F981EC0D3C
:103F3000FD1D838194810115110571F0019661E0E9
:103F400070E010D7E816F90608F47C010F5F1F4FE8
:103F500085E0C80ED11CCDCF0596F1CF8F929F92F0
:103F6000AF92BF92CF92DF92EF92FF920F931F9387
:103F7000CF93DF93EA01FC01E60FF71F81818330C5
:103F800098F082E090E09983888386EF9FEFDF913D
:103F9000CF911F910F91FF90EF90DF90CF90BF9046
:103FA000AF909F908F9008958091090490910A049A
:103FB000892B61F081E090E020910B0430910C049A
:103FC000232B11F490E080E0892B39F482E090E01B
:103FD000998388838EEF9FEFDACFF894809107045E
:103FE00090910804892B09F4A4C0789482E090E0B1
:103FF0009983888385EF9FEFCACF63817481672B94
:1040000011F03483238301963D9648175907A9F789
:1040100081E090E06CD980E478D983C08091090474
:1040200090910A04800F911FFC014381548142301A
:10403000510571F4F2E0CF16D104E104F10444F427
:10404000FC01438554854F3F5F4F11F443DF9C01D2
:104050004FEFC41AD40AE40AF40A035F1F4F809199
:104060000B0490910C04B0E0A0E0C816D906EA0653
:10407000FB06B4F42115310589F27894232B09F459
:1040800051C082E090E0998388838DEF9FEF7FCFCE
:1040900010E000E030E020E0C12CD12C7601DFCF31
:1040A0002115310551F710E000E0812C912C5401CD
:1040B00083E0E82EF12C18C0E0910904F0910A0485
:1040C000E00FF11F83819481029739F4F482E38237
:1040D00082E090E00CD980E412D96FEF861A960A3C
:1040E000A60AB60A035F1F4F80910B0490910C043F
:1040F000B0E0A0E088169906AA06BB06ECF230E014
:1041000020E0BBCF638174816230710511F4348388
:10411000238301963D9648175907A1F7FCDB8111CF
:1041200077CF789481E090E09983888390E080E075
:104130002ECF8181813009F4ABCF78F0823089F7BE
:1041400040910B0450910C04E0910904F0910A0491
:1041500090E080E021E030E0DECF40910B04509110
:104160000C04E0910904F0910A0490E080E021E061
:1041700030E04BCF4F925F926F927F928F929F92DF
:10418000AF92BF92CF92DF92EF92FF920F931F9365
:10419000CF93DF933C01660E771EF301C280D3807C
:1041A000C0910904D0910A04209741F091E0209138
:1041B0000B0430910C04C216D30608F090E0911164
:1041C00018C082E090E0FA01918380838EEF9FEF28
:1041D000DF91CF911F910F91FF90EF90DF90CF90E3
:1041E000BF90AF909F908F907F906F905F904F9017
:1041F00008958DE08C9D90018D9D300D1124C20F8E
:10420000D31FF3018181833040F082E090E0FA0116
:104210009183808386EF9FEFDBCF2A012B813C8146
:10422000232BF1F4288139814F8141FF34C0232BA6
:1042300009F48AC030910E042A81432F420F55277A
:10424000551FBA0141E050E06038710514F050E0AC
:1042500040E0452B09F478C03A87230F20930E04E1
:104260008150823008F47FC0F894809107049091C7
:104270000804892B09F07CC0F3018181813009F4A5
:1042800091C008F47EC0823009F089C082E090E0DD
:104290009C838B8384C0232B09F456C030910D047A
:1042A0002A81E32FE20FFF27FF1F41E050E0E038B3
:1042B000F10514F050E040E0452B09F445C03A8781
:1042C000230F20930D04CCCFA881B981A00FB11F7B
:1042D000ED91FC9111973097B9F121E030E0129601
:1042E0008C91811102C030E020E0232B69F190E035
:1042F000F12CE12C30E020E0281739076CF1470160
:10430000F5E08F0E911C7CD59C0191E028153905B4
:1043100008F490E0A8014B5F5F4F28153905A0F025
:1043200028813981020F131FF801F482E382FFEF25
:10433000AF1ABF0A8A018A818A151B0409F00CF49E
:1043400093CF9111C1CF90CF82E090E0F2019183A1
:10435000808387EF9FEF3CCF4181E40EF11C2F5FFC
:104360003F4F3796C9CF10E000E0B12CA12CE3CF2E
:10437000789482E090E0F2019183808385EF9FEF53
:1043800027CF81E090E09C838B83C5DA882339F0C6
:1043900081E090E00E94771980E40E94851990E006
:1043A00080E018C0F2E0CF16D10460F083E090E026
:1043B0009C838B8382E090E00E94771980E40E94C6
:1043C0007F19EDCF8B859C85019681F7CE0182DD2B
:1043D000009761F3789422E030E0F201318320838A
:1043E000892B19F08DEF9FEFF3CE90E080E0F0CEB7
:1043F0000097A9F4FB01228133818FEF80834DE088
:10440000429FC001439F900D1124E0910904F09157
:104410000A04E80FF91F8285FB01818308950C943B
:10442000391988E090E0FA019183808390E080E080
:1044300008951092080410920704E9E0F4E026E0E1
:10444000DF011D922A95E9F724EC32E0FC0131836B
:1044500020832BE030E03383228308952F923F9214
:104460004F925F926F927F928F929F92AF92BF9284
:10447000CF92DF92EF92FF920F931F93CF93DF9330
:10448000CDB7DEB72F970FB6F894DEBF0FBECDBF06
:10449000F89420910704309108042F5F3F4F309328
:1044A00008042093070478942091090430910A04A9
:1044B0003B832A83232B09F421C120910B043091E3
:1044C0000C04232B09F41AC14A875B876C877D870C
:1044D000998788878A819B819F878E87512C412C61
:1044E000198210E000E080910B0490910C044816B2
:1044F000590618F43981332329F1F894809107047F
:10450000909108040197909308048093070478948D
:10451000C8012F960FB6F894DEBF0FBECDBFDF9156
:10452000CF911F910F91FF90EF90DF90CF90BF90B0
:10453000AF909F908F907F906F905F904F903F9043
:104540002F900895AE85BF8517968C91179781FDA2
:1045500083C013968D919C911497039709F07CC0AA
:1045600015968D919C91E885F9858E179F0709F026
:1045700073C0312C212CF12CE12C62C02AD39F83F3
:104580008E8310E0E114F10431F4AE85BF851796F7
:104590001C9112951170AE85BF85ED91FC91E20DD5
:1045A000F31D63807480111161C0BFEF6B1A7B0A29
:1045B00061E070E0C301D6D35C01AE85BF851B9678
:1045C0008D919C918F3F980709F454C0B50174D622
:1045D0006C01009709F48DC0EE81FF81E80FF91F8F
:1045E000AE85BF851A968C918E0D8083111145C0C2
:1045F0008F010F5F1F4F1D821C821B821A82AE85A6
:10460000BF85ED91FC91E20DF31D82812A813B81F2
:104610008217130611F00CF03CC083012E813F81FC
:10462000A501B60190E080E0D7D28C01892B11F072
:10463000C6010FD58FEFE81AF80A95E0290E311C54
:10464000AE85BF8512968C918E151F0429F024F03B
:10465000B981BB2309F492CFEFEF4E1A5E0A2E8583
:104660003F85235F3F4F3F872E873DCFE5E06E0EAE
:10467000711C9ECFC501A0D4ABCF8A859B85AC852C
:10468000BD8581839283A383B4838F010B5F1F4F0A
:10469000B2CF80809180AC81BD818A0E9B1EF401D7
:1046A0006381748180818F3FF1F021E030E001C0AF
:1046B000220F8A95EAF7DB018C91822391E009F4BD
:1046C00090E0F8019083F4018181080F111D2A8187
:1046D0003B812F5F3F4F3B832A838C819D810796CF
:1046E0009D838C838CCF418150E0C8010E94EA39C0
:1046F000EACF31E0398306EF1FEF9CCF10E000E0F6
:10470000FCCE2F923F924F925F926F927F929F9238
:10471000AF92BF92CF92DF92EF92FF920F931F93CF
:10472000CF93DF9300D000D0CDB7DEB7009109045E
:1047300010910A049924939401151105A9F0A090F1
:104740000B04B0900C04F894809107049091080435
:1047500099249394009709F0912C892B09F472C045
:10476000789480E40E948519892D26960FB6F894D6
:10477000DEBF0FBECDBFDF91CF911F910F91FF9094
:10478000EF90DF90CF90BF90AF909F907F906F9011
:104790005F904F903F902F90089522E0C216D10471
:1047A000E104F1046CF4AD81BE811B968D919C9166
:1047B0008F3F980709F003D5ED81FE81348623866B
:1047C000AD81BE818D919C91B12CA12C412C512C9D
:1047D0003201892B31F5BFEFCB1ADB0AEB0AFB0A5A
:1047E000ED81FE813D96FE83ED8389819A81AB81C7
:1047F000BC81C816D906EA06FB067CF2C80129D49A
:10480000B0CF8A0D9B1DFC0180819181009709F03A
:1048100020D4FFEF4F1A5F0A6F0A7F0A25E0A20E2D
:10482000B11CAD81BE818D919C91119712964C91D6
:1048300050E070E060E044165506660677060CF31B
:1048400008D4C9CF10920A041092090410920C04E3
:1048500010920B0410920D0410920E047894D2D290
:104860001E830D83C12CD12C7601C501B0E0A0E0E0
:1048700089839A83AB83BC8322242A94322CB5CFBC
:10488000CF93DF93EA013DDF811109C082E090E020
:104890009983888385EF9FEFDF91CF91089581E021
:1048A00090E00E94771981E090E09983888390E0FE
:1048B00080E0F2CF26CFFF920F931F93CF93DF9329
:1048C0008A01EC01C60FD71FF9809BD20897F81612
:1048D000190671F068F082E090E0F801918380831E
:1048E0008EEF9FEFDF91CF911F910F91FF90089571
:1048F0006C817D818E819F814B810E94CF1B8111B4
:1049000008C082E090E0F8019183808384EF9FEFFC
:10491000E9CF0E94CA1B498150E0BE01685F7F4F0A
:104920000E94EA3989810E94391C81E090E0F801F7
:104930009183808390E080E0D5CFFF920F931F9307
:10494000CF93DF938A01EC01C60FD71FF98059D2AC
:10495000FF2059F0029721E030E0F816190619F00F
:1049600010F030E020E0232B69F482E090E0F801C1
:10497000918380838EEF9FEFDF91CF911F910F91F5
:10498000FF9008950E94CA1B498150E0BE016E5FEE
:104990007F4F0E94EA3989810E94391C81E090E0B2
:1049A000F8019183808390E080E0E6CF2AE033E055
:1049B000FC013183208322E030E033832283089599
:1049C0000895FC0111821082938382830895DB0194
:1049D0001D921C92DC011296ED91FC91139771834C
:1049E000608313967C936E9312970895FC018081E7
:1049F0009181DB018D939C93A081B181109741F04F
:104A00008D919C9191838083892B11F4F383E283B0
:104A10000895FC0180819181DB018D939C93892B0A
:104A200011F473836283718360830895FC011182A2
:104A30001082938382830895CF93DF931F921F92F6
:104A4000CDB7DEB71A821982F894BE016F5F7F4F2F
:104A500084E194E0CBDF89819A81009709F0F9D253
:104A600089819A81892B89F7BE016F5F7F4F88E129
:104A700094E0BCDF89819A81009709F0EAD28981AC
:104A80009A81892B89F778940F900F90DF91CF91BD
:104A90000895CF93DF931F921F92CDB7DEB71A828E
:104AA0001982F894BE016F5F7F4F80E194E09EDF32
:104AB00089819A81009709F0CCD289819A81892BCA
:104AC00089F778940F900F90DF91CF910895EF922E
:104AD000FF920F931F93CF93DF931F921F92CDB737
:104AE000DEB71A82198280910F0407EF1FEF882327
:104AF00091F1F894BE016F5F7F4F88E194E076DF1B
:104B000089819A81EE24E394F12C892B41F4BE0132
:104B10006F5F7F4F84E194E069DFF12CE12C7894A2
:104B200089819A810EEF1FEF0097A9F0FC01428165
:104B3000538164E070E095D58C01892B61F0F89485
:104B400069817A81C701880F991F880F991F8C5E30
:104B50009B4F5FDF7894C8010F900F90DF91CF914A
:104B60001F910F91FF90EF9008950F931F93CF9394
:104B7000DF9300D01F92CDB7DEB71C821B821A8252
:104B8000198280910F0407EF1FEF8823C1F0AE0157
:104B90004D5F5F4F64E070E0CE010196D5D58C018A
:104BA000892B69F4E981FA818B819C8193838283CB
:104BB000F89469817A8180E194E009DF7894C801F2
:104BC0000F900F900F900F90DF91CF911F910F9149
:104BD0000895DAD6049608958F929F92AF92BF926D
:104BE000CF92DF92EF92FF920F931F93CF93DF93B9
:104BF0001F921F92CDB7DEB71A82198282309105BB
:104C000098F0CC24CA94DC2CC6010F900F90DF9151
:104C1000CF911F910F91FF90EF90DF90CF90BF90B9
:104C2000AF909F908F9008956115710551F35801D1
:104C300049016A018B017C01CCDF8815990509F7D0
:104C4000A114B104F1F28A0D9B1DC816D906C8F251
:104C500080910F048823F1F0F894B6016450710933
:104C60009501AE014F5F5F4FC801049602D66C01FB
:104C7000892B71F489819A81F80193838283C7011A
:104C8000880F991F880F991FB8018C5E9B4F9FDE7C
:104C90007894BACF87EFC82EDD24DA94B5CFAF92DF
:104CA000BF92CF92DF92EF92FF920F931F93CF9319
:104CB000DF931F921F92CDB7DEB71A821982892B1C
:104CC00009F047C06115710509F443C0411551054C
:104CD00009F43FC02115310509F43BC00115110548
:104CE000C1F180910F048823B9F179016A015B0158
:104CF000F894BE016F5F7F4F80E194E077DE789497
:104D000089819A81009759F1DC0112966D917C910D
:104D1000A8010496C7D58C01E981FA81D501ED93EC
:104D2000FC93828193810496F6019183808351DF05
:104D3000D7018D939C93C8010F900F90DF91CF9175
:104D40001F910F91FF90EF90DF90CF90BF90AF90A9
:104D500008950FEF1FEFEFCF07EF1FEFECCF0EEF30
:104D60001FEFE9CFCF93DF93EC01672B71F415D6DA
:104D70008C179D0760F008D62496C80FD91F07D658
:104D80008C0F9D1FDF91CF91089504D6F1CF90E055
:104D900080E0F8CF0F931F93CF93DF9320910F0400
:104DA00021112BC08B01EC0184E194E00ADE88E143
:104DB00094E007DE80E194E004DE86D00097C1F441
:104DC000ECD570E060E0CEDF46E153E062E070E0F9
:104DD0005ED1009769F48091160390911703EFD587
:104DE000B801CE0124D4009719F421E020930F04D8
:104DF000DF91CF911F910F91089584EF9FEFF8CF2E
:104E0000C9C5CBC5CF93DF93CBD5EC01892B11F46A
:104E100013DE3FDECE01DF91CF910895CF93DF9374
:104E2000BFD5EC01892B09F407DECE01DF91CF91CC
:104E3000089580911603909117030895CF93DF93FF
:104E400080910F04D0E0C0E08823D1F0BDD5EC0103
:104E5000892BB1F4F1DD1DDE8091160390911703CB
:104E6000AED164D2EC01892B59F484E194E0DEDD0B
:104E700088E194E0DBDD80E194E0D8DD10920F045E
:104E8000CE01DF91CF910895CF93DF930097A1F4E6
:104E9000DF91CF910895EC011A821982A88330978F
:104EA00011F0928381832F5F3F4FFC01860F971F84
:104EB0004217530781F7ECCF30E020E0F0E0E0E06C
:104EC000AFEF6F5F7F4FF4CFAF92BF92CF92DF9281
:104ED000EF92FF920F931F93CF93DF9386E99CE0AD
:104EE0007C012CEFE2228CE5C82E83E0D82E92E6DE
:104EF000A92E93E0B92ECBE9DFE08E01D6014D91CA
:104F00005D916D01F501619171915F01D80111967B
:104F1000FC92EE9215965C934E93149713965C93C5
:104F20004E93129717967C936E9316979B012F5F63
:104F30003F4F249FC001259F900D349F900D112459
:104F400019969C938E931897C7019EDFF801808570
:104F50009185E80EF91E065F1F4FF2E6CF16F3E0CB
:104F6000DF0661F6EEE1F4E085E798E0DF019C0101
:104F70001D9221503040E1F710921D0410921C0444
:104F80001F8E1E8E1BA21AA219A218A21DA21CA25D
:104F90001FA21EA22A963FE0C93BD30789F790E0E3
:104FA00080E0DF91CF911F910F91FF90EF90DF9004
:104FB000CF90BF90AF900895F8948132910550F44E
:104FC00080919D0F90919E0F892B39F020E090E009
:104FD00080E019C08134910550F48091A70F909121
:104FE000A80F892B39F021E081E090E00CC08134DA
:104FF0009140A8F48091B10F9091B20F892B79F074
:1050000022E082E090E0EAE0E89FD001E99FB00D65
:105010001124A556B04F8D919C91009721F478945E
:1050200090E080E00895E29FF0011124E556F04FF2
:10503000DC0111964D915C915183408342815381F3
:105040004150510953834283FC012193CF0178944D
:1050500008950097D9F0DC01EE91E630B8F4F894A9
:105060008FEF8C938AE0E89FF0011124E556F04F12
:105070008081918112969C938E931197B183A08326
:105080008281938101969383828378940895CF924D
:10509000DF92EF92FF920F931F93CF93DF939C01C8
:1050A00081E294E08C7F4115510509F485C02115FA
:1050B000310509F481C06115710509F47DC08A01CB
:1050C000AB01B9016D5F7F4F6C7F9B012F5F3F4F3D
:1050D000249F7001259FF00C349FF00C1124F8944C
:1050E000EBE9FFE023E030E0E901A6A1B7A1C68C1F
:1050F000D78CCD2809F054C0109709F03CC0C0905F
:105100001C04D0901D0422E738E02C193D092E150F
:105110003F0530F47894CFEFDFEF86EF9FEF1FC0AD
:105120002AE02C9FF0012D9FF00D1124E556F04F41
:10513000918380835583448353834283778366833B
:10514000F186E086A1DEEC0CFD1CF0921D04E092DD
:105150001C047894CF3FDC0701F390E080E0F80175
:10516000D183C083DF91CF911F910F91FF90EF907A
:10517000DF90CF900895AE15BF0590F02AE02C9FE8
:10518000F0012D9FF00D1124E556F04F918380839F
:1051900055834483538342837783668375DED9CFF7
:1051A0008A0F9B1F2F5F3F4F3A962630310509F03B
:1051B0009BCFCFEFDFEFCDCF8FEF9FEFD3CFFF921E
:1051C0000F931F93CF93DF939C012350310923301A
:1051D000310508F057C0F8942AE0289FF001299F74
:1051E000F00D1124E556F04F4085518525E03AE059
:1051F000022F10E080179107ACF12AE0F22EF89E02
:10520000E001F99ED00D1124C556D04F70E060E04A
:10521000888199810E94F339F09EF001F19EF00D92
:105220001124E556F04F80911C0490911D042085B7
:105230003185821B930B90931D0480931C0419826B
:1052400018821D821C821B821A821F821E8219866E
:105250001886789490E080E0DF91CF911F910F91B4
:10526000FF900895309FF001319FF00D1124E55615
:10527000F04F60817181672B41F44115510529F48C
:105280002150B6CF8FEF9FEFE7CF2AE0289FE001B4
:10529000299FD00D1124C556D04F70E060E0888161
:1052A00099810E94F339198218821D821C821B8207
:1052B0001A821F821E82CDCF9C01235031092330D8
:1052C000310510F52AE0289FD001299FB00D112447
:1052D000A556B04F2D913C911197232BA9F016960E
:1052E0002D913C9117972617370770F0F894129676
:1052F0002D913C9113972115310529F0ED91FC91E9
:105300001197309721F47894F0E0E0E00DC04181EE
:10531000528111965C934E932150310913963C9320
:105320002E93129781937894CF010895E3E9FCE0DE
:1053300088E093E0DF019C011D9221503040E1F7AD
:10534000EEE1F4E085E798E0DF019C011D92215039
:105350003040E1F710921D0410921C04EBE9FFE0CD
:105360008CE3DF011D928A95E9F790E080E00895D3
:10537000CF93DF93C0911803D0911903CF3FDC077F
:1053800059F4CED3909319038093180397FF09C063
:10539000D0931903C093180384EF9FEFDF91CF914F
:1053A000089590E080E0FACF8230910528F4809350
:1053B000D70F90E080E008958FEF9FEF08954F9210
:1053C0005F926F927F92AF92BF92CF92DF92EF92F5
:1053D000FF920F931F93CF93DF931F921F92CDB72E
:1053E000DEB71A821982009709F475C0611571053C
:1053F00009F471C0209118033091190307EF1FEFD2
:105400002F3F3F4FE9F06B015C01412C512C3201E1
:10541000F12CE12C10E000E0EC14FD0440F40A3F14
:105420008FEF180721F0043F4FEF1407D9F480E8FD
:10543000481684E858068EE16806710408F042C0F8
:10544000C8010F900F90DF91CF911F910F91FF90A6
:10545000EF90DF90CF90BF90AF907F906F905F9074
:105460004F9008959E012F5F3F4FA6014E195F098F
:10547000B5016E0D7F1D8091180390911903B4D36F
:10548000892B19F589819A81009739F4E114F10487
:1054900021F42091D70F2223D9F0E80EF91E60E005
:1054A00070E0CB010E94AD338AE0480E511C611CB4
:1054B000711C40E8441646E9540648E96406710444
:1054C00008F4AACF01EF1FEFBBCF04EF1FEFF1CF1E
:1054D0000AEF1FEFEECF0FEF1FEFB2CF4F925F92A9
:1054E0006F927F92AF92BF92CF92DF92EF92FF9234
:1054F0000F931F93CF93DF931F921F92CDB7DEB709
:105500001A821982009709F46CC06115710509F4BB
:1055100068C0209118033091190307EF1FEF2F3F48
:105520003F4FA1F06B015C01412C512C3201F12C59
:10553000E12C10E000E0EC14FD0440F40E3F8FEF8E
:10554000180721F0043F4FEF140791F4C8010F90A2
:105550000F90DF91CF911F910F91FF90EF90DF900F
:10556000CF90BF90AF907F906F905F904F900895D5
:105570009E012F5F3F4FA6014E195F09B5016E0DC9
:105580007F1D8091180390911903E1D2892B19F5A1
:1055900089819A81009739F4E114F10421F4209172
:1055A000D70F2223D9F0E80EF91E60E070E0CB019E
:1055B0000E94AD338AE0480E511C611C711C40E80A
:1055C000441646E9540648E96406710408F4B3CF6A
:1055D00002EF1FEFBBCF04EF1FEFF1CF0EEF1FEF76
:1055E000EECF0FEF1FEFB2CF809118039091190308
:1055F0008F3F980749F08CD2892B49F48FEF9FEFAA
:10560000909319038093180390E080E0089584EF4D
:105610009FEF0895FC01680F791F90E080E0E61786
:10562000F70709F408952191820F911DF8CF209179
:10563000D80F211113C09CDE009791F41092DE0F59
:105640001092DD0F1092DC0F1092DB0F1092DA0F28
:105650001092D90F21E02093D80F089584EF9FEF87
:105660000895AF92BF92CF92DF92EF92FF920F9385
:105670001F93CF93DF93009709F460C04630510524
:1056800008F45CC02091D80FC7EFDFEF222309F4A4
:1056900049C08C01060F171FF801C080D180C114CA
:1056A000D10409F44EC096012A5F3F4F42175307B9
:1056B00008F447C07C018091DD0F9091DE0F938349
:1056C0008283B6016C5F7F4F5801A60EB71EC801DA
:1056D000A1DFF5019183808364E070E0C8016FDE93
:1056E000EC01892BF9F481E090E05EDEB601C8019F
:1056F000049665DEEC01892B91F462E070E0C5014F
:105700005EDEEC01892B59F4C701A3DC8091DD0F2B
:105710009091DE0F01969093DE0F8093DD0F90E065
:1057200080E042DECE01DF91CF911F910F91FF907B
:10573000EF90DF90CF90BF90AF900895CFEFDFEF65
:10574000F1CFC9EFDFEFEECF6F927F928F929F92F2
:10575000AF92BF92CF92DF92EF92FF920F931F937F
:10576000CF93DF9300D01F92CDB7DEB7009709F437
:105770007AC04115510509F476C02091D80F07EF82
:105780001FEF222309F44DC03A017B015C0164E064
:1057900070E0CE010196A2DE8C01892B09F041C098
:1057A00009811A810115110509F45AC0480186E0E2
:1057B000880E911CB701680D791D80911A03909194
:1057C0001B037ADD6C01009709F450C0A70170E05B
:1057D00060E00E94F33989819A81AB81BC81EC0C35
:1057E000FD1CF70181939193A193B1937F0181E017
:1057F00090E0DADDB801C70171DE892B31F562E096
:1058000070E0C701800F911F69DE8C01892BE9F4DC
:1058100090E080E0C9DDF501D182C082F301918280
:105820008082C8010F900F900F900F90DF91CF9161
:105830001F910F91FF90EF90DF90CF90BF90AF90AE
:105840009F908F907F906F90089590E080E0ACDD06
:10585000F50111821082F30111821082C601F9DB79
:1058600009EF1FEFDECF0FEF1FEFDBCF06EF1FEFCC
:10587000D8CF0097A1F04115510589F021153105C8
:1058800071F0F90136966E177F0748F0DC012D9311
:105890003C93DA01ED93FC9390E080E008958FEF64
:1058A0009FEF0895AF92BF92CF92DF92EF92FF9257
:1058B0000F931F93CF93DF93009709F45FC04115B7
:1058C000510509F45BC06530710508F457C020919B
:1058D000D80FC7EFDFEF222391F1DC01CD90DC90F0
:1058E00011971296ED91FC9196012A5F3F4FC9EFF7
:1058F000DFEF2617370719F5C091D90FD091DA0FCE
:10590000209749F521E030E03093DA0F2093D90F4A
:105910007A018C01F093DC0FE093DB0F5601B4E0C9
:10592000AB0EB11CB50176DE0A0D1B1DF8012081FE
:1059300031818217930729F5D701CD92DC92CE01F0
:10594000DF91CF911F910F91FF90EF90DF90CF905B
:10595000BF90AF9008952091DB0F3091DC0F2F5F47
:105960003F4FCCEFDFEFE217F30790F2CBEFDFEF23
:105970002E173F0768F2D0E0C0E0CACFCFEFDFEFCD
:10598000DECFC3EFDFEFDBCF84E090E0089582E06D
:1059900090E008958CEF9FEF089580E290E00895E5
:1059A0001092DE0F1092DD0F1092DC0F1092DB0FC1
:1059B0001092DA0F1092D90F90E080E00895909342
:1059C0001B0380931A0308958091D80F882391F0C8
:1059D0000BDE009789F41092DE0F1092DD0F10920B
:1059E000DC0F1092DB0F1092DA0F1092D90F109289
:1059F000D80F089590E080E00895009749F0611570
:105A0000710531F0FC0111821082FB0111821082BC
:105A10000895F3CF40E855E260E070E090E080E068
:105A200000C08130910579F01CF4892B39F008957C
:105A30008230910561F0039771F0089526E08CEEB5
:105A40009FE00C94DA3626E089E890E1FACF26E070
:105A500086E291E1F6CF26E083EC91E1F2CF1F924E
:105A60000F920FB60F9211240BB60F922F933F9304
:105A70004F935F936F937F938F939F93AF93BF9356
:105A8000EF93FF9386E09FEF90932501809324018D
:105A9000BFD0FF91EF91BF91AF919F918F917F9177
:105AA0006F915F914F913F912F910F900BBE0F908F
:105AB0000FBE0F901F90189586E09FEF90932501E1
:105AC00080932401A3E7B0E08C918E7F8C93E0E279
:105AD000F1E080818C7F8083E1E2F1E08081877E4C
