:1000000005C100000C94A52C0C94D02C0C94FB2C56
:100010000C94262D0C94512D0C947C2D0C94A72D12
:100020000C94D22D24C1000022C1000020C1000088
:100030001EC100001CC100001AC1000018C1000050
:1000400016C1000014C1000012C1000010C1000060
:100050000EC100000CC100000AC100000C94FD2D6F
:1000600006C100000C94F9310C942F3200C100003D
:10007000FEC00000FCC00000FAC00000F8C0000094
:10008000F6C00000F4C00000F2C00000F0C00000A4
:100090000C9485320C94BB32EAC00000E8C000002A
:1000A000E6C00000E4C00000E2C00000E0C00000C4
:1000B000DEC00000DCC00000DAC00000D8C00000D4
:1000C000D6C00000D4C000000C94EF270C9411336C
:1000D0000C944733CCC000000C949D330C94D33364
:1000E000C6C0000000000A0B02090C0D0E08070331
:1000F00004010000000000000000000000000000FB
:1001000000000000000000000000000000000000EF
:1001100012111000000000000000000000000000AC
:100120000000000000000000000001021020200874
:100130000810204010204080020102010804020142
:1001400001020408102040808040201008040201B1
:10015000800402018040201008040201080402010A
:100160000102040810204080010204081020408091
:1001700005050505070508080808020202020A0A23
:100180000808040404040101010101010101030341
:10019000030303030303040707070C0C0C0C0C0CEC
:1001A0000C0C0202020206060606060606060B0BE9
:1001B0000B0B0B0B0B0B000020002300260029006B
:1001C0002C002F003200000100000301060109018C
:1001D00000002200250028002B002E0031003400F2
:1001E00002010000050108010B01000021002400AC
:1001F00027002A002D003000330001010000040117
:1002000007010A015832E4327033FC3311241FBE57
:10021000CFEFD1E2DEBFCDBF00E00CBF13E0A0E026
:10022000B2E0E6E7F9E600E00BBF02C007900D92EE
:10023000AE32B107D9F723E1AEE2B3E001C01D92BF
:10024000AD3AB207E1F711E0C6E0D1E000E006C048
:1002500021970109802FFE010E948834C230D10706
:1002600080E00807A9F70E94E4280C94B934C8CEAE
:10027000611102C00C943E306130E1F362E0FACFCC
:10028000662319F061E00C947A3060E0FCCF0895A9
:10029000CF92DF92EF92FF92CF93882351F16A01C0
:1002A0007B01CFEFC80F20E030E0A901CB01B60100
:1002B0000E94052A87FF11C0C701B60190580E940D
:1002C0000E2A9B01AC016C2F70E090E080E0CF9192
:1002D000FF90EF90DF90CF90B2C0C701B6010E94AF
:1002E000092A8C2FCF91FF90EF90DF90CF900C9444
:1002F000042FCF91FF90EF90DF90CF9008950F9350
:100300001F938B019C0183E03695279517950795E0
:100310008A95D1F7025D1C4F462F477021E030E0EF
:10032000F90102C0EE0FFF1F4A95E2F7AF01F80195
:1003300020812423CB010196211102C090E080E0AE
:100340001F910F9108950F931F938B019C0183E0E0
:1003500036952795179507958A95D1F7677081E0AF
:1003600090E001C0880F6A95EAF7F801E25DFC4F62
:100370002081452B31F48095822380831F910F913A
:100380000895822BFACF2F923F924F925F926F92F5
:100390007F928F929F92AF92BF92CF92DF92EF9215
:1003A000FF920F931F93CF93DF93D62EC72E782EF5
:1003B000692E49015A01280161E08D2D0E943E30CD
:1003C000CD2DDC2D8E010F5F1F4FA8016D2D7C2DD3
:1003D000872D962DB8DF20E030E0A901C201B701DA
:1003E0000E948D2B181664F4C201B7010E940E2AD8
:1003F0002B01C501B4010E940E2AA201CE0123D017
:10040000C801DF91CF911F910F91FF90EF90DF9086
:10041000CF90BF90AF909F908F907F906F905F90A4
:100420004F903F902F900895882341F08150682F7E
:1004300070E090E080E050E040E085CF0895862FA6
:10044000B9010C94042F9C01FC01EC51FF4FE49185
:10045000E150E231E0F4F0E08827EE5CFD4F8F4F91
:100460000C94883444024B024E0265027A02470221
:100470008F029B029F02B602CB02E002F7020C033E
:100480004702210338034D0384B5806884BD60E0D2
:10049000822F0C947A3084B58062F8CF80918000EE
:1004A0008C7F82608093800080918100807E80615B
:1004B000682B609381005093870040938600809161
:1004C0008000806880938000E2CF809180008C7FE4
:1004D00082608093800080918100807E8061682BA3
:1004E0006093810050938700409386008091800044
:1004F0008062E8CF809180008C7F82608093800052
:1005000080918100807E8061682B60938100509390
:10051000870040938600809180008860D3CF8091CF
:10052000B00080688093B0008091B100887F682B14
:100530006093B100ACCF8091B0008062F3CF809126
:1005400090008C7F82608093900080919100807EEB
:100550008061682B609391005093970040939600C0
:100560008091900080688093900091CF809190005E
:100570008C7F82608093900080919100807E80616A
:10058000682B609391005093970040939600809160
:1005900090008062E8CF809190008C7F8260809391
:1005A000900080919100807E8061682B6093910023
:1005B0005093970040939600809190008860D3CF2D
:1005C0008091A0008C7F82608093A0008091A10028
:1005D000807E8061682B6093A1005093A7004093B8
:1005E000A6008091A00080688093A00050CF8091E9
:1005F000A0008C7F82608093A0008091A100807E0B
:100600008061682B6093A1005093A7004093A600DF
:100610008091A0008062E8CF8091A0008C7F8260F2
:100620008093A0008091A100807E8061682B609300
:10063000A1005093A7004093A6008091A00088607D
:10064000D3CF809120018C7F8260809320018091A4
:100650002101807E8061682B6093210150932701E6
:1006600040932601809120018068809320010FCF64
:10067000809120018C7F82608093200180912101F4
:10068000807E8061682B6093210150932701409305
:100690002601809120018062E8CF809120018C7F2B
:1006A00082608093200180912101807E8061682B8F
:1006B00060932101509327014093260180912001EE
:1006C0008860D3CFCF93DF93EC0170E060E06C17CC
:1006D0007D070CF5072E000C880B990B0E943C2A15
:1006E00020E030E0A9010E948E2920E030E0A9013D
:1006F0000E948E2920E030E040E450E40E948E29E0
:1007000020E030E040E450E40E948D290E94092A54
:100710006F5F7F4FDCCFDF91CF910895CF93DF9351
:1007200080914703909148030E94A730EC0180918B
:100730004D0390914E03C6DF8091490390914A0387
:100740000E94A730019771F480914B0390914C0364
:10075000219771F4019690934C0380934B03DF91A2
:10076000CF91089580914B0390914C03CD2B91F341
:100770000197F1CFCF93DF9380913F039091400396
:100780000E94A730EC0180914503909146039ADFC7
:1007900080914103909142030E94A730019771F428
:1007A0008091430390914403219771F401969093B3
:1007B000440380934303DF91CF91089580914303D5
:1007C00090914403CD2B91F30197F1CFCF93DF9319
:1007D00080913703909138030E94A730EC018091FB
:1007E0003D0390913E036EDF8091390390913A036F
:1007F0000E94A730019771F480913B0390913C03D4
:10080000219771F4019690933C0380933B03DF9111
:10081000CF91089580913B0390913C03CD2B91F3B0
:100820000197F1CFCF93DF938091410390914203E1
:100830000E94A730EC01809145039091460342DF6E
:1008400080913F03909140030E94A730019771F47B
:100850008091430390914403CD2B71F401969093C2
:10086000440380934303DF91CF9108958091430324
:1008700090914403219791F30197F1CFCF93DF93A8
:100880008091390390913A030E94A730EC01809146
:100890003D0390913E0316DF80913703909138031A
:1008A0000E94A730019771F480913B0390913C0323
:1008B000CD2B71F4019690933C0380933B03DF9121
:1008C000CF91089580913B0390913C03219791F340
:1008D0000197F1CFCF93DF938091490390914A0321
:1008E0000E94A730EC0180914D0390914E03EADE07
:1008F00080914703909148030E94A730019771F4BB
:1009000080914B0390914C03CD2B71F40196909301
:100910004C0380934B03DF91CF91089580914B035B
:1009200090914C03219791F30197F1CF0F931F936F
:10093000CF93DF938C01EC0183E0CC0FDD1F8A9510
:10094000E1F7C95CDC4F798368835B834A838881E4
:10095000998160E00E943E308A819B8160E00E9424
:100960003E308881998161E00E947A308A819B8142
:1009700061E00E947A3001301105D9F10230110591
:1009800009F466C0012B09F092C080913703909161
:10099000380302978431910530F580529D4FFC0158
:1009A0008081082E000C990B41E050E06EE374E06A
:1009B0000E942B2C8091390390913A030297843145
:1009C0009105A0F480529D4FFC018081082E000CFF
:1009D000990B41E050E066EE73E0DF91CF911F91FB
:1009E0000F910C942B2C8FEF9FEFDECF8FEF9FEFAB
:1009F000F0CF80913F03909140030297843191059D
:100A000008F580529D4FFC018081082E000C990B47
:100A100041E050E062E174E00E942B2C80914103A0
:100A20009091420302978431910578F480529D4F52
:100A3000FC018081082E000C990B41E050E06AEB2C
:100A400073E0CBCF8FEF9FEFE3CF8FEF9FEFF5CF2B
:100A5000809147039091480302978431910508F5EE
:100A600080529D4FFC018081082E000C990B41E0C3
:100A700050E06AE674E00E942B2C8091490390912B
:100A80004A0302978431910578F480529D4FFC010E
:100A90008081082E000C990B41E050E06EE873E075
:100AA0009CCF8FEF9FEFE3CF8FEF9FEFF5CFDF91DD
:100AB000CF911F910F91089523E0880F991F2A95D8
:100AC000E1F7FC01E95CFC4F848195810895CF93A7
:100AD000DF934115510509F450C0EA01DC0112967B
:100AE000ED91FC9180819181A281B38180938803F3
:100AF00090938903A0938A03B0938B03848195819B
:100B0000A681B7818093840390938503A093860385
:100B1000B093870380859185A285B38580938003F8
:100B200090938103A0938203B0938303848595857A
:100B3000A685B78580937C0390937D03A0937E0365
:100B4000B0937F03109278031092790310927A0386
:100B500010927B0380918D03811103C088818823CB
:100B600079F080914C0290914D02049731F083E02E
:100B700090E090934D0280934C02DF91CF910895C5
:100B80006AE070E080E090E00E946C2E80E00E94BD
:100B9000321380918C038883DDCFCF93DF9341158F
:100BA000510569F080914C0290914D02049739F003
:100BB000EA0180E00E94321380918C038883DF91E8
:100BC000CF9108958F3F910509F010F40C941B13F9
:100BD0000895089508950E94EF12892B21F081E075
:100BE00090E00C94B93408950C947513CF93DF936F
:100BF000EC01609148027091490280914A02909103
:100C00004B0220E030E040E050EC0E94052A8823AF
:100C100061F08091480290914902A0914A02B091FE
:100C20004B0288839983AA83BB83DF91CF91089578
:100C3000DDCF089508952F923F924F925F926F9269
:100C40007F928F929F92AF92BF92CF92DF92EF925C
:100C5000FF920F931F93CF93DF93CDB7DEB7CB54A3
:100C6000D1090FB6F894DEBF0FBECDBF26967FAF79
:100C70006EAF269728965FAF4EAF28973E8B2D8B91
:100C800018012C96FFAEEEAE2C97FB01E150F04C14
:100C9000EE0FFF1FEE0FFF1FE80FF91F80809180FE
:100CA000A280B3808F8A988EA98EBA8EB501A401D6
:100CB000442777FD439555276627772729964FAF19
:100CC0002997F901E150F04CEE0FFF1FEE0FFF1FC7
:100CD0002896AEACBFAC2897EA0DFB1DC080D18032
:100CE000E280F380CB8EDC8EED8EFE8EB701A60106
:100CF000442777FD43955527662777272A964FAFD8
:100D00002A97188B0F87F80130E020E02C96EEAC84
:100D1000FFAC2C972E153F050CF43FC022969FAFD9
:100D20008EAF22973A8A298A812C912C5401839480
:100D30008F829886A986BA8610E000E026968EAC4F
:100D40009FAC2697081519057CF129969FAC299729
:100D50002A96AFAC2A9741E050E060E070E030E0C6
:100D600020E09A10F4C1C55BDF4F0FB6F894DEBFE8
:100D70000FBECDBFDF91CF911F910F91FF90EF90EC
:100D8000DF90CF90BF90AF909F908F907F906F90AB
:100D90005F904F903F902F90089511921192119271
:100DA00011922F5F3F4FB2CF2296EEADFFAD22974B
:100DB00081919191A191B1912296FFAFEEAF2297CF
:100DC0008F88988CA98CBA8CB7FE23C04F81588528
:100DD00069857A8541505109610971095A016B0190
:100DE000A81AB90ACA0ADB0AD601C50121E0CF80D8
:100DF000D884E984FA848C159D05AE05BF0508F0FA
:100E000020E0822E912CB12CA12C8F829886A9866D
:100E1000BA865D01CC24DD24A8A2B9A2CAA2DBA2B5
:100E20009C01AD01442755272CA33DA34EA35FA3EE
:100E30002C96EEADFFAD2C97E01BF10B8D889E88B4
:100E40008E169F060CF4F4012896AEACBFAC289722
:100E50002496BFAEAEAE2497C988DA88DC8ACB8AE6
:100E6000812C912C540183948B869C86AD86BE8602
:100E7000812C912C54011E821D82CD80DE80CE16E5
:100E8000DF06FCF0F7FF02C0F0E0E0E0E00FF11F4A
:100E90002C96EEACFFAC2C97EE15FF0554F4EE0F3C
:100EA000FF1FEE0FFF1FE20DF31D80829182A282D1
:100EB000B3820F5F1F4FE989FA893496FA8BE98B69
:100EC0003DCF2496AEADBFAD2497CD90DD90ED9093
:100ED000FD902496BFAFAEAF24972B8D3C8D4D8DEA
:100EE0005E8D57FF22C08B859C85AD85BE850197A1
:100EF000A109B109AC01BD014C195D096E097F0959
:100F00006A017B0181E02B853C854D855E85C2169B
:100F1000D306E406F50608F080E0482F50E070E0C4
:100F200060E04B875C876D877E87B70188279927AC
:100F300068A779A78AA79BA7EE24FF2428A139A137
:100F40004AA15BA1C701B6010E9457342B013C01A5
:100F50002CA13DA14EA15FA168A579A58AA59BA55D
:100F60000E9457346CA77DA78EA79FA7AB89BC8929
:100F70004D915D916D917D91BC8BAB8BDB01CA0175
:100F8000880D991DAA1DBB1D89839A83AB83BC83E1
:100F900091E09F8F29813A814B815C812815390529
:100FA0004A055B0508F01F8E2CA13DA14EA15FA153
:100FB000C701B6010E9457346B017C0189809A8079
:100FC000AB80BC808C0C9D1CAE1CBF1C89829A829D
:100FD000AB82BC8252019924882488AA99AAAAAA21
:100FE000BBAA29813A814B815C81280D391D4A1D9C
:100FF0005B1D2CAB3DAB4EAB5FAB8CA49DA4AEA4F4
:10100000BFA454019924882488AE99AEAAAEBBAE81
:10101000280D391D4A1D5B1D2CAF3DAF4EAF5FAF94
:10102000AB89BC8914972D933D934D935C93139793
:1010300028A139A14AA15BA168A579A58AA59BA58C
:101040000E9457349F8C690D711D811D911D2301D4
:1010500066247724460E571E681E791E2CA53DA5D2
:101060004EA55FA54A01AA24BB24840C951CA61C8E
:10107000B71C81E090E0A0E0B0E049815A816B812B
:101080007C814C155D056E057F0518F080E090E0D1
:10109000DC01880D991DAA1DBB1D41E050E060E0F8
:1010A00070E088A899A8AAA8BBA8CCA8DDA8EEA83B
:1010B000FFA8C814D904EA04FB0418F040E050E08B
:1010C000BA01840F951FA61FB71F812C912C5401C4
:1010D0008394C8ACD9ACEAACFBAC2CAD3DAD4EAD05
:1010E0005FAD2C153D054E055F0518F0812C912C48
:1010F0005401880E991EAA1EBB1E4D815E814F5F52
:101100005F4F5E834D83B9CEEF85F889C190D19052
:10111000E190F190F88BEF87DB01CA010197A109FB
:10112000B1098C199D09AE09BF0934978083918359
:10113000A283B383E1E084179507A607B70708F0F9
:10114000E0E04E2F50E070E060E02F5F3F4F2C96C4
:101150008EAC9FAC2C9728153905B4F204CE2F9293
:101160003F924F925F926F927F928F929F92AF9237
:10117000BF92CF92DF92EF92FF920F931F93CF9384
:10118000DF9300D01F92CDB7DEB78B015C834B831A
:10119000FB01E150F04CEE0FFF1FEE0FFF1FE80FB9
:1011A000F91F408151816281738177FD27C04C0115
:1011B000B12CA12CC12CD12C7601A016B10664F55E
:1011C000F40161917191819191914F010E943A2AAC
:1011D0004B815C810E94932B9B01AC01C701B6013E
:1011E0000E948E296B017C012B813C81205E3F4F48
:1011F0003C832B833FEFA31AB30ADFCF9A83898303
:1012000081E090E0A0E0B0E0312C212CC12CD12C69
:10121000760120163106CCF0C701B6010F900F9071
:101220000F900F90DF91CF911F910F91FF90EF9052
:10123000DF90CF90BF90AF909F908F907F906F90F6
:101240005F904F903F902F900895E981FA814190EF
:10125000519061907190FA83E98340945094609426
:10126000709453014201880E991EAA1EBB1EC5012F
:10127000B4010E943A2A4B815C810E94932B9B010E
:10128000AC01C701B6010E948D296B017C0181E090
:1012900084149504A604B70408F080E090E0B0E060
:1012A000A0E02B813C81205E3F4F3C832B833FEFAE
:1012B000231A330AAECFCF92DF92EF92FF926B01E7
:1012C0007C019F7720E030E040E859E50E94052A44
:1012D00087FF2BC020E030E040E05FE3C701B601AC
:1012E0000E948D2B87FD0EC020E030E040E05FE3E0
:1012F000C701B6010E948E29FF90EF90DF90CF903A
:101300000C94772A20E030E040E05FEBC701B601A3
:101310000E948D2B181684F420E030E0A901C7014B
:10132000B6010E94C72B6B017C01C701B601FF907B
:10133000EF90DF90CF90089520E030E040E05FE351
:10134000C701B6010E948D29FF90EF90DF90CF90EA
:101350000C94F229E0910313F0910413A7E7B3E191
:1013600054964D915D916D917C9157974083518337
:101370006283738350968D919D910D90BC91A02DA9
:1013800084839583A683B78308952F923F924F92CB
:101390005F926F927F928F929F92AF92BF92CF9205
:1013A000DF92EF92FF920F931F93CF93DF93CDB70E
:1013B000DEB7AA970FB6F894DEBF0FBECDBF00917F
:1013C0006213109163130130110509F046C5809135
:1013D0004A1390914B13A0914C13B0914D138090F0
:1013E000521390905313A0905413B0905513409003
:1013F0004E1350904F1360905013709051138F3FC5
:101400002FEF9207A207B20709F000C5C301B2018E
:101410006F5F7F4F8F4F9F4F0E943A2AA501940123
:101420000E94C72B20E030E040E85FE40E94C72B19
:1014300060938C1270938D1280938E1290938F1202
:1014400080917B128150823008F41FC580E0809328
:101450007B120130110509F098C0C0901802D0909D
:101460001902E0901A02F0901B02A7019601609108
:1014700020127091211280912212909123120E94C9
:10148000052A882341F0C0922012D0922112E092C6
:101490002212F092231290E080E00EDB092E000C65
:1014A000AA0BBB0B80938F1390939013A09391136F
:1014B000B093921340912C0250912D0260912E0214
:1014C00070912F024D835E836F83788789839A831F
:1014D000AB83BC8392E0E92EF12C07E713E121E016
:1014E00030E0AE014F5F5F4F61E070E0CE010596E6
:1014F000A2DB88E0F801AFE6B3E101900D928A9596
:10150000E1F7C0901C02D0901D02E0901E02F09006
:101510001F0250E040E062E070E0C80120DE20E001
:1015200030E040E05FE20E94C72B9B01AC01C701A5
:10153000B6010E948D296B017C01AC019B01609179
:1015400014027091150280911602909117020E9468
:10155000C72B60937F1370938013809381139093B4
:101560008213A7019601609100027091010280919F
:101570000202909103020E94C72B60938313709321
:1015800084138093851390938613209108123091D1
:10159000091240910A1250910B12609183137091BD
:1015A000841380918513909186130E948D29209138
:1015B00010023091110240911202509113020E94C8
:1015C000C72B4B015C018092871390928813A092E5
:1015D0008913B0928A132091041230910512409120
:1015E00006125091071260917F13709180138091C1
:1015F0008113909182130E948E29A50194010E946B
:101600008E294B015C014090200250902102609095
:10161000220270902302AC019B01C301B2010E941F
:10162000052A87FD12C04090240250902502609048
:10163000260270902702A5019401C301B2010E9405
:101640008D2B181614F024013501009162131091AE
:10165000631301301105C9F4E894B7F820E030E0D5
:10166000A901C301B2010E948D2B18160CF00FC402
:1016700020E030E040E450E4C501B4010E948D2B2D
:1016800018160CF004C410927412809174128130F8
:1016900009F41DC4823009F448C4811127C0809127
:1016A000400290914102A0914202B0914302898789
:1016B0009A87AB87BC878091440290914502A091A4
:1016C0004602B09147028D879E87AF87B88B013065
:1016D000110561F480917B12882309F4F5C38330EE
:1016E00009F0EEC381E090E080937B12E89477F8F4
:1016F0006091161270911712809118129091191220
:101700000E947F018C0190931512809314122091F6
:1017100028023091290240912A0250912B02C301E4
:10172000B2010E94C72B4B015C0120E030E04FE783
:1017300053E40E94052A87FF26C420E030E0A90177
:10174000C501B4010E948D2B18160CF023C4B501FD
:10175000A401C8010E944801809162139091631313
:10176000019709F056C0A70196016091040270919B
:10177000050280910602909107020E94C72B609398
:101780008B1370938C1380938D1390938E136985B4
:101790007A858B859C858FDD6B017C0120E030E0B4
:1017A00040E853E40E94052A6FEF87FF0EC020E057
:1017B00030E0A901C701B6010E948D2B60E087FDD2
:1017C00004C0C701B6010E940E2A8EE10E944001AA
:1017D0006D857E858F8598896EDD6B017C0120E0AB
:1017E00030E040E853E40E94052A6FEF87FF0EC007
:1017F00020E030E0A901C701B6010E948D2B60E016
:1018000087FD04C0C701B6010E940E2A8FE10E9425
:1018100040018091621390916313019709F0DDC23A
:1018200082E090E0D7D9E0916513F0916613408192
:1018300051816281738190E080E0C4D9809162130C
:1018400090916313019709F0C8C260915A13709187
:101850005B1380915C1390915D130E943A2A20E003
:1018600030E040E85FE40E94C72B6B017C0160918F
:1018700056137091571380915813909159130E94E9
:101880003A2A9B01AC01C701B6010E948E292FE6BE
:1018900032E143E85AE30E94C72BAB01BC0181E06F
:1018A00090E090D98091621390916313019709F0B1
:1018B00094C280905E1390905F13A0906013B090DC
:1018C000611320E030E040E85FEBC501B4010E9405
:1018D000052A882309F448C060915A1370915B135C
:1018E00080915C1390915D130E943A2A20E030E0D1
:1018F00040E85FE40E94C72B6B017C0160915613A6
:101900007091571380915813909159130E943A2A5D
:101910009B01AC01C701B6010E948E292FE632E17E
:1019200043E85AE30E94C72B6B017C01AC019B0189
:10193000C501B4010E948D294B015C0120E030E01B
:1019400040E054E3C701B6010E94C72B9B01AC01E4
:10195000C501B4010E948D2B181634F084EF92E07B
:1019600090937D1280937C1280916413882331F0D0
:1019700084EF92E090937D1280937C12E091BC12F0
:10198000F091BD120190F081E02D80819181A281C2
:10199000B381898B9A8BAB8BBC8B80918C1290918D
:1019A0008D12A0918E12B0918F128F8F98A3A9A340
:1019B000BAA3E0919012F0919112C080D180E280A0
:1019C000F380E091C012F091C11220803180E0914B
:1019D0008412F09185124080518062807380A481CE
:1019E000B581BE87AD87B681BD8B2781298FE091F8
:1019F0008212F09183121182108288E0F101D201EB
:101A000001900D928A95E1F7E091BA12F091BB1224
:101A1000718260829FDC20E030E040E05FE3C7013C
:101A2000B6010E94C72B4B015C01D3012D913D9162
:101A30004D915C910E94C72BF2012081318142813E
:101A400053810E948E29D1016D937D938D939C9338
:101A50001397F3012481358146815781C501B40173
:101A60000E94C72BD20114962D913D914D915C910E
:101A700017970E948E29F10164837583868397836B
:101A8000E091BC12F091BD1200811181A501940179
:101A900069897A898B899C890E948E29D8016D93E6
:101AA0007D938D939C931397E091BA12F091BB12A2
:101AB0008D859E859183808368DC4CDC20E030E05E
:101AC000A901C701B6010E94C72B4B015C0120E0B0
:101AD00030E040E45FE3C701B6010E94C72B69878D
:101AE0007A878B879C87AD85BE852D913D914D91E1
:101AF0005C910E94C72B6B8F7C8F8D8F9E8FF30123
:101B00002081318142815381C501B4010E94C72BDC
:101B10009B01AC016B8D7C8D8D8D9E8D0E948E29DD
:101B2000D2012D913D914D915C910E948E29F10140
:101B30006083718382839383D30114962D913D91A9
:101B40004D915C911797C501B4010E94C72B4B01C1
:101B50005C01ED85FE85248135814681578169854B
:101B60007A858B859C850E94C72B9B01AC01C501A2
:101B7000B4010E948E29D20114962D913D914D9170
:101B80005C9117970E948E29F10164837583868387
:101B90009783E091BC12F091BD12008111812985DB
:101BA0003A854B855C8569897A898B899C890E94F5
:101BB0008E29D8016D937D938D939C931397E0911B
:101BC000BA12F091BB12BD89B083298D2183DDDB70
:101BD000C1DB29E33EE843E65EE3C701B6010E94AC
:101BE000C72B6B8F7C8F8D8F9E8F2BEA3AEA4AEA48
:101BF0005EE3C701B6010E94C72B6BA37CA38DA334
:101C00009EA329E33EE843EE5EE3C701B6010E94CE
:101C1000C72B6FA378A789A79AA782017A8A698AB6
:101C20008D898987998D9A87D2011896BA8FA98F45
:101C3000F80181919191A191B1918F018D8B9E8B32
:101C4000AF8BB88FA989BA896D917D918D919D9146
:101C5000BA8BA98BED85FE85419051906190719072
:101C6000FE87ED87A985BA85CD90DD90ED90FD903A
:101C7000BA87A9872B8D3C8D4D8D5E8D0E94C72B19
:101C80004B015C012BA13CA14DA15EA1C301B2019E
:101C90000E94C72B9B01AC01C501B4010E948E2993
:101CA0004B015C012FA138A549A55AA5C701B60172
:101CB0000E94C72B9B01AC01C501B4010E948E2973
:101CC0002D893E894F89588D0E948E29F10161939B
:101CD0007193819391931F01898D9A8D081719072C
:101CE00009F0A6CFE091BC12F091BD120190F081F5
:101CF000E02D8F8D98A1A9A1BAA180839183A283A1
:101D0000B383E0918212F091831281E090E091839D
:101D1000808380914A1390914B13A0914C13B09102
:101D20004D130196A11DB11D80934A1390934B133F
:101D3000A0934C13B0934D13892B8A2B8B2B99F4C2
:101D400080914E1390914F13A0915013B091511365
:101D50000196A11DB11D80934E1390934F13A09334
:101D60005013B093511380918C1290918D12A091C9
:101D70008E12B0918F12E0916513F09166138083FB
:101D80009183A283B3838091561390915713A091AE
:101D90005813B09159130196A11DB11D809356138C
:101DA00090935713A0935813B0935913892B8A2BF0
:101DB0008B2B99F480915A1390915B13A0915C1333
:101DC000B0915D130196A11DB11D80935A1390939C
:101DD0005B13A0935C13B0935D13AA960FB6F894AF
:101DE000DEBF0FBECDBFDF91CF911F910F91FF904E
:101DF000EF90DF90CF90BF90AF909F908F907F90AB
:101E00006F905F904F903F902F900895BC01CD014F
:101E10006F5F7F4F8F4F9F4F0E943A2AA501940119
:101E20000E94C72B698B7A8B8B8B9C8BC301B20171
:101E30000E943A2AA50194010E94C72B20E030E0BD
:101E400040E85FE40E94C72B9B01AC0169897A8955
:101E50008B899C890E948E29EBCA0115110509F016
:101E6000EFCAE091BC12F091BD120190F081E02D1B
:101E700080819181A281B381E0916513F091661315
:101E800080839183A283B383DBCA83E0E0CA20E02E
:101E900030E0A901C301B2010E94052A87FF0EC0EC
:101EA00020E030E040E450E4C501B4010E948D2BF5
:101EB000181624F481E080937412E7CB82E0FBCF04
:101EC000082E000C990B10CC82E090E00DCC809194
:101ED000380290913902A0913A02B0913B02898771
:101EE0009A87AB87BC8780913C0290913D02A0917C
:101EF0003E02B0913F028D879E87AF87B88B01303D
:101F0000110509F0F3CB80917A12882359F08330C0
:101F100029F481E090E080937A12E8CB082E000C3F
:101F2000990BF9CF82E090E0F6CF8091300290914A
:101F30003102A0913202B091330289879A87AB8730
:101F4000BC878091340290913502A0913602B09105
:101F500037028D879E87AF87B88B0130110509F056
:101F6000C5CB80917912882359F0833029F481E020
:101F700090E080937912BACB082E000C990BF9CF20
:101F800082E090E0F6CF812C912C8FE7A82E83E49D
:101F9000B82EDDCB812C912C5401D9CB4F925F927E
:101FA0006F927F928F929F92AF92BF92DF92EF9249
:101FB000FF920F931F93CF93DF9384E090E01DD2A5
:101FC000ECE7F2E183EFDF011D928A95E9F782E603
:101FD00093E197838683C5E6D3E1D093BD12C09386
:101FE000BC1202E513E1158B048B23E033E137AF1C
:101FF00026AF2DEF32E13093C1122093C01242E49C
:1020000053E15093BF124093BE1244E453E1509306
:10201000C3124093C2124FEF52E15093C512409346
:10202000C41241E053E15093C7124093C612F0939B
:10203000E712E093E612F583E48341E050E0DC012F
:102040004D935C938AE293E14AE053E1DC014D93C6
:102050005C9342E153E150932D1340932C134AE1DA
:1020600053E150932F1340932E1342E253E15093C8
:1020700031134093301344E0A42E42E1B42ED90131
:10208000AD92BC929187808788E093E093878287A6
:1020900027E633E13983288340E050E563EC77E4B9
:1020A00040935E1350935F136093601370936113BA
:1020B0004FE652E163E87AE3D8014D935D936D9367
:1020C0007C931397C2E3D3E186E697E0AEE1B4ECEC
:1020D00088839983AA83BB838AE292EBA8E8B6E857
:1020E0008093361390933713A0933813B09339131A
:1020F0008BED95EDA2E7BFE180933A1390933B13EC
:10210000A0933C13B0933D1387E59DE5A3EFB0E5A5
:1021100080933E1390933F13A0934013B0934113C9
:10212000AFE5B3E0B383A283EFE4F3E01196FC9351
:10213000EE938DE093E091838083938382839583F4
:102140008483978386839187808789E792E1938749
:1021500082878AE792E1958784878BE792E1978768
:10216000868788E493E115969C938E931497139633
:10217000DC93CE93129717963C932E931697E7E72E
:10218000F3E18CE1DF011D928A95E9F788E0F50122
:1021900011928A95E9F7CCE0D2E180E7DE011D9249
:1021A0008A95E9F7EFE6F3E1108211821282138239
:1021B0001482158216821782DD24D394D092751270
:1021C00050E0852E52E0952EF401808D918DA28DE8
:1021D000B38D8C8B9D8BAE8BBF8B412C512C3201E0
:1021E00043944F86588A698A7A8A43E050E062E0D5
:1021F00070E090E080E00E949604DB8A8FEF80938D
:1022000074121882D092761222E328A793E399A73A
:1022100084E38AA785E38BA786E38CA787E38DA752
:1022200088E38EA789E38FA781E388AB30E339ABDE
:102230008AAB8BAB8CAB2DAB8EAB9FAB84E392E1C7
:102240009F838E8385E090E0A0E0B0E08A879B8743
:10225000AC87BD871D8249825A826B827C82E12CC9
:10226000F12C8701A801970165E070E080E090E023
:102270000E94C301998788876A857B858C859D85A7
:102280000E947F01998788870E944701DD82109212
:102290006412D09277124092651250926612609248
:1022A00067127092681261E08EE10E943801D0924C
:1022B000691210926C12D092781240926D12509264
:1022C0006E1260926F127092701261E08FE10E9444
:1022D0003801D0927112F40184859585A685B78561
:1022E000F50180839183A283B383F4018085918576
:1022F000A285B385F50184839583A683B783DF9197
:10230000CF911F910F91FF90EF90DF90BF90AF9012
:102310009F908F907F906F905F904F9008958091E5
:102320001A12811103C081E080931A1280910C125D
:10233000811136C081E080930C1280910D12909132
:102340000E12A0910F12B09110120197A105B105C4
:1023500039F580911112882319F16091161270914C
:10236000171280911812909119120E947F01909378
:1023700015128093141240E050E0BA010E94480107
:102380006091161270911712809118129091191283
:102390000E947F0190931512809314120E941402E0
:1023A00080916412811103C081E080936412809156
:1023B0006C12811103C081E080936C12089560E07B
:1023C00070E080E89FE7089560E070E080E89FE7B4
:1023D000089560E070E080E89FEF089560E070E0AD
:1023E00080E89FEF089560E070E080EC9FEF089533
:1023F00060E070E080EC9FEF0895F5DF60939F133D
:102400007093A0138093A1139093A213F1DF6093B4
:102410009313709394138093951390939613CFDF37
:1024200060939B1370939C1380939D1390939E13C2
:10243000CBDF6093971370939813809399139093C5
:102440009A13C7DF6093A3137093A4138093A5130B
:102450009093A613C3DF6093A7137093A813809380
:10246000A9139093AA1308954F925F926F927F924F
:102470008F929F92AF92BF92CF92DF92EF92FF9294
:102480006B017C014130510509F082C020E030E051
:102490004AE754E40E94C72B4B015C0120E030E086
:1024A00040E85FE40E94912A0E940E2A2B013C0121
:1024B00020E030E040E85FE4C501B4010E948D2BCC
:1024C00018160CF088C020E030E040E85FE2C5015B
:1024D000B4010E94C72B0E940E2AF89440926F0309
:1024E0005092700360927103709272036093730351
:1024F0007093740380937503909376036091480200
:102500007091490280914A0290914B0220E030E0A4
:1025100040E85FEB0E94052A882389F16091480218
:102520007091490280914A0290914B0220E030E084
:1025300040E050EC0E94052A882309F1609148028E
:102540007091490280914A0290914B02A701960135
:102550000E948D294B015C0120E030E040E054E313
:10256000C701B6010E94C72B9B01AC01C501B40194
:102570000E94052A881F8827881F80937703C092AE
:102580006B03D0926C03E0926D03F0926E0378942B
:1025900020E034E244E759E4C701B6010E94C72BAA
:1025A00020E030E040E05FE30E948E2920E030E050
:1025B00040E85FE40E94912A0E940E2AFF90EF906B
:1025C000DF90CF90BF90AF909F908F907F906F9053
:1025D0005F904F90089560E070E0CB017ECFCF9385
:1025E000DF9300D01F92CDB7DEB71C821B821A8208
:1025F0001982BE016F5F7F4FCE0103960E94BD27F7
:1026000069817A818B819C810E948A21009761F483
:10261000BE016F5F7F4FCE0103960E94C92769817B
:102620007A818B819C8141D10F900F900F900F90F8
:10263000DF91CF910895CF93DF939C018F3F910558
:1026400009F058F4CB01BA01E901A9010DDFAB0192
:10265000BC01CE01DF91CF917DC28FEF9FEFDF9163
:10266000CF9108951F93CF93DF93D82F60E070E050
:10267000CB010E946C2E11E00E947520009751F052
:10268000C0E08E3F2FEF920731F0DD2319F121E0FA
:1026900030E028C0C1E021D1009721F08E3F3FEF0C
:1026A000930799F7C1111AC0C1E0029609F4C0E07E
:1026B0000E942720009721F08E3F3FEF930729F7D4
:1026C00021E0C11105C08E3F3FEF930709F420E0E0
:1026D000D11106C0DF91CF911F910895C1E0E8CFDD
:1026E000212730E0232B41F2F5CFCF93DF9381E018
:1026F00090E090934D0280934C0233D2D0E0C0E042
:10270000892B71F06AE070E080E090E00E946C2E0E
:1027100081E0A8DF26D22196C03D27E0D20781F7CD
:1027200025D20E94DE2110928D0310928C0310920C
:102730004D0210924C02109288031092890310925D
:102740008A0310928B0310928403109285031092D7
:1027500086031092870310928003109281031092D7
:1027600082031092830310927C0310927D031092D7
:102770007E0310927F0310927803109279031092D7
:102780007A0310927B0340E050E060E070EC4093ED
:1027900048025093490260934A0270934B02109290
:1027A0007703EFE6F3E028E0DF011D922A95E9F7D1
:1027B00010926B0310926C0310926D0310926E03D3
:1027C000DF91CF91089582E090E0FA0191838083B8
:1027D0008FEF9FEF0895CF93DF93EA01009711F0F9
:1027E0000E94E9221982188290E080E0DF91CF9167
:1027F0000895DB01009719F48FEF8C9308952EEF65
:102800002C93FC013C96EB30F105C8F48827E45F7B
:10281000FB4E8F4F0C94883430142E142A142C1431
:1028200028142614241421141B1417141D1480E3D7
:1028300011968C93089589E2FBCF82E2F9CF80E272
:10284000F7CF11961C92089583E2F2CF81E2F0CF88
:1028500081E1EECF87E2ECCF8AE2EACF80E1E8CFF8
:1028600084E2E6CF8091A2039091A3030895909310
:10287000A3038093A20308958091A10308959091EA
:10288000A103892B8093A1030895982F909580919F
:10289000A10389238093A10308958091A003089543
:1028A00080919E0390919F0308958091A4038111CC
:1028B00011C08EE893E023D286E993E00E94D91CF0
:1028C00082E993E00E94961F81E08093A40390E048
:1028D00080E0089584EF9FEF08957F928F929F92FA
:1028E000AF92BF92CF92DF92EF92FF920F931F931E
:1028F000CF93DF9300D000D000D01F92CDB7DEB7CA
:102900001A86198618861F821E821D821C821B82CF
:102910001A8219828091A40307EF1FEF882309F41C
:10292000C2C08E010D5F1F4F9E012B5F3F4FAE0156
:10293000495F5F4FBE01675F7F4F90E080E00E947C
:102940000F218C01009721F00596029708F0FAC03C
:1029500089859A85009709F4F3C06D817E812B816A
:102960003C81260F371F4F8158854217530708F4C3
:10297000E7C06C01C60ED71EF60140812091A2036C
:102980003091A303232B09F4A3C0413F68F52CE148
:10299000240F2D3060F12DE2240F203158F128E36F
:1029A000240F2B3008F03FC023E030E0220F331F0C
:1029B000220F331FF901E257FC4F82809380A081E0
:1029C000B181F12CE12CF0E0E0E030E020E0712C6E
:1029D000A42EB12C8216930621F1772071F0309746
:1029E00041F504EF1FEFAEC030E020E0DFCF21E083
:1029F00030E0DCCF22E030E0D9CF4D915C911197EF
:102A0000A416B50651F41296ED91FC911397149605
:102A1000ED90FC901597772473942F5F3F4F169697
:102A2000D9CF7110DCCF29EFE22E23E1F22EE3EEB5
:102A3000F3E1AE014F5F5F4F19955C01E114F104C2
:102A400091F189809A808114910469F18B819C8134
:102A50008815990508F44FC010E000E04B815C81B7
:102A600070E060E0C6010E94B23401151105D9F48E
:102A700049815A8169857A858D819E81680F791F88
:102A8000C501F701199509811A812D813E814F8178
:102A9000588569857A8581E090E00E94AC208C01A0
:102AA000892B09F04FC0C8012A960FB6F894DEBFF3
:102AB0000FBECDBFDF91CF911F910F91FF90EF908F
:102AC000DF90CF90BF90AF909F908F907F900895B0
:102AD000F12CE12CEBEEF3E14F3F09F0AACFA091EE
:102AE0008E03B0918F031296ED91FC91139714967B
:102AF000ED90FC9074CF0E94D9218C0189859A8534
:102B00000E94E92270E060E0C4010E94722198876F
:102B10008F830E94A9209E838D836F8178856115A4
:102B2000710559F0C8010E941C249A87898706EF15
:102B30001FEF892B09F090CF91CF08EF1FEF8ECFB9
:102B400008EF1FEF89859A85009709F4ACCF0E94A2
:102B5000E922A9CF2091A403211140C787EF9FEF5D
:102B600008958091A2039091A30308950E94A01F4D
:102B70000E941A1FCED0EEE8F3E080E1DF011D9243
:102B80008A95E9F71092A40390E080E0089586E02A
:102B900090E0FA019183808390E080E00895FF92B5
:102BA0000F931F93CF93DF938A01EC01C60FD71FBA
:102BB000F9800E94C121F816190668F082E090E0C1
:102BC000F801918380838EEF9FEFDF91CF911F916A
:102BD0000F91FF90089589818093A50390E001965D
:102BE000F8019183808390E080E0EFCFCF93DF9373
:102BF000EA010E94CE2182E090E0998388838BEFE6
:102C00009FEFDF91CF910895CF93DF93EB0186E0A3
:102C1000FB0111928A95E9F78FEF88832DDE898376
:102C20003CDE8A833DDE9D838C83DF91CF910895C6
:102C3000CF93DF93EA010E94411E811109C082E017
:102C400090E09983888385EF9FEFDF91CF9108957E
:102C500090E080E00CDE81E090E09983888390E052
:102C600080E0F3CF0F931F93CF93DF93EA018C01A2
:102C7000060F171F0E94411E81110BC082E090E0D9
:102C80009983888385EF9FEFDF91CF911F910F91FB
:102C90000895F8018181823038F082E090E09983D4
:102CA00088838EEF9FEFF0CF81E090E0E0DD88E059
:102CB00090E09983888390E080E0E6CFCF93DF9324
:102CC0000097D1F4EB01FB01329686E0DF011D9203
:102CD0008A95E9F78FEF888385E089831A820E94BD
:102CE000C1218B830E94C0219D838C8381E08E83D0
:102CF0008F83DF91CF910895DF91CF917ACD2EE42C
:102D000032E0FC013183208327E030E033832283EB
:102D1000089508958091A6039091A7030895411105
:102D200005C0611571058105910561F06093A603E9
:102D30007093A7038093A8039093A9034093AA03D9
:102D400081E0089580E00895FF920F931F93CF9341
:102D5000DF938A01EC01C60FD71FF9800E94C121C1
:102D6000F816190668F082E090E0F80191838083FC
:102D70008EEF9FEFDF91CF911F910F91FF900895FC
:102D80006C817D818E819F814B81C9DF811108C05B
:102D900082E090E0F8019183808384EF9FEFEACF97
:102DA00089818093A50390E00196F8019183808347
:102DB00090E080E0DFCFCF93DF93EA01FC01E60FE4
:102DC000F71F64817581868197814381A8DF811116
:102DD00009C082E090E09983888384EF9FEFDF91C0
:102DE000CF91089581E090E09983888390E080E01E
:102DF000F6CFE6EAF3E04081518162817381480FAA
:102E0000511D611D711D4083518362837383089539
:102E1000CF932091A6033091A7034FEFFC0140838D
:102E20002115310589F0C091A5034C2F50E0FA011E
:102E30003196E617F70741F4B90101960E94A934CB
:102E40008C2FD7DF1092A503CF9108959B01009797
:102E500019F4BA01C901DCCFCCCC9B01009719F45D
:102E6000BA01C901D5CFC5CC2DE0AC01249FC0016A
:102E7000259F900D1124E091AD03F091AE03E80F72
:102E8000F91F238134812250310981E0223031053C
:102E900008F080E008950F931F93CF93DF93009184
:102EA000AF031091B003D0E0C0E080E00C171D0725
:102EB00049F491E0811190E0892FDF91CF911F912A
:102EC0000F9108958111F5CFCE01CEDF2196EECF7F
:102ED000A091AD03B091AE03109729F12091AF03FB
:102EE0003091B00382179307F0F45DE0589F900192
:102EF000599F300D1124A20FB31FED91FC91119732
:102F0000309789F012968C91681768F485E0689F75
:102F1000E00DF11D112480819181892B21F081E048
:102F20009281491708F080E00895EF92FF920F9385
:102F30001F93CF93DF93EA01FC01E60FF71F028195
:102F40001381E480F5804F2D6E2DC801C1DF811102
:102F50000DC082E090E0998388838EEF9FEFDF9130
:102F6000CF911F910F91FF90EF900895C8017CDFE2
:102F7000882339F082E090E09983888388EF9FEF7F
:102F8000EECF1093BB020093BA02E092BC02F09223
:102F9000BD0281E090E09983888390E080E0DFCFFC
:102FA000CF92DF92EF92FF920F931F93CF93DF9315
:102FB0007A01EC01C60FD71FC090BA02D090BB02B5
:102FC0000091BC021091BD02412F602FC60180DF2D
:102FD000811110C082E090E0F701918380838AEF35
:102FE0009FEFDF91CF911F910F91FF90EF90DF90B6
:102FF000CF900895C60138DF882341F082E090E049
:10300000F7019183808388EF9FEFEBCF4C815D8147
:103010006E817F819A8189818F3F41F082E090E0CB
:10302000F701918380838EEF9FEFDBCFEDE0EC9D86
:103030009001ED9D300D1124E091AD03F091AE03B0
:10304000E20FF31F0190F081E02D25E0029FE00DDB
:10305000F11D11240190F081E02D27E0129FE00D79
:10306000F11D1124808391838B8182834383548358
:10307000658376831F5F1093BD0281E090E0F701C6
:103080009183808390E080E0ACCFEF92FF920F932A
:103090001F93CF93DF937A018C01060F171FC09106
:1030A000AD03D091AE03209781F021E030E0F8012C
:1030B000828193814091AF035091B00384179507AB
:1030C00010F030E020E0232B71F482E090E0F70173
:1030D000918380838EEF9FEFDF91CF911F910F91AE
:1030E000FF90EF9008954DE0489F9001499F300D6B
:1030F0001124C20FD31FB8DE882341F082E090E094
:10310000F7019183808388EF9FEFE6CFF801248158
:10311000358120383105C8F687818111D6CF4181AC
:10312000842F90E08F7E009741F082E090E0F701DD
:103130009183808386EF9FEFCFCF4F833E832D8394
:10314000268128871986223010F421E0288721E083
:1031500030E0F70131832083BFCF88E090E0FA01AF
:103160009183808390E080E00895FB018FEF80835E
:1031700081E181838FEF9FEF9383828380E890E0EA
:1031800095838483168217820895FB018FEF8083D5
:1031900091E0918382839383848384E3858381E0B8
:1031A00090E09783868308958F929F92BF92CF92EB
:1031B000DF92EF92FF920F931F93CF93DF93EA0179
:1031C000FC01E60FF71F828193810481B580E091B5
:1031D000AD03F091AE03309791F482E090E09983D3
:1031E00088838CEF9FEFDF91CF911F910F91FF901C
:1031F000EF90DF90CF90BF909F908F900895209197
:10320000AF033091B0038217930738F082E090E06B
:10321000998388838EEF9FEFE6CF2DE0289F600192
:10322000299FD00C1124EC0DFD1DE080F180E114EC
:10323000F10499F28281081748F785E0089F800120
:103240001124E00EF11EF70180819181892B29F66E
:10325000F7E0BF9E40011124C4010E949C22F701A7
:1032600091838083E091AD03F091AE03EC0DFD1DE1
:103270000190F081E02DE00FF11F80819181009796
:1032800039F482E090E0998388838DEF9FEFABCF94
:10329000A40170E060E00E94B2348091AD0390918F
:1032A000AE03C80ED91EF60180819181080F191F47
:1032B000F801B28281E090E09983888390E080E019
:1032C00092CFBF92CF92DF92EF92FF920F931F9314
:1032D000CF93DF93EA01FC01E60FF71F8281938110
:1032E000B4800091AD031091AE030115110581F476
:1032F00082E090E0998388838CEF9FEFDF91CF91FC
:103300001F910F91FF90EF90DF90CF90BF900895A5
:103310002091AF033091B0038217930738F082E019
:1033200090E0998388838EEF9FEFE8CF2DE0289F70
:103330007001299FF00C11240E0D1F1DF8018081D2
:103340009181892BA9F6F5E0BF9E60011124C60189
:103350000E949C22F80191838083E091AD03F0915B
:10336000AE03EE0DFF1D80819181009739F482E05C
:1033700090E0998388838DEF9FEFC0CFA60170E026
:1033800060E00E94B234E091AD03F091AE03EE0D27
:10339000FF1DB28281E090E09983888390E080E015
:1033A000ADCFCF92DF92EF92FF920F931F93CF9307
:1033B000DF93860F971FFC01E280F3808091AD03BD
:1033C0009091AE03892B81F082E090E0FA01918325
:1033D00080838CEF9FEFDF91CF911F910F91FF9032
:1033E000EF90DF90CF9008958A018DE08E9D60016F
:1033F0008F9DD00C1124C6010E949C22EC010097E5
:1034000041F482E090E0F801918380838DEF9FEF9B
:10341000E2CFA60170E060E00E94B234D093AE0328
:10342000C093AD03F092B003E092AF0390E080E070
:103430002FEF3FEF8E159F0541F481E090E0F801FA
:103440009183808390E080E0C6CF3C872B870196F4
:103450002D96F0CFCF92DF92EF92FF920F931F93B2
:10346000CF93DF93EC01D12CC12C10E000E0F12CC4
:10347000E12C8A818017110609F0BCF4AE01455F8A
:103480005F4F63E070E0C7010E940723009721F0BF
:103490002FEF3FEF3C872B87DF91CF911F910F914B
:1034A000FF90EF90DF90CF900895E881F981EC0DC7
:1034B000FD1D838194810115110571F0019661E074
:1034C00070E010D7E816F90608F47C010F5F1F4F73
:1034D00085E0C80ED11CCDCF0596F1CF8F929F927B
:1034E000AF92BF92CF92DF92EF92FF920F931F9312
:1034F000CF93DF93EA01FC01E60FF71F8181833050
:1035000098F082E090E09983888386EF9FEFDF91C7
:10351000CF911F910F91FF90EF90DF90CF90BF90D0
:10352000AF909F908F9008958091AD039091AE03DE
:10353000892B61F081E090E02091AF033091B003DE
:10354000232B11F490E080E0892B39F482E090E0A5
:10355000998388838EEF9FEFDACFF8948091AB0345
:103560009091AC03892B09F4A4C0789482E090E098
:103570009983888385EF9FEFCACF63817481672B1E
:1035800011F03483238301963D9648175907A9F714
:1035900081E090E06CD980E478D983C08091AD035C
:1035A0009091AE03800F911FFC0143815481423002
:1035B000510571F4F2E0CF16D104E104F10444F4B2
:1035C000FC01438554854F3F5F4F11F443DF9C015D
:1035D0004FEFC41AD40AE40AF40A035F1F4F809124
:1035E000AF039091B003B0E0A0E0C816D906EA0698
:1035F000FB06B4F42115310589F27894232B09F4E4
:1036000051C082E090E0998388838DEF9FEF7FCF58
:1036100010E000E030E020E0C12CD12C7601DFCFBB
:103620002115310551F710E000E0812C912C540157
:1036300083E0E82EF12C18C0E091AD03F091AE03C9
:10364000E00FF11F83819481029739F4F482E382C1
:1036500082E090E00CD980E412D96FEF861A960AC6
:10366000A60AB60A035F1F4F8091AF039091B00383
:10367000B0E0A0E088169906AA06BB06ECF230E09E
:1036800020E0BBCF638174816230710511F4348313
:10369000238301963D9648175907A1F7FCDB81115A
:1036A00077CF789481E090E09983888390E080E000
:1036B0002ECF8181813009F4ABCF78F0823089F749
:1036C0004091AF035091B003E091AD03F091AE0390
:1036D00090E080E021E030E0DECF4091AF035091F8
:1036E000B003E091AD03F091AE0390E080E021E003
:1036F00030E04BCF4F925F926F927F928F929F926A
:10370000AF92BF92CF92DF92EF92FF920F931F93EF
:10371000CF93DF933C01660E771EF301C280D38006
:10372000C091AD03D091AE03209741F091E020917C
:10373000AF033091B003C216D30608F090E09111A8
:1037400018C082E090E0FA01918380838EEF9FEFB2
:10375000DF91CF911F910F91FF90EF90DF90CF906D
:10376000BF90AF909F908F907F906F905F904F90A1
:1037700008958DE08C9D90018D9D300D1124C20F18
:10378000D31FF3018181833040F082E090E0FA01A1
:103790009183808386EF9FEFDBCF2A012B813C81D1
:1037A000232BF1F4288139814F8141FF34C0232B31
:1037B00009F48AC03091B2032A81432F420F552762
:1037C000551FBA0141E050E06038710514F050E037
:1037D00040E0452B09F478C03A87230F2093B203C9
:1037E0008150823008F47FC0F8948091AB039091AF
:1037F000AC03892B09F07CC0F3018181813009F48D
:1038000091C008F47EC0823009F089C082E090E067
:103810009C838B8384C0232B09F456C03091B10361
:103820002A81E32FE20FFF27FF1F41E050E0E0383D
:10383000F10514F050E040E0452B09F445C03A870B
:10384000230F2093B103CCCFA881B981A00FB11F62
:10385000ED91FC9111973097B9F121E030E012968B
:103860008C91811102C030E020E0232B69F190E0BF
:10387000F12CE12C30E020E0281739076CF14701EA
:10388000F5E08F0E911C7CD59C0191E0281539053F
:1038900008F490E0A8014B5F5F4F28153905A0F0B0
:1038A00028813981020F131FF801F482E382FFEFB0
:1038B000AF1ABF0A8A018A818A151B0409F00CF429
:1038C00093CF9111C1CF90CF82E090E0F20191832C
:1038D000808387EF9FEF3CCF4181E40EF11C2F5F87
:1038E0003F4F3796C9CF10E000E0B12CA12CE3CFB9
:1038F000789482E090E0F2019183808385EF9FEFDE
:1039000027CF81E090E09C838B83C5DA882339F050
:1039100081E090E00E94371480E40E94451490E01A
:1039200080E018C0F2E0CF16D10460F083E090E0B0
:103930009C838B8382E090E00E94371480E40E9495
:103940003F14EDCF8B859C85019681F7CE0182DDFA
:10395000009761F3789422E030E0F2013183208314
:10396000892B19F08DEF9FEFF3CE90E080E0F0CE41
:103970000097A9F4FB01228133818FEF80834DE012
:10398000429FC001439F900D1124E091AD03F0913F
:10399000AE03E80FF91F8285FB01818308950C9423
:1039A000F91388E090E0FA019183808390E080E051
:1039B00008951092AC031092AB03EDEAF3E026E019
:1039C000DF011D922A95E9F728E732E0FC013183F7
:1039D00020832BE030E03383228308952F923F929F
:1039E0004F925F926F927F928F929F92AF92BF920F
:1039F000CF92DF92EF92FF920F931F93CF93DF93BB
:103A0000CDB7DEB72F970FB6F894DEBF0FBECDBF90
:103A1000F8942091AB033091AC032F5F3F4F30936C
:103A2000AC032093AB0378942091AD033091AE03A7
:103A30003B832A83232B09F421C12091AF033091CA
:103A4000B003232B09F41AC14A875B876C877D87F3
:103A5000998788878A819B819F878E87512C412CEB
:103A6000198210E000E08091AF039091B0034816F6
:103A7000590618F43981332329F1F8948091AB0366
:103A80009091AC0301979093AC038093AB0378942F
:103A9000C8012F960FB6F894DEBF0FBECDBFDF91E1
:103AA000CF911F910F91FF90EF90DF90CF90BF903B
:103AB000AF909F908F907F906F905F904F903F90CE
:103AC0002F900895AE85BF8517968C91179781FD2D
:103AD00083C013968D919C911497039709F07CC035
:103AE00015968D919C91E885F9858E179F0709F0B1
:103AF00073C0312C212CF12CE12C62C02AD39F837E
:103B00008E8310E0E114F10431F4AE85BF85179681
:103B10001C9112951170AE85BF85ED91FC91E20D5F
:103B2000F31D63807480111161C0BFEF6B1A7B0AB3
:103B300061E070E0C301D6D35C01AE85BF851B9602
:103B40008D919C918F3F980709F454C0B50174D6AC
:103B50006C01009709F48DC0EE81FF81E80FF91F19
:103B6000AE85BF851A968C918E0D8083111145C04C
:103B70008F010F5F1F4F1D821C821B821A82AE8530
:103B8000BF85ED91FC91E20DF31D82812A813B817D
:103B90008217130611F00CF03CC083012E813F8187
:103BA000A501B60190E080E0D7D28C01892B11F0FD
:103BB000C6010FD58FEFE81AF80A95E0290E311CDF
:103BC000AE85BF8512968C918E151F0429F024F0C6
:103BD000B981BB2309F492CFEFEF4E1A5E0A2E850E
:103BE0003F85235F3F4F3F872E873DCFE5E06E0E39
:103BF000711C9ECFC501A0D4ABCF8A859B85AC85B7
:103C0000BD8581839283A383B4838F010B5F1F4F94
:103C1000B2CF80809180AC81BD818A0E9B1EF40161
:103C20006381748180818F3FF1F021E030E001C039
:103C3000220F8A95EAF7DB018C91822391E009F447
:103C400090E0F8019083F4018181080F111D2A8111
:103C50003B812F5F3F4F3B832A838C819D81079659
:103C60009D838C838CCF418150E0C8010E94A93490
:103C7000EACF31E0398306EF1FEF9CCF10E000E080
:103C8000FCCE2F923F924F925F926F927F929F92C3
:103C9000AF92BF92CF92DF92EF92FF920F931F935A
:103CA000CF93DF9300D000D0CDB7DEB70091AD0346
:103CB0001091AE039924939401151105A9F0A090D9
:103CC000AF03B090B003F8948091AB039091AC0334
:103CD00099249394009709F0912C892B09F472C0D0
:103CE000789480E40E944514892D26960FB6F894A6
:103CF000DEBF0FBECDBFDF91CF911F910F91FF901F
:103D0000EF90DF90CF90BF90AF909F907F906F909B
:103D10005F904F903F902F90089522E0C216D104FB
:103D2000E104F1046CF4AD81BE811B968D919C91F0
:103D30008F3F980709F003D5ED81FE8134862386F5
:103D4000AD81BE818D919C91B12CA12C412C512C27
:103D50003201892B31F5BFEFCB1ADB0AEB0AFB0AE4
:103D6000ED81FE813D96FE83ED8389819A81AB8151
:103D7000BC81C816D906EA06FB067CF2C80129D424
:103D8000B0CF8A0D9B1DFC0180819181009709F0C5
:103D900020D4FFEF4F1A5F0A6F0A7F0A25E0A20EB8
:103DA000B11CAD81BE818D919C91119712964C9161
:103DB00050E070E060E044165506660677060CF3A6
:103DC00008D4C9CF1092AE031092AD031092B00385
:103DD0001092AF031092B1031092B2037894D2D232
:103DE0001E830D83C12CD12C7601C501B0E0A0E06B
:103DF00089839A83AB83BC8322242A94322CB5CF47
:103E0000CF93DF93EA013DDF811109C082E090E0AA
:103E10009983888385EF9FEFDF91CF91089581E0AB
:103E200090E00E94371481E090E09983888390E0CD
:103E300080E0F2CF26CFFF920F931F93CF93DF93B3
:103E40008A01EC01C60FD71FF9809BD20897F8169C
:103E5000190671F068F082E090E0F80191838083A8
:103E60008EEF9FEFDF91CF911F910F91FF900895FB
:103E70006C817D818E819F814B810E948F16811183
:103E800008C082E090E0F8019183808384EF9FEF87
:103E9000E9CF0E948A16498150E0BE01685F7F4FDA
:103EA0000E94A93489810E94F91681E090E0F8010E
:103EB0009183808390E080E0D5CFFF920F931F9392
:103EC000CF93DF938A01EC01C60FD71FF98059D237
:103ED000FF2059F0029721E030E0F816190619F09A
:103EE00010F030E020E0232B69F482E090E0F8014C
:103EF000918380838EEF9FEFDF91CF911F910F9180
:103F0000FF9008950E948A16498150E0BE016E5FBD
:103F10007F4F0E94A93489810E94F91681E090E0C8
:103F2000F8019183808390E080E0E6CF2EEB32E0D1
:103F3000FC013183208322E030E033832283089523
:103F40000895FC0111821082938382830895DB011E
:103F50001D921C92DC011296ED91FC9113977183D6
:103F6000608313967C936E9312970895FC01808171
:103F70009181DB018D939C93A081B181109741F0D9
:103F80008D919C9191838083892B11F4F383E2833B
:103F90000895FC0180819181DB018D939C93892B95
:103FA00011F473836283718360830895FC0111822D
:103FB0001082938382830895CF93DF931F921F9281
:103FC000CDB7DEB71A821982F894BE016F5F7F4FBA
:103FD00088EB93E0CBDF89819A81009709F0F9D2D1
:103FE00089819A81892B89F7BE016F5F7F4F8CEBA6
:103FF00093E0BCDF89819A81009709F0EAD2898138
:104000009A81892B89F778940F900F90DF91CF9147
:104010000895CF93DF931F921F92CDB7DEB71A8218
:104020001982F894BE016F5F7F4F84EB93E09EDFAF
:1040300089819A81009709F0CCD289819A81892B54
:1040400089F778940F900F90DF91CF910895EF92B8
:10405000FF920F931F93CF93DF931F921F92CDB7C1
:10406000DEB71A8219828091B30307EF1FEF88230E
:1040700091F1F894BE016F5F7F4F8CEB93E076DF98
:1040800089819A81EE24E394F12C892B41F4BE01BD
:104090006F5F7F4F88EB93E069DFF12CE12C789420
:1040A00089819A810EEF1FEF0097A9F0FC014281F0
:1040B000538164E070E095D58C01892B61F0F89410
:1040C00069817A81C701880F991F880F991F8854C9
:1040D0009C4F5FDF7894C8010F900F90DF91CF91D4
:1040E0001F910F91FF90EF9008950F931F93CF931F
:1040F000DF9300D01F92CDB7DEB71C821B821A82DD
:1041000019828091B30307EF1FEF8823C1F0AE013E
:104110004D5F5F4F64E070E0CE010196D5D58C0114
:10412000892B69F4E981FA818B819C819383828355
:10413000F89469817A8184EB93E009DF7894C8016F
:104140000F900F900F900F90DF91CF911F910F91D3
:104150000895DAD6049608958F929F92AF92BF92F7
:10416000CF92DF92EF92FF920F931F93CF93DF9343
:104170001F921F92CDB7DEB71A8219828230910545
:1041800098F0CC24CA94DC2CC6010F900F90DF91DC
:10419000CF911F910F91FF90EF90DF90CF90BF9044
:1041A000AF909F908F9008956115710551F358015C
:1041B00049016A018B017C01CCDF8815990509F75B
:1041C000A114B104F1F28A0D9B1DC816D906C8F2DC
:1041D0008091B3038823F1F0F894B601645071091B
:1041E0009501AE014F5F5F4FC801049602D66C0186
:1041F000892B71F489819A81F80193838283C701A5
:10420000880F991F880F991FB80188549C4F9FDE13
:104210007894BACF87EFC82EDD24DA94B5CFAF9269
:10422000BF92CF92DF92EF92FF920F931F93CF93A3
:10423000DF931F921F92CDB7DEB71A821982892BA6
:1042400009F047C06115710509F443C041155105D6
:1042500009F43FC02115310509F43BC001151105D2
:10426000C1F18091B3038823B9F179016A015B013F
:10427000F894BE016F5F7F4F84EB93E077DE789414
:1042800089819A81009759F1DC0112966D917C9198
:10429000A8010496C7D58C01E981FA81D501ED9377
:1042A000FC93828193810496F6019183808351DF90
:1042B000D7018D939C93C8010F900F90DF91CF9100
:1042C0001F910F91FF90EF90DF90CF90BF90AF9034
:1042D00008950FEF1FEFEFCF07EF1FEFECCF0EEFBB
:1042E0001FEFE9CFCF93DF93EC01672B71F415D665
:1042F0008C179D0760F008D62496C80FD91F07D6E3
:104300008C0F9D1FDF91CF91089504D6F1CF90E0DF
:1043100080E0F8CF0F931F93CF93DF932091B303E7
:1043200021112BC08B01EC0188EB93E00ADE8CEBB2
:1043300093E007DE84EB93E004DE86D00097C1F4BF
:10434000ECD570E060E0CEDF4AEC52E062E070E075
:104350005ED1009769F48091CA029091CB02EFD5AB
:10436000B801CE0124D4009719F421E02093B303BF
:10437000DF91CF911F910F91089584EF9FEFF8CFB8
:10438000C9C5CBC5CF93DF93CBD5EC01892B11F4F5
:1043900013DE3FDECE01DF91CF910895CF93DF93FF
:1043A000BFD5EC01892B09F407DECE01DF91CF9157
:1043B00008958091CA029091CB020895CF93DF9324
:1043C0008091B303D0E0C0E08823D1F0BDD5EC01EB
:1043D000892BB1F4F1DD1DDE8091CA029091CB02F0
:1043E000AED164D2EC01892B59F488EB93E0DEDD89
:1043F0008CEB93E0DBDD84EB93E0D8DD1092B3032C
:10440000CE01DF91CF910895CF93DF930097A1F470
:10441000DF91CF910895EC011A821982A883309719
:1044200011F0928381832F5F3F4FFC01860F971F0E
:104430004217530781F7ECCF30E020E0F0E0E0E0F6
:10444000AFEF6F5F7F4FF4CFAF92BF92CF92DF920B
:10445000EF92FF920F931F93CF93DF938AE39CE039
:104460007C012CEFE22280E1C82E83E0D82E96E179
:10447000A92E93E0B92ECFE3DFE08E01D6014D9156
:104480005D916D01F501619171915F01D801119606
:10449000FC92EE9215965C934E93149713965C9350
:1044A0004E93129717967C936E9316979B012F5FEE
:1044B0003F4F249FC001259F900D349F900D1124E4
:1044C00019969C938E931897C7019EDFF8018085FB
:1044D0009185E80EF91E065F1F4FF6E1CF16F3E057
:1044E000DF0661F6E2ECF3E085E798E0DF019C018E
:1044F0001D9221503040E1F71092C1031092C00389
:104500001F8E1E8E1BA21AA219A218A21DA21CA2E7
:104510001FA21EA22A963FE0CD35D30789F790E06F
:1045200080E0DF91CF911F910F91FF90EF90DF908E
:10453000CF90BF90AF900895F8948132910550F4D8
:104540008091410F9091420F892B39F020E090E04B
:1045500080E019C08134910550F480914B0F909107
:104560004C0F892B39F021E081E090E00CC08134C0
:104570009140A8F48091550F9091560F892B79F0B6
:1045800022E082E090E0EAE0E89FD001E99FB00DF0
:104590001124A15CB04F8D919C91009721F47894E7
:1045A00090E080E00895E29FF0011124E15CF04F7B
:1045B000DC0111964D915C9151834083428153817E
:1045C0004150510953834283FC012193CF017894D8
:1045D00008950097D9F0DC01EE91E630B8F4F89434
:1045E0008FEF8C938AE0E89FF0011124E15CF04F9B
:1045F0008081918112969C938E931197B183A083B1
:104600008281938101969383828378940895CF92D7
:10461000DF92EF92FF920F931F93CF93DF939C0152
:1046200085EC93E08C7F4115510509F485C0211577
:10463000310509F481C06115710509F47DC08A0155
:10464000AB01B9016D5F7F4F6C7F9B012F5F3F4FC7
:10465000249F7001259FF00C349FF00C1124F894D6
:10466000EFE3FFE023E030E0E901A6A1B7A1C68CAB
:10467000D78CCD2809F054C0109709F03CC0C090E9
:10468000C003D090C10322E738E02C193D092E1554
:104690003F0530F47894CFEFDFEF86EF9FEF1FC038
:1046A0002AE02C9FF0012D9FF00D1124E15CF04FCA
:1046B00091838083558344835383428377836683C6
:1046C000F186E086A1DEEC0CFD1CF092C103E092C5
:1046D000C0037894CF3FDC0701F390E080E0F8015D
:1046E000D183C083DF91CF911F910F91FF90EF9005
:1046F000DF90CF900895AE15BF0590F02AE02C9F73
:10470000F0012D9FF00D1124E15CF04F9183808327
:1047100055834483538342837783668375DED9CF81
:104720008A0F9B1F2F5F3F4F3A962630310509F0C5
:104730009BCFCFEFDFEFCDCF8FEF9FEFD3CFFF92A8
:104740000F931F93CF93DF939C01235031092330A4
:10475000310508F057C0F8942AE0289FF001299FFE
:10476000F00D1124E15CF04F4085518525E03AE0E1
:10477000022F10E080179107ACF12AE0F22EF89E8C
:10478000E001F99ED00D1124C15CD04F70E060E0D3
:10479000888199810E94B234F09EF001F19EF00D63
:1047A0001124E15CF04F8091C0039091C1032085FA
:1047B0003185821B930B9093C1038093C0031982B0
:1047C00018821D821C821B821A821F821E821986F9
:1047D0001886789490E080E0DF91CF911F910F913F
:1047E000FF900895309FF001319FF00D1124E15C9E
:1047F000F04F60817181672B41F44115510529F417
:104800002150B6CF8FEF9FEFE7CF2AE0289FE0013E
:10481000299FD00D1124C15CD04F70E060E08881E9
:1048200099810E94B234198218821D821C821B82D7
:104830001A821F821E82CDCF9C0123503109233062
:10484000310510F52AE0289FD001299FB00D1124D1
:10485000A15CB04F2D913C911197232BA9F0169696
:104860002D913C9117972617370770F0F894129600
:104870002D913C9113972115310529F0ED91FC9173
:104880001197309721F47894F0E0E0E00DC0418179
:10489000528111965C934E932150310913963C93AB
:1048A0002E93129781937894CF010895E7E3FCE06B
:1048B00088E093E0DF019C011D9221503040E1F738
:1048C000E2ECF3E085E798E0DF019C011D922150C6
:1048D0003040E1F71092C1031092C003EFE3FFE014
:1048E0008CE3DF011D928A95E9F790E080E008955E
:1048F000CF93DF93C091CC02D091CD02CF3FDC07A4
:1049000059F4CED39093CD028093CC0297FF09C087
:10491000D093CD02C093CC0284EF9FEFDF91CF9173
:10492000089590E080E0FACF8230910528F48093DA
:104930007B0F90E080E008958FEF9FEF08954F92F6
:104940005F926F927F92AF92BF92CF92DF92EF927F
:10495000FF920F931F93CF93DF931F921F92CDB7B8
:10496000DEB71A821982009709F475C061157105C6
:1049700009F471C02091CC023091CD0207EF1FEFF6
:104980002F3F3F4FE9F06B015C01412C512C32016C
:10499000F12CE12C10E000E0EC14FD0440F40A3F9F
:1049A0008FEF180721F0043F4FEF1407D9F480E888
:1049B000481684E858068EE16806710408F042C083
:1049C000C8010F900F90DF91CF911F910F91FF9031
:1049D000EF90DF90CF90BF90AF907F906F905F90FF
:1049E0004F9008959E012F5F3F4FA6014E195F091A
:1049F000B5016E0D7F1D8091CC029091CD02B4D394
:104A0000892B19F589819A81009739F4E114F10411
:104A100021F420917B0F2223D9F0E80EF91E60E0EB
:104A200070E0CB010E946C2E8AE0480E511C611C84
:104A3000711C40E8441646E9540648E964067104CE
:104A400008F4AACF01EF1FEFBBCF04EF1FEFF1CFA8
:104A50000AEF1FEFEECF0FEF1FEFB2CF4F925F9233
:104A60006F927F92AF92BF92CF92DF92EF92FF92BE
:104A70000F931F93CF93DF931F921F92CDB7DEB793
:104A80001A821982009709F46CC06115710509F446
:104A900068C02091CC023091CD0207EF1FEF2F3F6D
:104AA0003F4FA1F06B015C01412C512C3201F12CE4
:104AB000E12C10E000E0EC14FD0440F40E3F8FEF19
:104AC000180721F0043F4FEF140791F4C8010F902D
:104AD0000F90DF91CF911F910F91FF90EF90DF909A
:104AE000CF90BF90AF907F906F905F904F90089560
:104AF0009E012F5F3F4FA6014E195F09B5016E0D54
:104B00007F1D8091CC029091CD02E1D2892B19F5C5
:104B100089819A81009739F4E114F10421F42091FC
:104B20007B0F2223D9F0E80EF91E60E070E0CB0184
:104B30000E946C2E8AE0480E511C611C711C40E8DA
:104B4000441646E9540648E96406710408F4B3CFF4
:104B500002EF1FEFBBCF04EF1FEFF1CF0EEF1FEF00
:104B6000EECF0FEF1FEFB2CF8091CC029091CD022C
:104B70008F3F980749F08CD2892B49F48FEF9FEF34
:104B80009093CD028093CC0290E080E0089584EF72
:104B90009FEF0895FC01680F791F90E080E0E61711
:104BA000F70709F408952191820F911DF8CF209104
:104BB0007C0F211113C09CDE009791F41092820F9C
:104BC0001092810F1092800F10927F0F10927E0F23
:104BD00010927D0F21E020937C0F089584EF9FEFCA
:104BE0000895AF92BF92CF92DF92EF92FF920F9310
:104BF0001F93CF93DF93009709F460C046305105AF
:104C000008F45CC020917C0FC7EFDFEF222309F48A
:104C100049C08C01060F171FF801C080D180C11454
:104C2000D10409F44EC096012A5F3F4F4217530743
:104C300008F447C07C018091810F9091820F93838B
:104C40008283B6016C5F7F4F5801A60EB71EC80164
:104C5000A1DFF5019183808364E070E0C8016FDE1D
:104C6000EC01892BF9F481E090E05EDEB601C80129
:104C7000049665DEEC01892B91F462E070E0C501D9
:104C80005EDEEC01892B59F4C701A3DC8091810F12
:104C90009091820F01969093820F8093810F90E004
:104CA00080E042DECE01DF91CF911F910F91FF9006
:104CB000EF90DF90CF90BF90AF900895CFEFDFEFF0
:104CC000F1CFC9EFDFEFEECF6F927F928F929F927D
:104CD000AF92BF92CF92DF92EF92FF920F931F930A
:104CE000CF93DF9300D01F92CDB7DEB7009709F4C2
:104CF0007AC04115510509F476C020917C0F07EF69
:104D00001FEF222309F44DC03A017B015C0164E0EE
:104D100070E0CE010196A2DE8C01892B09F041C022
:104D200009811A810115110509F45AC0480186E06C
:104D3000880E911CB701680D791D8091CE0290916B
:104D4000CF027ADD6C01009709F450C0A70170E032
:104D500060E00E94B23489819A81AB81BC81EC0C05
:104D6000FD1CF70181939193A193B1937F0181E0A1
:104D700090E0DADDB801C70171DE892B31F562E020
:104D800070E0C701800F911F69DE8C01892BE9F467
:104D900090E080E0C9DDF501D182C082F30191820B
:104DA0008082C8010F900F900F900F90DF91CF91EC
:104DB0001F910F91FF90EF90DF90CF90BF90AF9039
:104DC0009F908F907F906F90089590E080E0ACDD91
:104DD000F50111821082F30111821082C601F9DB04
:104DE00009EF1FEFDECF0FEF1FEFDBCF06EF1FEF57
:104DF000D8CF0097A1F04115510589F02115310553
:104E000071F0F90136966E177F0748F0DC012D939B
:104E10003C93DA01ED93FC9390E080E008958FEFEE
:104E20009FEF0895AF92BF92CF92DF92EF92FF92E1
:104E30000F931F93CF93DF93009709F45FC0411541
:104E4000510509F45BC06530710508F457C0209125
:104E50007C0FC7EFDFEF222391F1DC01CD90DC90D6
:104E600011971296ED91FC9196012A5F3F4FC9EF81
:104E7000DFEF2617370719F5C0917D0FD0917E0F10
:104E8000209749F521E030E030937E0F20937D0F8D
:104E90007A018C01F093800FE0937F0F5601B4E00C
:104EA000AB0EB11CB50176DE0A0D1B1DF801208189
:104EB00031818217930729F5D701CD92DC92CE017B
:104EC000DF91CF911F910F91FF90EF90DF90CF90E6
:104ED000BF90AF90089520917F0F3091800F2F5F8A
:104EE0003F4FCCEFDFEFE217F30790F2CBEFDFEFAE
:104EF0002E173F0768F2D0E0C0E0CACFCFEFDFEF58
:104F0000DECFC3EFDFEFDBCF84E090E0089582E0F7
:104F100090E008958CEF9FEF089580E290E008956F
:104F20001092820F1092810F1092800F10927F0FBB
:104F300010927E0F10927D0F90E080E00895909384
:104F4000CF028093CE02089580917C0F882391F048
:104F50000BDE009789F41092820F1092810F10924D
:104F6000800F10927F0F10927E0F10927D0F109283
:104F70007C0F089590E080E00895009749F0611556
:104F8000710531F0FC0111821082FB011182108247
:104F90000895F3CF40E855E260E070E090E080E0F3
:104FA00000C08130910579F01CF4892B39F0089507
:104FB0008230910561F0039771F0089526E080E951
:104FC0009FE00C94993126E08DE290E1FACF26E043
:104FD0008AEC90E1F6CF26E087E691E1F2CF1F92CE
:104FE0000F920FB60F9211240BB60F922F933F938F
:104FF0004F935F936F937F938F939F93AF93BF93E1
:10500000EF93FF9386E09FEF909325018093240117
:10501000BFD0FF91EF91BF91AF919F918F917F9101
:105020006F915F914F913F912F910F900BBE0F9019
:105030000FBE0F901F90189586E09FEF909325016B
:1050400080932401A3E7B0E08C918E7F8C93E0E203
:10505000F1E080818C7F8083E1E2F1E08081877ED6
:10506000808380818360808380818B7F80838C912B
:1050700081608C930895E3E7F0E0808190819E7FCA
:1050800090838170089581E008951092830F0895B0
:1050900068EE73E080E090E01FD690E080E0089535
:1050A00026E040E050E16EE070E080E99FE00E9481
:1050B000993180E99FE00E94CF30892B29F080E967
:1050C0009FE00E94E930F5CF90E080E00895CF9214
:1050D000DF92EF92FF920F931F93CF93DF936B01B9
:1050E0007A01E9011982188280E99FE00E94CF309D
:1050F000892B79F18601CC24C39482E0D82E80914B
:10510000830F811111C080E99FE00E94E93002976E
:10511000B1F7C092830FF801D1928F0188819981F4
:10512000019699838883EBCF888199818E159F059D
:1051300080F480E99FE00E94E9308F3F9807A1F357
:10514000F80181938F0188819981019699838883E1
:10515000EBCF90E080E0DF91CF911F910F91FF9016
:10516000EF90DF90CF9008950F931F93CF93DF932D
:10517000EA01890180E99FE00E942934F801D18386
:10518000C08390E080E0DF91CF911F910F9108954F
:105190008091840F91E0980F9093840F882349F0B9
:1051A00021E030E03093860F2093850F8093840FA9
:1051B000089578940E94C509F8948091840F8150D5
:1051C0008093840F0C94E905BF92CF92DF92EF9207
:1051D000FF920F931F93CF93DF931F92CDB7DEB74C
:1051E0001092AC131092AB13ADD5D4DE00910E0328
:1051F00010910F03F8011182108270E060E090E0DE
:1052000080E00E9419060E94CE0F7894C8018E514A
:105210009F4F0E94180682E090E00E94EB051982E1
:10522000AE014F5F5F4F62E070E0F80182819381D1
:105230000E9467058981882329F081E0F801E851FF
:10524000FF4F80830E941A06F894F6DEF8018081F1
:105250009181892B29F481E0E851FF4F90819111D0
:1052600080E08093AB1378940E9432147C01789490
:105270006801F8EECF0ED11CBB24B3948091AB1320
:10528000811114C00E948F1182E090E00E94F40509
:10529000F89490E080E00F90DF91CF911F910F91F3
:1052A000FF90EF90DF90CF90BF9008951982AE01EC
:1052B0004F5F5F4F62E070E0F801828193810E944E
:1052C000CD058981882311F0F601B082F801808133
:1052D0009181892B01F581E0F6019081911101C046
:1052E00080E08093AC139091AC1381E0911180E049
:1052F0008093AB138091AC138111BDDEEA94EF284B
:1053000029F40E943214892B09F4BFDE0E94321462
:105310007C01B9DEB3CF81E0E4CF5058BB27AA2788
:105320000ED0AAC19BD130F0A0D120F031F49F3F24
:1053300011F41EF490C10EF4E095E7FB5DC1E92F76
:10534000ACD180F3BA17620773078407950718F08A
:1053500071F49EF5DBC10EF4E0950B2EBA2FA02D53
:105360000B01B90190010C01CA01A0011124FF2712
:10537000591B99F0593F50F4503E68F11A16F0400D
:10538000A22F232F342F4427585FF3CF469537950C
:105390002795A795F0405395C9F77EF41F16BA0BD1
:1053A000620B730B840BBAF09150A1F0FF0FBB1F7F
:1053B000661F771F881FC2F70EC0BA0F621F731FC8
:1053C000841F48F4879577956795B795F7959E3F25
:1053D00008F0B3CF9395880F08F09927EE0F9795B3
:1053E000879508957CD180F09F3740F491110EF499
:1053F0008EC160E070E080E89FE3089526F01B1600
:10540000611D711D811DFEC018C1D2D008F481E05C
:10541000089504D06894B1117AC1089546D188F0F6
:105420009F5790F0B92F9927B751A0F0D1F0660F90
:10543000771F881F991F1AF0BA95C9F712C0B130AB
:1054400081F064D1B1E0089561C1672F782F88277A
:10545000B85F39F0B93FCCF3869577956795B395EA
:10546000D9F73EF490958095709561957F4F8F4F59
:105470009F4F0895E89409C097FB3EF4909580955E
:10548000709561957F4F8F4F9F4F9923A9F0F92F0A
:1054900096E9BB279395F695879577956795B79588
:1054A000F111F8CFFAF4BB0F11F460FF1BC06F5F6E
:1054B0007F4F8F4F9F4F16C0882311F096E911C080
:1054C000772321F09EE8872F762F05C0662371F0A1
:1054D00096E8862F70E060E02AF09A95660F771FB5
:1054E000881FDAF7880F9695879597F90895F7D072
:1054F00080F09F3740F491110EF009C160E070E038
:1055000080E89FEB089526F41B16611D711D811D17
:1055100079C093C0A3D018F011F0A7D038F49BC085
:10552000F6C0E92FBAD0B0F35523C9F3E7FB6217F1
:10553000730784079507A8F199F3E92FFF278823BC
:105540002AF03197660F771F881FDAF7952F5527B6
:10555000442332F091505040220F331F441FD2F7A2
:10556000BB27E91BF50B621B730B840BB109C1F25E
:1055700022F4620F731F841FB11D31972AF0660F4A
:10558000771F881FBB1FEFCF915050405AF041F05A
:10559000882332F0660F771F881F91505040C1F763
:1055A00093954BC08695779567959F5FD9F7F8CF10
:1055B000990F0008550FAA0BE0E8FEEF1616170624
:1055C000E807F907C0F012161306E407F50798F08C
:1055D000621B730B840B950B39F40A2661F0232BA5
:1055E000242B252B21F408950A2609F4A140A69521
:1055F0008FEF811D811D089597F99F6780E870E006
:1056000060E00895882371F4772321F09850872B68
:10561000762F07C0662311F499270DC09051862B71
:1056200070E060E02AF09A95660F771F881FDAF71E
:10563000880F9695879597F908959F3F31F091507F
:1056400020F4879577956795B795880F911D969566
:10565000879597F908959FEF80EC089500240A94A8
:105660001616170618060906089500240A9412163D
:105670001306140605060895092E0394000C11F470
:10568000882352F0BB0F40F4BF2B11F460FF04C01D
:105690006F5F7F4F8F4F9F4F089557FD9058440F76
:1056A000551F59F05F3F71F04795880F97FB991F81
:1056B00061F09F3F79F0879508951216130614063E
:1056C000551FF2CF4695F1DF08C0161617061806CB
:1056D000991FF1CF86957105610508940895E5DF5E
:1056E000A0F0BEE7B91788F4BB279F3860F4161600
:1056F000B11D672F782F8827985FF7CF869577950C
:105700006795B11D93959639C8F30895E894BB2722
:1057100066277727CB0197F908954ADF08F48FEFC2
:1057200008956ACF8ACFC1DFE8F39923D9F3940FA4
:10573000511DBBF39150504094F059F0882332F042
:10574000660F771F881F91505040C1F79E3F51054B
:1057500044F7880F911D9695879597F908955F3FB7
:10576000ACF0983E9CF0BB27869577956795B795EA
:1057700008F4B1609395C1F7BB0F58F711F460FFBF
:10578000E8CF6F5F7F4F8F4F9F4FE3CFC0CF0BD0DE
:1057900073CF64DF28F069DF18F0952309F02CCF70
:1057A0005ACF1124B4CF79DFA0F3959FD1F3950F91
:1057B00050E0551F629FF001729FBB27F00DB11D95
:1057C000639FAA27F00DB11DAA1F649F6627B00D25
:1057D000A11D661F829F2227B00DA11D621F739F0E
:1057E000B00DA11D621F839FA00D611D221F749F1C
:1057F0003327A00D611D231F849F600D211D822F63
:10580000762F6A2F11249F5750408AF0E1F08823A9
:105810004AF0EE0FFF1FBB1F661F771F881F9150B6
:105820005040A9F79E3F510570F0E6CE70CF5F3F24
:10583000ECF3983EDCF3869577956795B795F795E9
:10584000E7959F5FC1F7FE2B880F911D9695879571
:1058500097F908950895883008F076C0E82FF0E0B1
:10586000EE0FFF1FE053FD4F71836083815087303F
:1058700008F03DC0E82FF0E08827EE5BF34D8F4F36
:105880000C9488347F2C492C512C5D2C6A2C8B2C49
:10589000982C809169008C7F482B40936900E89A8E
:1058A000089580916900837F440F551F440F551F51
:1058B000482B40936900E99A0895809169008F7C94
:1058C00074E0440F551F7A95E1F7482B4093690027
:1058D000EA9A0895809169008F7366E0440F551F1E
:1058E0006A95E1F7482B40936900EB9A08958091FF
:1058F0006A008C7F482B40936A00EC9A089580914F
:105900006A00837F440F551F440F551F482B409357
:105910006A00ED9A089580916A008F7C24E0440F1C
:10592000551F2A95E1F7482B40936A00EE9A089597
:1059300080916A008F7396E0440F551F9A95E1F7A6
:10594000482B40936A00EF9A08951F920F920FB66A
:105950000F9211240BB60F922F933F934F935F93A7
:105960006F937F938F939F93AF93BF93EF93FF9327
:10597000E091D402F091D5021995FF91EF91BF917A
:10598000AF919F918F917F916F915F914F913F91D7
:105990002F910F900BBE0F900FBE0F901F90189578
:1059A0001F920F920FB60F9211240BB60F922F93E6
:1059B0003F934F935F936F937F938F939F93AF9397
:1059C000BF93EF93FF93E091D602F091D702199520
:1059D000FF91EF91BF91AF919F918F917F916F91C7
:1059E0005F914F913F912F910F900BBE0F900FBE83
:1059F0000F901F9018951F920F920FB60F921124BF
:105A00000BB60F922F933F934F935F936F937F93B8
:105A10008F939F93AF93BF93EF93FF93E091D8023F
:105A2000F091D9021995FF91EF91BF91AF919F919C
:105A30008F917F916F915F914F913F912F910F9037
:105A40000BBE0F900FBE0F901F9018951F920F92D4
:105A50000FB60F9211240BB60F922F933F934F93D3
:105A60005F936F937F938F939F93AF93BF93EF93C6
:105A7000FF93E091DA02F091DB021995FF91EF912B
:105A8000BF91AF919F918F917F916F915F914F9156
:105A90003F912F910F900BBE0F900FBE0F901F9054
:105AA00018951F920F920FB60F9211240BB60F92FA
:105AB0002F933F934F935F936F937F938F939F9316
:105AC000AF93BF93EF93FF93E091D002F091D10297
:105AD0001995FF91EF91BF91AF919F918F917F9118
