:1000000005C100000C949C310C94C7310C94F23162
:100010000C941D320C9448320C9473320C949E3222
:100020000C94C93224C1000022C1000020C100008C
:100030001EC100001CC100001AC1000018C1000050
:1000400016C1000014C1000012C1000010C1000060
:100050000EC100000CC100000AC100000C94F43273
:1000600006C100000C94F0360C94263700C1000045
:10007000FEC00000FCC00000FAC00000F8C0000094
:10008000F6C00000F4C00000F2C00000F0C00000A4
:100090000C947C370C94B237EAC00000E8C0000032
:1000A000E6C00000E4C00000E2C00000E0C00000C4
:1000B000DEC00000DCC00000DAC00000D8C00000D4
:1000C000D6C00000D4C000000C94E52C0C94083875
:1000D0000C943E38CCC000000C9494380C94CA3870
:1000E000C6C0000000000A0B02090C0D0E08070331
:1000F00004010000000000000000000000000000FB
:1001000000000000000000000000000000000000EF
:1001100012111000000000000000000000000000AC
:100120000000000000000000000001021020200874
:100130000810204010204080020102010804020142
:1001400001020408102040808040201008040201B1
:10015000800402018040201008040201080402010A
:100160000102040810204080010204081020408091
:1001700005050505070508080808020202020A0A23
:100180000808040404040101010101010101030341
:10019000030303030303040707070C0C0C0C0C0CEC
:1001A0000C0C0202020206060606060606060B0BE9
:1001B0000B0B0B0B0B0B000020002300260029006B
:1001C0002C002F003200000100000301060109018C
:1001D00000002200250028002B002E0031003400F2
:1001E00002010000050108010B01000021002400AC
:1001F00027002A002D003000330001010000040117
:1002000007010A014F37DB376738F33811241FBE67
:10021000CFEFD1E2DEBFCDBF00E00CBF13E0A0E026
:10022000B2E0E4E6F3E700E00BBF02C007900D92F6
:10023000A637B107D9F724E1A6E7B3E001C01D92C4
:10024000AB3CB207E1F711E0C6E0D1E000E006C048
:1002500021970109802FFE010E947F39C230D1070A
:1002600080E00807A9F70E94DA2D0C94B039C8CEB7
:10027000611102C00C9435356130E1F362E0FACFD0
:10028000662319F061E00C94713560E0FCCF0895AD
:10029000CF92DF92EF92FF92CF93882351F16A01C0
:1002A0007B01CFEFC80F20E030E0A901CB01B60100
:1002B0000E94FC2E87FF11C0C701B60190580E9412
:1002C000052F9B01AC016C2F70E090E080E0CF9196
:1002D000FF90EF90DF90CF90B2C0C701B6010E94AF
:1002E000002F8C2FCF91FF90EF90DF90CF900C9448
:1002F000FB33CF91FF90EF90DF90CF9008950F9355
:100300001F938B019C0183E03695279517950795E0
:100310008A95D1F70A581C4F462F477021E030E0EC
:10032000F90102C0EE0FFF1F4A95E2F7AF01F80195
:1003300020812423CB010196211102C090E080E0AE
:100340001F910F9108950F931F938B019C0183E0E0
:1003500036952795179507958A95D1F7677081E0AF
:1003600090E001C0880F6A95EAF7F801EA58FC4F5F
:100370002081452B31F48095822380831F910F913A
:100380000895822BFACF2F923F924F925F926F92F5
:100390007F928F929F92AF92BF92CF92DF92EF9215
:1003A000FF920F931F93CF93DF93D62EC72E782EF5
:1003B000692E49015A01280161E08D2D0E943535D1
:1003C000CD2DDC2D8E010F5F1F4FA8016D2D7C2DD3
:1003D000872D962DB8DF20E030E0A901C201B701DA
:1003E0000E948430181664F4C201B7010E94052FE0
:1003F0002B01C501B4010E94052FA201CE0123D01B
:10040000C801DF91CF911F910F91FF90EF90DF9086
:10041000CF90BF90AF909F908F907F906F905F90A4
:100420004F903F902F900895882341F08150682F7E
:1004300070E090E080E050E040E085CF0895862FA6
:10044000B9010C94FB339C01FC01EC51FF4FE4918A
:10045000E150E231E0F4F0E08827EE5CFD4F8F4F91
:100460000C947F3944024B024E0265027A02470225
:100470008F029B029F02B602CB02E002F7020C033E
:100480004702210338034D0384B5806884BD60E0D2
:10049000822F0C94713584B58062F8CF80918000F2
:1004A0008C7F82608093800080918100807E80615B
:1004B000682B609381005093870040938600809161
:1004C0008000806880938000E2CF809180008C7FE4
:1004D00082608093800080918100807E8061682BA3
:1004E0006093810050938700409386008091800044
:1004F0008062E8CF809180008C7F82608093800052
:1005000080918100807E8061682B60938100509390
:10051000870040938600809180008860D3CF8091CF
:10052000B00080688093B0008091B100887F682B14
:100530006093B100ACCF8091B0008062F3CF809126
:1005400090008C7F82608093900080919100807EEB
:100550008061682B609391005093970040939600C0
:100560008091900080688093900091CF809190005E
:100570008C7F82608093900080919100807E80616A
:10058000682B609391005093970040939600809160
:1005900090008062E8CF809190008C7F8260809391
:1005A000900080919100807E8061682B6093910023
:1005B0005093970040939600809190008860D3CF2D
:1005C0008091A0008C7F82608093A0008091A10028
:1005D000807E8061682B6093A1005093A7004093B8
:1005E000A6008091A00080688093A00050CF8091E9
:1005F000A0008C7F82608093A0008091A100807E0B
:100600008061682B6093A1005093A7004093A600DF
:100610008091A0008062E8CF8091A0008C7F8260F2
:100620008093A0008091A100807E8061682B609300
:10063000A1005093A7004093A6008091A00088607D
:10064000D3CF809120018C7F8260809320018091A4
:100650002101807E8061682B6093210150932701E6
:1006600040932601809120018068809320010FCF64
:10067000809120018C7F82608093200180912101F4
:10068000807E8061682B6093210150932701409305
:100690002601809120018062E8CF809120018C7F2B
:1006A00082608093200180912101807E8061682B8F
:1006B00060932101509327014093260180912001EE
:1006C0008860D3CFCF93DF93EC0170E060E06C17CC
:1006D0007D070CF5072E000C880B990B0E94332F19
:1006E00020E030E0A9010E94852E20E030E0A90141
:1006F0000E94852E20E030E040E450E40E94852EE8
:1007000020E030E040E450E40E94842E0E94002F5C
:100710006F5F7F4FDCCFDF91CF910895CF93DF9351
:1007200080918F03909190030E949E35EC018091FF
:10073000950390919603C6DF809191039091920367
:100740000E949E35019771F48091930390919403D8
:10075000219771F401969093940380939303DF9112
:10076000CF9108958091930390919403CD2B91F3B1
:100770000197F1CFCF93DF93809187039091880306
:100780000E949E35EC0180918D0390918E039ADF3B
:100790008091890390918A030E949E35019771F49C
:1007A00080918B0390918C03219771F40196909323
:1007B0008C0380938B03DF91CF91089580918B03FD
:1007C00090918C03CD2B91F30197F1CFCF93DF93D1
:1007D00080917F03909180030E949E35EC0180916F
:1007E0008503909186036EDF80918103909182034F
:1007F0000E949E35019771F4809183039091840348
:10080000219771F401969093840380938303DF9181
:10081000CF9108958091830390918403CD2B91F320
:100820000197F1CFCF93DF938091890390918A0351
:100830000E949E35EC0180918D0390918E0342DFE2
:1008400080918703909188030E949E35019771F4EF
:1008500080918B0390918C03CD2B71F40196909332
:100860008C0380938B03DF91CF91089580918B034C
:1008700090918C03219791F30197F1CFCF93DF9360
:1008800080918103909182030E949E35EC018091BA
:1008900085039091860316DF80917F0390918003FA
:1008A0000E949E35019771F4809183039091840397
:1008B000CD2B71F401969093840380938303DF9191
:1008C000CF9108958091830390918403219791F3B0
:1008D0000197F1CFCF93DF93809191039091920391
:1008E0000E949E35EC018091950390919603EADE7B
:1008F00080918F03909190030E949E35019771F42F
:100900008091930390919403CD2B71F40196909371
:10091000940380939303DF91CF9108958091930383
:1009200090919403219791F30197F1CF0F931F9327
:10093000CF93DF938C01EC0183E0CC0FDD1F8A9510
:10094000E1F7C158DC4F798368835B834A838881F0
:10095000998160E00E9435358A819B8160E00E9428
:1009600035358881998161E00E9471358A819B814A
:1009700061E00E94713501301105D9F10230110595
:1009800009F466C0012B09F092C080917F03909119
:10099000800302978431910530F5885D9C4FFC01FE
:1009A0008081082E000C990B41E050E06EE374E06A
:1009B0000E942231809181039091820302978431B9
:1009C0009105A0F4885D9C4FFC018081082E000CED
:1009D000990B41E050E066EE73E0DF91CF911F91FB
:1009E0000F910C9422318FEF9FEFDECF8FEF9FEFAF
:1009F000F0CF80918703909188030297843191050D
:100A000008F5885D9C4FFC018081082E000C990B35
:100A100041E050E062E174E00E942231809189035C
:100A200090918A0302978431910578F4885D9C4FF8
:100A3000FC018081082E000C990B41E050E06AEB2C
:100A400073E0CBCF8FEF9FEFE3CF8FEF9FEFF5CF2B
:100A500080918F039091900302978431910508F55E
:100A6000885D9C4FFC018081082E000C990B41E0B1
:100A700050E06AE674E00E942231809191039091E7
:100A8000920302978431910578F4885D9C4FFC01B4
:100A90008081082E000C990B41E050E06EE873E075
:100AA0009CCF8FEF9FEFE3CF8FEF9FEFF5CFDF91DD
:100AB000CF911F910F91089523E0880F991F2A95D8
:100AC000E1F7FC01E158FC4F848195810895CF93B3
:100AD000DF934115510509F450C0EA01DC0112967B
:100AE000ED91FC9180819181A281B3818093DE039D
:100AF0009093DF03A093E003B093E1038481958199
:100B0000A681B7818093DA039093DB03A093DC0383
:100B1000B093DD0380859185A285B3858093D6034C
:100B20009093D703A093D803B093D9038485958578
:100B3000A685B7858093D2039093D303A093D40363
:100B4000B093D5031092CE031092CF031092D0032E
:100B50001092D1038091E303811103C0888188231F
:100B600079F08091940290919502049731F083E09E
:100B700090E09093950280939402DF91CF91089535
:100B80006AE070E080E090E00E94633380E00E94C1
:100B900028188091E2038883DDCFCF93DF9341153E
:100BA000510569F08091940290919502049739F073
:100BB000EA0180E00E9428188091E2038883DF9197
:100BC000CF9108958F3F910509F010F40C941118FE
:100BD0000895089508950E94E517892B21F081E07A
:100BE00090E00C94B03908950C946B18CF93DF9378
:100BF000EC0160919002709191028091920290912B
:100C0000930220E030E040E050EC0E94FC2E88236C
:100C100061F08091900290919102A0919202B09126
:100C2000930288839983AA83BB83DF91CF91089530
:100C3000DDCF08950895CF93DF93EC0189819A81E8
:100C4000AB81BC810197A105B105C1F48D818823D9
:100C5000A9F06A857B858C859D8551DB998788877E
:100C600040E050E0BA0114DB6A857B858C859D8568
:100C700046DB99878887DF91CF91D6CBDF91CF91E3
:100C800008952F923F924F925F926F927F928F9230
:100C90009F92AF92BF92CF92DF92EF92FF920F930B
:100CA0001F93CF93DF93CDB7DEB7CB54D1090FB6E7
:100CB000F894DEBF0FBECDBF26967FAF6EAF2697EE
:100CC00028965FAF4EAF28973E8B2D8B18012C9640
:100CD000FFAEEEAE2C97FB01E150F04CEE0FFF1F84
:100CE000EE0FFF1FE80FF91F80809180A280B38074
:100CF0008F8A988EA98EBA8EB501A401442777FDFC
:100D0000439555276627772729964FAF2997F901ED
:100D1000E150F04CEE0FFF1FEE0FFF1F2896AEAC18
:100D2000BFAC2897EA0DFB1DC080D180E280F38024
:100D3000CB8EDC8EED8EFE8EB701A601442777FDAB
:100D400043955527662777272A964FAF2A97188B02
:100D50000F87F80130E020E02C96EEACFFAC2C972A
:100D60002E153F050CF43FC022969FAF8EAF229701
:100D70003A8A298A812C912C540183948F829886F7
:100D8000A986BA8610E000E026968EAC9FAC269726
:100D9000081519057CF129969FAC29972A96AFACC6
:100DA0002A9741E050E060E070E030E020E09A10E7
:100DB000F4C1C55BDF4F0FB6F894DEBF0FBECDBFE9
:100DC000DF91CF911F910F91FF90EF90DF90CF9027
:100DD000BF90AF909F908F907F906F905F904F905B
:100DE0003F902F90089511921192119211922F5FBE
:100DF0003F4FB2CF2296EEADFFAD229781919191F8
:100E0000A191B1912296FFAFEEAF22978F88988C77
:100E1000A98CBA8CB7FE23C04F81588569857A8525
:100E200041505109610971095A016B01A81AB90AA7
:100E3000CA0ADB0AD601C50121E0CF80D884E98443
:100E4000FA848C159D05AE05BF0508F020E0822EC2
:100E5000912CB12CA12C8F829886A986BA865D012F
:100E6000CC24DD24A8A2B9A2CAA2DBA29C01AD01B8
:100E7000442755272CA33DA34EA35FA32C96EEAD8C
:100E8000FFAD2C97E01BF10B8D889E888E169F0678
:100E90000CF4F4012896AEACBFAC28972496BFAEF4
:100EA000AEAE2497C988DA88DC8ACB8A812C912C53
:100EB000540183948B869C86AD86BE86812C912CB2
:100EC00054011E821D82CD80DE80CE16DF06FCF02E
:100ED000F7FF02C0F0E0E0E0E00FF11F2C96EEAC6F
:100EE000FFAC2C97EE15FF0554F4EE0FFF1FEE0F2D
:100EF000FF1FE20DF31D80829182A282B3820F5FF9
:100F00001F4FE989FA893496FA8BE98B3DCF2496F5
:100F1000AEADBFAD2497CD90DD90ED90FD902496C1
:100F2000BFAFAEAF24972B8D3C8D4D8D5E8D57FF9F
:100F300022C08B859C85AD85BE850197A109B1092D
:100F4000AC01BD014C195D096E097F096A017B0185
:100F500081E02B853C854D855E85C216D306E4066F
:100F6000F50608F080E0482F50E070E060E04B8725
:100F70005C876D877E87B7018827992768A779A73F
:100F80008AA79BA7EE24FF2428A139A14AA15BA12F
:100F9000C701B6010E944E392B013C012CA13DA195
:100FA0004EA15FA168A579A58AA59BA50E944E398F
:100FB0006CA77DA78EA79FA7AB89BC894D915D913A
:100FC0006D917D91BC8BAB8BDB01CA01880D991DA6
:100FD000AA1DBB1D89839A83AB83BC8391E09F8F3D
:100FE00029813A814B815C81281539054A055B05C9
:100FF00008F01F8E2CA13DA14EA15FA1C701B60133
:101000000E944E396B017C0189809A80AB80BC8044
:101010008C0C9D1CAE1CBF1C89829A82AB82BC8248
:1010200052019924882488AA99AAAAAABBAA29812C
:101030003A814B815C81280D391D4A1D5B1D2CAB0B
:101040003DAB4EAB5FAB8CA49DA4AEA4BFA454013A
:101050009924882488AE99AEAAAEBBAE280D391D5E
:101060004A1D5B1D2CAF3DAF4EAF5FAFAB89BC8956
:1010700014972D933D934D935C93139728A139A119
:101080004AA15BA168A579A58AA59BA50E944E39B6
:101090009F8C690D711D811D911D2301662477248C
:1010A000460E571E681E791E2CA53DA54EA55FA5B0
:1010B0004A01AA24BB24840C951CA61CB71C81E001
:1010C00090E0A0E0B0E049815A816B817C814C15B1
:1010D0005D056E057F0518F080E090E0DC01880D6D
:1010E000991DAA1DBB1D41E050E060E070E088A89A
:1010F00099A8AAA8BBA8CCA8DDA8EEA8FFA8C814E8
:10110000D904EA04FB0418F040E050E0BA01840F6F
:10111000951FA61FB71F812C912C54018394C8AC36
:10112000D9ACEAACFBAC2CAD3DAD4EAD5FAD2C15F2
:101130003D054E055F0518F0812C912C5401880E59
:10114000991EAA1EBB1E4D815E814F5F5F4F5E835D
:101150004D83B9CEEF85F889C190D190E190F1909F
:10116000F88BEF87DB01CA010197A109B1098C193E
:101170009D09AE09BF09349780839183A283B3830D
:10118000E1E084179507A607B70708F0E0E04E2FC7
:1011900050E070E060E02F5F3F4F2C968EAC9FAC2C
:1011A0002C9728153905B4F204CE2F923F924F9216
:1011B0005F926F927F928F929F92AF92BF92CF92E7
:1011C000DF92EF92FF920F931F93CF93DF9300D0A4
:1011D0001F92CDB7DEB78B015C834B83FB01E150DF
:1011E000F04CEE0FFF1FEE0FFF1FE80FF91F4081BD
:1011F00051816281738177FD27C04C01B12CA12CF4
:10120000C12CD12C7601A016B10664F5F4016191D0
:101210007191819191914F010E94312F4B815C819D
:101220000E948A309B01AC01C701B6010E94852E45
:101230006B017C012B813C81205E3F4F3C832B83E3
:101240003FEFA31AB30ADFCF9A83898381E090E04E
:10125000A0E0B0E0312C212CC12CD12C760120163D
:101260003106CCF0C701B6010F900F900F900F9090
:10127000DF91CF911F910F91FF90EF90DF90CF9072
:10128000BF90AF909F908F907F906F905F904F90A6
:101290003F902F900895E981FA814190519061909B
:1012A0007190FA83E9834094509460947094530150
:1012B0004201880E991EAA1EBB1EC501B4010E94E0
:1012C000312F4B815C810E948A309B01AC01C701A8
:1012D000B6010E94842E6B017C0181E08414950488
:1012E000A604B70408F080E090E0B0E0A0E02B8115
:1012F0003C81205E3F4F3C832B833FEF231A330A10
:10130000AECFCF92DF92EF92FF926B017C019F777D
:1013100020E030E040E859E50E94FC2E87FF2BC01A
:1013200020E030E040E05FE3C701B6010E94843076
:1013300087FD0EC020E030E040E05FE3C701B6016A
:101340000E94852EFF90EF90DF90CF900C946E2F2F
:1013500020E030E040E05FEBC701B6010E9484303E
:10136000181684F420E030E0A901C701B6010E94FC
:10137000BE306B017C01C701B601FF90EF90DF909A
:10138000CF90089520E030E040E05FE3C701B60170
:101390000E94842EFF90EF90DF90CF900C94E92E66
:1013A000E091D113F091D213ADE6B4E1D8964D910E
:1013B0005D916D917C91DB97408351836283738350
:1013C00014964D915D916D917C911797448355834F
:1013D000668377831C964D915D916D917C911F97EB
:1013E000408751876287738754968D919D910D90A8
:1013F000BC91A02D84879587A687B78708952F92E3
:101400003F924F925F926F927F928F929F92AF9294
:10141000BF92CF92DF92EF92FF920F931F93CF93E1
:10142000DF93CDB7DEB7E6970FB6F894DEBF0FBEF9
:10143000CDBF00915014109151140130110509F0E5
:1014400086C38091381490913914A0913A14B091C8
:101450003B148090401490904114A0904214B0909E
:101460004314C0903C14D0903D14E0903E14F09092
:101470003F148F3F2FEF9207A207B20709F044C332
:10148000C701B6016F5F7F4F8F4F9F4F0E94312F73
:10149000A50194010E94BE3020E030E040E85FE406
:1014A0000E94BE3060935A1370935B1380935C1359
:1014B00090935D13809149138150823008F45FC38B
:1014C00080E0809349130130110509F0A0C0C0905D
:1014D0003002D0903102E0903202F0903302A70146
:1014E0009601609196127091971280919812909146
:1014F00099120E94FC2E882341F0C0929612D0923D
:101500009712E0929812F092991290E080E0D4DA6B
:10151000092E000CAA0BBB0B8093AD149093AE1454
:10152000A093AF14B093B014409158025091590257
:1015300060915A0270915B024D835E836F8378875E
:1015400089839A83AB83BC8332E0E32EF12C01E9DB
:1015500014E121E030E0AE014F5F5F4F61E070E0E9
:10156000CE0105968EDB88E0F801ADE5B4E101908F
:101570000D928A95E1F7C0903802D0903902E09040
:101580003A02F0903B0250E040E062E070E0C801B7
:101590000CDE20E030E040E05FE20E94BE309B01C4
:1015A000AC01C701B6010E94842E6B017C01C09280
:1015B0008D14D0928E14E0928F14F0929014AC019E
:1015C0009B01609100027091010280910202909152
:1015D00003020E94BE306093A1147093A214809302
:1015E000A3149093A414A70196016091280270910E
:1015F000290280912A0290912B020E94BE306093B2
:101600006D1470936E1480936F14909370142091E6
:101610005A1230915B1240915C1250915D126091B0
:10162000A1147091A2148091A3149091A4140E940B
:10163000842E20912002309121024091220250916B
:1016400023020E94BE306B017C01C092A514D0928F
:10165000A614E092A714F092A81420915E12309183
:101660005F12409160125091611260916D147091FF
:101670006E1480916F14909170140E94852EA701B2
:1016800096010E94852E6B017C014B015C01E89460
:10169000B7F88092891490928A14A0928B14B09219
:1016A0008C1440903C0250903D0260903E0270903D
:1016B0003F02AC019B01C301B2010E94FC2E87FDD9
:1016C00012C04090400250904102609042027090DF
:1016D0004302A7019601C301B2010E94843018168B
:1016E00014F026013701009150141091511401306B
:1016F0001105B9F420E030E0A901C301B2010E9454
:10170000843018160CF03DC220E030E040E450E494
:10171000C501B4010E94843018160CF032C2109238
:101720003A1380913A13813009F44BC2823009F4A4
:1017300076C2811127C08091880290918902A09180
:101740008A02B0918B0289879A87AB87BC87809188
:101750008C0290918D02A0918E02B0918F028D87A4
:101760009E87AF87B88B0130110561F480914913D2
:10177000882309F423C2833009F01CC281E090E081
:1017800080934913E89477F86091821270918312E4
:1017900080918412909185120E947F017C01909328
:1017A0008112809380122091440230914502409131
:1017B000460250914702C301B2010E94BE304B0164
:1017C0005C0120E030E04FE753E40E94FC2E87FFED
:1017D00054C220E030E0A901C501B4010E94843068
:1017E00018160CF051C2B501A401C7010E944801AE
:1017F0008091501490915114019709F027C12091C4
:101800008D1430918E1440918F14509190146091EA
:1018100008027091090280910A0290910B020E94C5
:10182000BE3060937114709372148093731490930C
:10183000741469857A858B859C8563DD6B017C01D9
:10184000C0928D14D0928E14E0928F14F092901466
:1018500020E030E040E853E40E94FC2E6FEF87FF69
:101860000EC020E030E0A901C701B6010E9484301B
:1018700060E087FD04C0C701B6010E94052F8EE11C
:101880000E9440016D857E858F8598893ADD6B01C8
:101890007C01C0928D14D0928E14E0928F14F0923D
:1018A000901420E030E040E853E40E94FC2E6FEFFB
:1018B00087FF0EC020E030E0A901C701B6010E94F9
:1018C000843060E087FD04C0C701B6010E94052F87
:1018D0008FE10E944001C0903402D0903502E09028
:1018E0003602F0903702A701960160918C12709138
:1018F0008D1280918E1290918F120E94FC2E88235F
:1019000019F1C701B6010E94E416882309F4C0C189
:1019100060913402709135028091360290913702C5
:101920000E94E4168111C0C18091851490918614A3
:10193000A0918714B091881480938C1290938D128B
:10194000A0938E12B0938F1290E080E0B5D8092E4C
:10195000000CAA0BBB0B8093A9149093AA14A0931C
:10196000AB14B093AC1440915C0250915D02609155
:101970005E0270915F024D835E836F8378878983F7
:101980009A83AB83BC8392E0E92EF12C09E914E140
:1019900021E030E0AE014F5F5F4F61E070E0CE01CB
:1019A00005966FD988E0F801A5E6B4E101900D92A3
:1019B0008A95E1F7C0904802D0904902E0904A022F
:1019C000F0904B0250E040E062E070E0C801EDDBD7
:1019D00020E030E040E05FE20E94BE309B01AC01BD
:1019E000C701B6010E94842E6B017C01C0928D1448
:1019F000D0928E14E0928F14F0929014AC019B015F
:101A00006091040270910502809106029091070294
:101A10000E94BE306093751470937614809377148F
:101A200090937814A701960160912C0270912D0279
:101A300080912E0290912F020E94BE3060937D14FF
:101A400070937E1480937F1490938014209162127F
:101A50003091631240916412509165126091751437
:101A60007091761480917714909178140E94842E4E
:101A700020912402309125024091260250912702A4
:101A80000E94BE306B017C01C0927914D0927A140E
:101A9000E0927B14F0927C142091661230916712D0
:101AA000409168125091691260917D1470917E147A
:101AB00080917F14909180140E94852EA701960139
:101AC0000E94852E4B015C018092891490928A14A9
:101AD000A0928B14B0928C14C0904C02D0904D0206
:101AE000E0904E02F0904F02A70196010E948430D0
:101AF00018160CF0EAC0C0928914D0928A14E092B1
:101B00008B14F0928C14F1C0BC01CD016F5F7F4F3C
:101B10008F4F9F4F0E94312FA50194010E94BE302C
:101B20002B013C01C701B6010E94312FA501940190
:101B30000E94BE3020E030E040E85FE40E94BE300A
:101B40009B01AC01C301B2010E94852EABCC0115F3
:101B5000110509F0AFCCE0918A13F0918B1301903D
:101B6000F081E02D80819181A281B381E0915314B5
:101B7000F091541480839183A283B3839BCC83E040
:101B8000A0CC20E030E0A901C301B2010E94FC2EEC
:101B900087FF0EC020E030E040E450E4C501B4010E
:101BA0000E948430181624F481E080933A13B9CD52
:101BB00082E0FBCF082E000C990BE2CD82E090E092
:101BC000DFCD8091800290918102A0918202B0913C
:101BD000830289879A87AB87BC8780918402909122
:101BE0008502A0918602B09187028D879E87AF877C
:101BF000B88B0130110509F0C5CD809148138823B9
:101C000059F0833029F481E090E080934813BACDF5
:101C1000082E000C990BF9CF82E090E0F6CF80916E
:101C2000780290917902A0917A02B0917B02898723
:101C30009A87AB87BC8780917C0290917D02A091AE
:101C40007E02B0917F028D879E87AF87B88B01306F
:101C5000110509F097CD80914713882359F08330FF
:101C600029F481E090E0809347138CCD082E000C7E
:101C7000990BF9CF82E090E0F6CF812C912C2FE7E1
:101C8000A22E23E4B22EAFCD812C912C5401ABCDEA
:101C90006091340270913502809136029091370242
:101CA0000E942917811134CE80913402909135021F
:101CB000A0913602B09137028093851490938614D8
:101CC000A0938714B09388142FCEC0905002D09068
:101CD0005102E0905202F0905302A7019601C50113
:101CE000B4010E94FC2E87FD06CFE0905014F090C6
:101CF00051144090891450908A1460908B14709005
:101D00008C1491E0E916F104C9F4E894B7F820E0E6
:101D100030E0A901C301B2010E94843018160CF012
:101D2000F6C320E030E040E450E4C501B4010E9475
:101D3000843018160CF0EBC310923B1380913B13C8
:101D4000813009F404C4823009F42FC4811127C002
:101D50008091700290917102A0917202B091730211
:101D6000898B9A8BAB8BBC8B80917402909175029E
:101D7000A0917602B09177028D8B9E8BAF8BB88F3E
:101D8000EA94EF2861F480914613882309F4DCC3B8
:101D9000833009F0D5C381E090E080934613E89446
:101DA00077F84092891450928A1460928B14709242
:101DB0008C146091741270917512809176129091CA
:101DC00077120E947F018C0190937312809372129C
:101DD0002091891430918A1440918B1450918C1465
:101DE0006091540270915502809156029091570271
:101DF0000E94BE306B017C0120E030E04FE753E4ED
:101E00000E94FC2E87FFFFC320E030E0A901C7013C
:101E1000B6010E94843018160CF0FCC3B701A6016D
:101E2000C8010E944801809150149091511401976B
:101E300009F06CC020918D1430918E1440918F1454
:101E40005091901460910C0270910D0280910E02DD
:101E500090910F020E94BE3060938114709382149F
:101E6000809383149093841469897A898B899C89DF
:101E700048DA6B017C01C0928D14D0928E14E092EE
:101E80008F14F092901420E030E040E853E40E9478
:101E9000FC2E6FEF87FF0EC020E030E0A901C701E4
:101EA000B6010E94843060E087FD04C0C701B6011E
:101EB0000E94052F80E20E9440016D897E898F89F2
:101EC000988D1FDA6B017C01C0928D14D0928E1414
:101ED000E0928F14F092901420E030E040E853E458
:101EE0000E94FC2E6FEF87FF0EC020E030E0A901BA
:101EF000C701B6010E94843060E087FD04C0C701BD
:101F0000B6010E94052F81E20E9440018091501489
:101F100090915114019709F0E1C282E090E00E9493
:101F2000EA05E0915314F09154144081518162818B
:101F3000738190E080E00E94E205809150149091BE
:101F40005114019709F0CAC2609148147091491464
:101F500080914A1490914B140E94312F20E030E080
:101F600040E85FE40E94BE306B017C016091441444
:101F70007091451480914614909147140E94312F1E
:101F80009B01AC01C701B6010E94852E2FE632E10C
:101F900043E85AE30E94BE30AB01BC0181E090E00F
:101FA0000E94E2058091501490915114019709F01C
:101FB00095C280904C1490904D14A0904E14B09007
:101FC0004F1420E030E040E85FEBC501B4010E940F
:101FD000FC2E882309F448C060914814709149147C
:101FE00080914A1490914B140E94312F20E030E0F0
:101FF00040E85FE40E94BE306B017C0160914414B4
:102000007091451480914614909147140E94312F8D
:102010009B01AC01C701B6010E94852E2FE632E17B
:1020200043E85AE30E94BE306B017C01AC019B0186
:10203000C501B4010E94842E4B015C0120E030E018
:1020400040E054E3C701B6010E94BE309B01AC01E1
:10205000C501B4010E948430181634F08CE393E07B
:1020600090934B1380934A1380915214882331F03C
:102070008CE393E090934B1380934A13E0918A137F
:10208000F0918B130190F081E02D80819181A281EC
:10209000B3818F8F98A3A9A3BAA380915A1390916B
:1020A0005B13A0915C13B0915D138FA798ABA9ABA4
:1020B000BAABE0915E13F0915F1380809180A280B3
:1020C000B380E0918E13F0918F1370806180E09166
:1020D0005213F091531320803180528043809481B9
:1020E000998FA581ABA3B681BDA727812EA7E091CB
:1020F0005013F09151131182108280E1E72DF62DDB
:10210000D10101900D928A95E1F7E0918813F09149
:1021100089135082418244D920E030E040E05FE3FF
:10212000C501B4010E94BE306B017C0138A62FA20C
:102130005D8E4E8E7D8A6E8A8101005F1F4F7D8687
:102140006E8659864A863A8A298AE989FA8981916E
:102150009191A191B191FA8BE98B89A79AA7ABA72D
:10216000BCA7A985BA852D913D914D915D91BA8706
:10217000A987C701B6010E94BE3029A53AA54BA583
:102180005CA50E94852EED85FE85619371938193F8
:102190009193FE87ED8789899A8908171907A9F60F
:1021A000E0918A13F0918B1300811181A7019601B0
:1021B0006F8D78A189A19AA10E94852ED8016D9377
:1021C0007D938D939C931397E0918813F0918913DD
:1021D000B98DB0832BA1218312D9E2D820E030E061
:1021E000A901C501B4010E94BE3069A77AA78BA7D7
:1021F0009CA720E030E040E45FE3C501B4010E9409
:10220000BE306B017C01898D8D879BA19E87072D38
:10221000162DAD85BE85BA8FA98F59864A86F101E4
:1022200081919191A191B1911F018BA39CA3ADA329
:10223000BEA3A985BA856D917D918D919D91BA8737
:10224000A987E98DFA8D4190519061907190FA8F34
:10225000E98F29A53AA54BA55CA50E94BE306BABC2
:102260007CAB8DAB9EABA7019601C301B2010E946E
:10227000BE309B01AC016BA97CA98DA99EA90E94CF
:10228000852E2BA13CA14DA15EA10E94852ED801D7
:102290006D937D938D939D938D01E989FA89E21564
:1022A000F30509F0BCCFE0918A13F0918B13008104
:1022B0001181A70196016F8D78A189A19AA10E9431
:1022C000852ED8016D937D938D939C931397E09108
:1022D0008813F0918913BDA5B0832EA521838FD8D3
:1022E0005FD829E33EE843E65EE3C501B4010E94FE
:1022F000BE30698B7A8B8B8B9C8B2BEA3AEA4AEA4D
:102300005EE3C501B4010E94BE306F8F78A389A33C
:102310009AA329E33EE843EE5EE3C501B4010E94BF
:10232000BE30698F7A8F8B8F9C8F0DA51EA5EFA174
:10233000F8A581919191A191B191F8A7EFA3898717
:102340009A87AB87BC87AD8DBE8D6D917D918D9148
:102350009D91BE8FAD8FED85FE854190519061902E
:102360007190FE87ED87D801CD90DD90ED90FD90C6
:102370008D0129893A894B895C890E94BE304B01C5
:102380005C012F8D38A149A15AA1C301B2010E945D
:10239000BE309B01AC01C501B4010E94852E4B01EA
:1023A0005C01298D3A8D4B8D5C8DC701B6010E9471
:1023B000BE309B01AC01C501B4010E94852E298568
:1023C0003A854B855C850E94852EED89FE89619357
:1023D000719381939193FE8BED8B8FA198A5281615
:1023E000390609F0A4CFE0918A13F0918B13019084
:1023F000F081E02D8FA598A9A9A9BAA9808391831E
:10240000A283B383E0915013F091511381E090E0E7
:10241000918380838091381490913914A0913A145B
:10242000B0913B140196A11DB11D80933814909377
:102430003914A0933A14B0933B14892B8A2B8B2B1D
:1024400099F480913C1490913D14A0913E14B09168
:102450003F140196A11DB11D80933C1490933D142F
:10246000A0933E14B0933F1480915A1390915B1344
:10247000A0915C13B0915D13E0915314F09154144A
:1024800080839183A283B3838091441490914514F7
:10249000A0914614B09147140196A11DB11D8093DF
:1024A000441490934514A0934614B0934714892B79
:1024B0008A2B8B2B99F48091481490914914A09108
:1024C0004A14B0914B140196A11DB11D809348147C
:1024D00090934914A0934A14B0934B14E6960FB608
:1024E000F894DEBF0FBECDBFDF91CF911F910F914A
:1024F000FF90EF90DF90CF90BF90AF909F908F9024
:102500007F906F905F904F903F902F90089520E0C4
:1025100030E0A901C301B2010E94FC2E87FF0EC06A
:1025200020E030E040E450E4C501B4010E94843072
:10253000181624F481E080933B1300CC82E0FBCF9B
:10254000082E000C990B29CC82E090E026CC8091DB
:10255000680290916902A0916A02B0916B02898B26
:102560009A8BAB8BBC8B80916C0290916D02A09189
:102570006E02B0916F028D8B9E8BAF8BB88FEA94F9
:10258000EF2809F00CCC80914513882359F0833053
:1025900029F481E090E08093451301CC082E000CD3
:1025A000990BF9CF82E090E0F6CF80916002909194
:1025B0006102A0916202B0916302898B9A8BAB8B0E
:1025C000BC8B8091640290916502A0916602B091EB
:1025D00067028D8B9E8BAF8BB88FEA94EF2809F042
:1025E000DECB80914413882359F0833029F481E0B5
:1025F00090E080934413D3CB082E000C990BF9CFB5
:1026000082E090E0F6CFC12CD12C8FE7E82E83E456
:10261000F82E04CCC12CD12C760100CC4F925F92C5
:102620006F927F928F929F92AF92BF92EF92FF92A2
:102630000F931F93CF93DF9384E090E08ED3EAE46F
:10264000F3E183E191E0DF01EC011D922197E9F7CD
:1026500080E594E1909351138093501383E594E1C6
:1026600090938B1380938A1380E494E190935F138B
:1026700080935E1381ED93E1909389138093881387
:102680008BEC93E190938F1380938E1380E394E10E
:1026900090938D1380938C1382E394E19093911324
:1026A000809390138DEC93E1909393138093921306
:1026B0008FEC93E19093951380939413F093B5135B
:1026C000E093B413F0934F13E0934E1381E090E046
:1026D000909351148093501488ED93E190931914C2
:1026E0008093181488EE93E190931B1480931A142E
:1026F00088EF93E190931D1480931C1488E094E17B
:1027000090931F1480931E14EAE5F2E1F093CC132A
:10271000E093CB1388E194E1909353138093521389
:1027200080E593E0909355138093541325E534E1AD
:10273000309354142093531480E090E5A3ECB7E455
:1027400080934C1490934D14A0934E14B0934F1457
:102750008FE692E1A3E8BAE380934014909341148A
:10276000A0934214B093431481E89EEAACE5B1EC27
:102770008093201490932114A0932214B0932314D7
:1027800087E49EE3AEE5BAE1809324149093251488
:10279000A0932614B09327148FE396E7AEE4B8E92C
:1027A0008093281490932914A0932A14B0932B1487
:1027B00086E091E0AFE3B1EF80932C1490932D1459
:1027C000A0932E14B0932F1485EB93E090934D13A8
:1027D00080934C1387E993E09093B6038093B503FD
:1027E00085E593E0909398038093970390939A03E1
:1027F0008093990390939C0380939B0390939E03F3
:1028000080939D039093A00380939F0347E453E13B
:102810005093A2034093A10348E453E15093A403CF
:102820004093A30349E453E15093A6034093A503C7
:102830009093A8038093A7039093AA038093A9037E
:102840009093AC038093AB039093AE038093AD035E
:1028500084E493E19093B0038093AF0385E493E124
:102860009093B2038093B10386E493E19093B40311
:102870008093B30386E394E19093BA038093B90302
:1028800080E294E19093B8038093B7033093BC0344
:102890002093BB03ADE6B4E184E4ED0119928A957F
:1028A000E9F780E1DF01C82F1D92CA95E9F7EAE652
:1028B000F2E190EEDF011D929A95E9F7EDE5F4E182
:1028C000EF0119928A95E9F7C1E0C0934013809116
:1028D000300290913102A0913202B0913302809384
:1028E000961290939712A0939812B0939912812CFC
:1028F000912C540183948092911290929212A09202
:102900009312B092941243E050E062E070E090E0E5
:1029100080E00E949604C09395128FEF80933A1343
:1029200010927812C093411322E32093EA1293E3AA
:102930009093EB1284E38093EC1285E38093ED1285
:1029400086E38093EE1287E38093EF1288E380930F
:10295000F01289E38093F11281E38093F21230E365
:102960003093F3128093F4128093F5128093F61251
:102970002093F7128093F8129093F9128AEE92E165
:1029800090937F1280937E1285E090E0A0E0B0E00B
:102990008093821290938312A0938412B093851235
:1029A00010927D128092791290927A12A0927B12EC
:1029B000B0927C12E12CF12C8701A801970165E00F
:1029C00070E080E090E00E94C301909381128093B8
:1029D0008012609182127091831280918412909182
:1029E00085120E947F0190938112809380120E9431
:1029F0004701C0937D1210922A13C0934213809214
:102A00002B1390922C13A0922D13B0922E1361E0F1
:102A10008EE10E943801C0932F1310923213C0939D
:102A200043138092331390923413A0923513B092D3
:102A3000361361E08FE10E943801C0933713109282
:102A40008612C0933C1360913402709135028091DC
:102A5000360290913702B8D1882309F40BC16091F6
:102A60003402709135028091360290913702ACD1D8
:102A700081110BC140928C1250928D1260928E1275
:102A800070928F12812C912C540183948092871222
:102A900090928812A0928912B0928A1243E350E079
:102AA00062E370E090E080E00E949604C1E0C09391
:102AB0008B128FEF80933B1310926A12C0933D13D9
:102AC00022E32093AA1293E39093AB1284E38093C2
:102AD000AC1285E38093AD1286E38093AE1287E358
:102AE0008093AF1288E38093B01289E38093B11290
:102AF00081E38093B21230E33093B3128093B41227
:102B00008093B5128093B6122093B7128093B812B7
:102B10009093B9128AEA92E19093711280937012A5
:102B200086E090E0A0E0B0E080937412909375127C
:102B3000A0937612B093771210926F1280926B125C
:102B400090926C12A0926D12B0926E12E12CF12C48
:102B50008701A801970166E070E080E090E00E94A4
:102B6000C3019093731280937212609174127091EA
:102B7000751280917612909177120E947F01909346
:102B80007312809372120E944701C0936F121092C9
:102B90001A13C0933E1380921B1390921C13A092A1
:102BA0001D13B0921E1361E080E20E943801C093B1
:102BB0001F1310922213C0933F13809223139092FD
:102BC0002413A0922513B092261361E081E20E94A3
:102BD0003801C09327138091100290911102A091A7
:102BE0001202B091130280935A1290935B12A09339
:102BF0005C12B0935D128091180290911902A0911D
:102C00001A02B0911B0280935E1290935F12A09300
:102C10006012B09361128091140290911502A091FC
:102C20001602B09117028093621290936312A093E0
:102C30006412B093651280911C0290911D02A091C4
:102C40001E02B0911F028093661290936712A093A8
:102C50006812B0936912DF91CF911F910F91FF908D
:102C6000EF90BF90AF909F908F907F906F905F900C
:102C70004F90089560913402709135028091360230
:102C800090913702E6D08111EACE40903402509004
:102C900035026090360270903702ECCE809190122F
:102CA000811103C081E0809390128091781281118C
:102CB00007C081E08093781288E792E10E941B06AA
:102CC00080912A13811103C081E080932A1380919F
:102CD0003213811103C081E08093321380918612F8
:102CE000811103C081E08093861280916A12811164
:102CF00007C081E080936A128AE692E10E941B0677
:102D000080911A13811103C081E080931A1380917E
:102D10002213811103C081E080932213089560E0A3
:102D200070E080E89FE7089560E070E080E89FE74A
:102D3000089560E070E080E89FEF089560E070E043
:102D400080E89FEF089560E070E080EC9FEF0895C9
:102D500060E070E080EC9FEF0895F5DF6093BD14B4
:102D60007093BE148093BF149093C014F1DF6093EE
:102D7000B1147093B2148093B3149093B414CFDF52
:102D80006093B9147093BA148093BB149093BC14DD
:102D9000CBDF6093B5147093B6148093B7149093FF
:102DA000B814C7DF6093C1147093C2148093C31426
:102DB0009093C414C3DF6093C5147093C6148093BA
:102DC000C7149093C8140895CF92DF92EF92FF92A8
:102DD000CF936B017C01AC019B016091B9147091A0
:102DE000BA148091BB149091BC140E94FC2EC1E0D7
:102DF000882371F0A70196016091C1147091C214EB
:102E00008091C3149091C4140E94FC2E8111C0E0E3
:102E10008C2FCF91FF90EF90DF90CF9008950F937C
:102E20001F938B019C010027112720783F77011504
:102E3000110520483F4749F4AB01BC016F77772764
:102E400081E0452B462B472B09F480E01F910F9121
:102E50000895E5CF4F925F926F927F928F929F92EB
:102E6000AF92BF92CF92DF92EF92FF926B017C0103
:102E70004130510509F082C020E030E04AE754E4D7
:102E80000E94BE304B015C0120E030E040E85FE48E
:102E90000E94882F0E94052F2B013C0120E030E08A
:102EA00040E85FE4C501B4010E94843018160CF0BC
:102EB00088C020E030E040E85FE2C501B4010E9434
:102EC000BE300E94052FF8944092C5035092C6036D
:102ED0006092C7037092C8036093C9037093CA03DA
:102EE0008093CB039093CC036091900270919102F8
:102EF000809192029091930220E030E040E85FEBF5
:102F00000E94FC2E882389F16091900270919102B9
:102F1000809192029091930220E030E040E050ECEA
:102F20000E94FC2E882309F1609190027091910219
:102F30008091920290919302A70196010E94842EA3
:102F40004B015C0120E030E040E054E3C701B601F2
:102F50000E94BE309B01AC01C501B4010E94FC2E51
:102F6000881F8827881F8093CD03C092C103D09209
:102F7000C203E092C303F092C403789420E034E2E9
:102F800044E759E4C701B6010E94BE3020E030E0BA
:102F900040E05FE30E94852E20E030E040E85FE4FF
:102FA0000E94882F0E94052FFF90EF90DF90CF9016
:102FB000BF90AF909F908F907F906F905F904F9059
:102FC000089560E070E0CB017ECFCF93DF9300D017
:102FD0001F92CDB7DEB71C821B821A821982BE01F6
:102FE0006F5F7F4FCE0103960E94B32C69817A8177
:102FF0008B819C810E948026009761F4BE016F5FE7
:103000007F4FCE0103960E94BF2C69817A818B810C
:103010009C8141D10F900F900F900F90DF91CF9135
:103020000895CF93DF939C018F3F910509F058F4E9
:10303000CB01BA01E901A9010DDFAB01BC01CE0151
:10304000DF91CF917DC28FEF9FEFDF91CF910895F8
:103050001F93CF93DF93D82F60E070E0CB010E94E5
:10306000633311E00E946B25009751F0C0E08E3F62
:103070002FEF920731F0DD2319F121E030E028C075
:10308000C1E021D1009721F08E3F3FEF930799F7E0
:10309000C1111AC0C1E0029609F4C0E00E941D25CA
:1030A000009721F08E3F3FEF930729F721E0C111F0
:1030B00005C08E3F3FEF930709F420E0D11106C011
:1030C000DF91CF911F910895C1E0E8CF212730E033
:1030D000232B41F2F5CFCF93DF9381E090E09093E3
:1030E00095028093940233D2D0E0C0E0892B71F036
:1030F0006AE070E080E090E00E94633381E0A8DF46
:1031000026D22196C03D27E0D20781F725D20E9422
:10311000D4261092E3031092E203109295021092CB
:1031200094021092DE031092DF031092E0031092DB
:10313000E1031092DA031092DB031092DC03109289
:10314000DD031092D6031092D7031092D803109289
:10315000D9031092D2031092D3031092D403109289
:10316000D5031092CE031092CF031092D003109289
:10317000D10340E050E060E070EC40939002509347
:10318000910260939202709393021092CD03E5EC4A
:10319000F3E028E0DF011D922A95E9F71092C103C0
:1031A0001092C2031092C3031092C403DF91CF9117
:1031B000089582E090E0FA01918380838FEF9FEF82
:1031C0000895CF93DF93EA01009711F00E94DF2763
:1031D0001982188290E080E0DF91CF910895DB01A1
:1031E000009719F48FEF8C9308952EEF2C93FC0128
:1031F0003C96EB30F105C8F48827EE5FF64E8F4F12
:103200000C947F3926192419201922191E191C190A
:103210001A19171911190D19131980E311968C93A6
:10322000089589E2FBCF82E2F9CF80E2F7CF1196D1
:103230001C92089583E2F2CF81E2F0CF81E1EECFDC
:1032400087E2ECCF8AE2EACF80E1E8CF84E2E6CF02
:103250008091F8039091F90308959093F903809376
:10326000F80308958091F70308959091F703892B4F
:103270008093F7030895982F90958091F703892301
:103280008093F70308958091F60308958091F403E5
:103290009091F50308958091FA03811111C084EE95
:1032A00093E023D28CEE93E00E94CF2188EE93E04E
:1032B0000E948C2481E08093FA0390E080E00895DE
:1032C00084EF9FEF08957F928F929F92AF92BF926B
:1032D000CF92DF92EF92FF920F931F93CF93DF93E2
:1032E00000D000D000D01F92CDB7DEB71A86198665
:1032F00018861F821E821D821C821B821A821982DE
:103300008091FA0307EF1FEF882309F4C2C08E01F2
:103310000D5F1F4F9E012B5F3F4FAE01495F5F4F17
:10332000BE01675F7F4F90E080E00E9405268C0120
:10333000009721F00596029708F0FAC089859A85D2
:10334000009709F4F3C06D817E812B813C81260FAB
:10335000371F4F8158854217530708F4E7C06C01A7
:10336000C60ED71EF60140812091F8033091F90373
:10337000232B09F4A3C0413F68F52CE1240F2D3025
:1033800060F12DE2240F203158F128E3240F2B3077
:1033900008F03FC023E030E0220F331F220F331F1D
:1033A000F901EC51FC4F82809380A081B181F12C16
:1033B000E12CF0E0E0E030E020E0712CA42EB12C14
:1033C0008216930621F1772071F0309741F504EFD2
:1033D0001FEFAEC030E020E0DFCF21E030E0DCCFF7
:1033E00022E030E0D9CF4D915C911197A416B5063B
:1033F00051F41296ED91FC9113971496ED90FC9078
:103400001597772473942F5F3F4F1696D9CF71107D
:10341000DCCF2FEEE22E28E1F22EE9EDF8E1AE014D
:103420004F5F5F4F19955C01E114F10491F18980C0
:103430009A808114910469F18B819C81881599058A
:1034400008F44FC010E000E04B815C8170E060E068
:10345000C6010E94A93901151105D9F449815A8183
:1034600069857A858D819E81680F791FC501F70175
:10347000199509811A812D813E814F815885698571
:103480007A8581E090E00E94A2258C01892B09F0C9
:103490004FC0C8012A960FB6F894DEBF0FBECDBF4D
:1034A000DF91CF911F910F91FF90EF90DF90CF9020
:1034B000BF90AF909F908F907F900895F12CE12C5A
:1034C000E1EEF8E14F3F09F0AACFA091E403B091FB
:1034D000E5031296ED91FC9113971496ED90FC90F4
:1034E00074CF0E94CF268C0189859A850E94DF27A0
:1034F00070E060E0C4010E94682698878F830E9474
:103500009F259E838D836F8178856115710559F0A4
:10351000C8010E9412299A87898706EF1FEF892B1D
:1035200009F090CF91CF08EF1FEF8ECF08EF1FEF7C
:1035300089859A85009709F4ACCF0E94DF27A9CF2F
:103540002091FA03211140C787EF9FEF08958091E2
:10355000F8039091F90308950E9496240E94102484
:10356000CED0E4EEF3E080E1DF011D928A95E9F729
:103570001092FA0390E080E0089586E090E0FA016E
:103580009183808390E080E00895FF920F931F93D2
:10359000CF93DF938A01EC01C60FD71FF9800E94F9
:1035A000B726F816190668F082E090E0F8019183DA
:1035B00080838EEF9FEFDF91CF911F910F91FF904E
:1035C000089589818093FB0390E00196F80191832F
:1035D000808390E080E0EFCFCF93DF93EA010E94F9
:1035E000C42682E090E0998388838BEF9FEFDF9180
:1035F000CF910895CF93DF93EB0186E0FB01119209
:103600008A95E9F78FEF88832DDE89833CDE8A83F4
:103610003DDE9D838C83DF91CF910895CF93DF931F
:10362000EA010E943723811109C082E090E099836A
:10363000888385EF9FEFDF91CF91089590E080E040
:103640000CDE81E090E09983888390E080E0F3CF06
:103650000F931F93CF93DF93EA018C01060F171F7F
:103660000E94372381110BC082E090E09983888308
:1036700085EF9FEFDF91CF911F910F910895F80192
:103680008181823038F082E090E0998388838EEFE8
:103690009FEFF0CF81E090E0E0DD88E090E099835B
:1036A000888390E080E0E6CFCF93DF930097D1F45A
:1036B000EB01FB01329686E0DF011D928A95E9F766
:1036C0008FEF888385E089831A820E94B7268B83D7
:1036D0000E94B6269D838C8381E08E838F83DF9149
:1036E000CF910895DF91CF917ACD26E932E0FC01A8
:1036F0003183208327E030E03383228308950895C7
:103700008091FC039091FD030895411105C061155E
:1037100071058105910561F06093FC037093FD03D1
:103720008093FE039093FF034093000481E008958B
:1037300080E00895FF920F931F93CF93DF938A0148
:10374000EC01C60FD71FF9800E94B726F81619069C
:1037500068F082E090E0F801918380838EEF9FEF24
:10376000DF91CF911F910F91FF9008956C817D8122
:103770008E819F814B81C9DF811108C082E090E07A
:10378000F8019183808384EF9FEFEACF8981809352
:10379000FB0390E00196F8019183808390E080E044
:1037A000DFCFCF93DF93EA01FC01E60FF71F6481BF
:1037B0007581868197814381A8DF811109C082E0EC
:1037C00090E09983888384EF9FEFDF91CF910895F4
:1037D00081E090E09983888390E080E0F6CFECEF81
:1037E000F3E04081518162817381480F511D611D59
:1037F000711D40835183628373830895CF93209119
:10380000FC033091FD034FEFFC014083211531058E
:1038100089F0C091FB034C2F50E0FA013196E61776
:10382000F70741F4B90101960E94A0398C2FD7DF28
:103830001092FB03CF9108959B01009719F4BA01F0
:10384000C901DCCFCCCC9B01009719F4BA01C901A6
:10385000D5CFC5CC2DE0AC01249FC001259F900D94
:103860001124E0910304F0910404E80FF91F23816F
:1038700034812250310981E02230310508F080E0A6
:1038800008950F931F93CF93DF9300910504109138
:103890000604D0E0C0E080E00C171D0749F491E079
:1038A000811190E0892FDF91CF911F910F910895A1
:1038B0008111F5CFCE01CEDF2196EECFA09103048A
:1038C000B0910404109729F1209105043091060469
:1038D00082179307F0F45DE0589F9001599F300DD7
:1038E0001124A20FB31FED91FC911197309789F02D
:1038F00012968C91681768F485E0689FE00DF11DC1
:10390000112480819181892B21F081E092814917D6
:1039100008F080E00895EF92FF920F931F93CF93EA
:10392000DF93EA01FC01E60FF71F02811381E480B7
:10393000F5804F2D6E2DC801C1DF81110DC082E0D1
:1039400090E0998388838EEF9FEFDF91CF911F9155
:103950000F91FF90EF900895C8017CDF882339F024
:1039600082E090E09983888388EF9FEFEECF1093F9
:10397000030300930203E0920403F092050381E045
:1039800090E09983888390E080E0DFCFCF92DF9250
:10399000EF92FF920F931F93CF93DF937A01EC0185
:1039A000C60FD71FC0900203D090030300910403F9
:1039B00010910503412F602FC60180DF811110C0D7
:1039C00082E090E0F701918380838AEF9FEFDF919F
:1039D000CF911F910F91FF90EF90DF90CF900895BE
:1039E000C60138DF882341F082E090E0F70191833F
:1039F000808388EF9FEFEBCF4C815D816E817F816B
:103A00009A8189818F3F41F082E090E0F7019183B4
:103A100080838EEF9FEFDBCFEDE0EC9D9001ED9D7D
:103A2000300D1124E0910304F0910404E20FF31F20
:103A30000190F081E02D25E0029FE00DF11D1124A1
:103A40000190F081E02D27E0129FE00DF11D11247F
:103A5000808391838B8182834383548365837683C0
:103A60001F5F1093050381E090E0F701918380834D
:103A700090E080E0ACCFEF92FF920F931F93CF9333
:103A8000DF937A018C01060F171FC0910304D091B8
:103A90000404209781F021E030E0F80182819381D5
:103AA00040910504509106048417950710F030E00A
:103AB00020E0232B71F482E090E0F7019183808372
:103AC0008EEF9FEFDF91CF911F910F91FF90EF90BD
:103AD00008954DE0489F9001499F300D1124C20F79
:103AE000D31FB8DE882341F082E090E0F701918394
:103AF000808388EF9FEFE6CFF8012481358120385D
:103B00003105C8F687818111D6CF4181842F90E09D
:103B10008F7E009741F082E090E0F70191838083EF
:103B200086EF9FEFCFCF4F833E832D83268128875B
:103B30001986223010F421E0288721E030E0F701D7
:103B400031832083BFCF88E090E0FA0191838083A6
:103B500090E080E00895FB018FEF808381E1818315
:103B60008FEF9FEF9383828380E890E09583848337
:103B7000168217820895FB018FEF808391E0918375
:103B800082839383848384E3858381E090E09783B9
:103B9000868308958F929F92BF92CF92DF92EF9289
:103BA000FF920F931F93CF93DF93EA01FC01E60F7F
:103BB000F71F828193810481B580E0910304F09125
:103BC0000404309791F482E090E0998388838CEF2D
:103BD0009FEFDF91CF911F910F91FF90EF90DF90BA
:103BE000CF90BF909F908F900895209105043091C1
:103BF00006048217930738F082E090E09983888367
:103C00008EEF9FEFE6CF2DE0289F6001299FD00C1B
:103C10001124EC0DFD1DE080F180E114F10499F216
:103C20008281081748F785E0089F80011124E00E83
:103C3000F11EF70180819181892B29F6F7E0BF9E63
:103C400040011124C4010E949227F70191838083CF
:103C5000E0910304F0910404EC0DFD1D0190F0814E
:103C6000E02DE00FF11F80819181009739F482E00F
:103C700090E0998388838DEF9FEFABCFA40170E034
:103C800060E00E94A9398091030490910404C80E59
:103C9000D91EF60180819181080F191FF801B282A7
:103CA00081E090E09983888390E080E092CFBF929A
:103CB000CF92DF92EF92FF920F931F93CF93DF93F8
:103CC000EA01FC01E60FF71F82819381B480009125
:103CD0000304109104040115110581F482E090E0C1
:103CE000998388838CEF9FEFDF91CF911F910F9184
:103CF000FF90EF90DF90CF90BF9008952091050442
:103D0000309106048217930738F082E090E099839F
:103D100088838EEF9FEFE8CF2DE0289F7001299FC9
:103D2000F00C11240E0D1F1DF80180819181892B4B
:103D3000A9F6F5E0BF9E60011124C6010E949227FA
:103D4000F80191838083E0910304F0910404EE0D67
:103D5000FF1D80819181009739F482E090E0998382
:103D600088838DEF9FEFC0CFA60170E060E00E94D6
:103D7000A939E0910304F0910404EE0DFF1DB28215
:103D800081E090E09983888390E080E0ADCFCF928E
:103D9000DF92EF92FF920F931F93CF93DF93860FE3
:103DA000971FFC01E280F38080910304909104044A
:103DB000892B81F082E090E0FA01918380838CEF7F
:103DC0009FEFDF91CF911F910F91FF90EF90DF90C8
:103DD000CF9008958A018DE08E9D60018F9DD00C5B
:103DE0001124C6010E949227EC01009741F482E061
:103DF00090E0F801918380838DEF9FEFE2CFA601E1
:103E000070E060E00E94A939D0930404C0930304D9
:103E1000F0920604E092050490E080E02FEF3FEF7F
:103E20008E159F0541F481E090E0F8019183808335
:103E300090E080E0C6CF3C872B8701962D96F0CF8F
:103E4000CF92DF92EF92FF920F931F93CF93DF9366
:103E5000EC01D12CC12C10E000E0F12CE12C8A8186
:103E60008017110609F0BCF4AE01455F5F4F63E0B7
:103E700070E0C7010E94FD27009721F02FEF3FEF70
:103E80003C872B87DF91CF911F910F91FF90EF908F
:103E9000DF90CF900895E881F981EC0DFD1D8381BD
:103EA00094810115110571F0019661E070E010D761
:103EB000E816F90608F47C010F5F1F4F85E0C80E75
:103EC000D11CCDCF0596F1CF8F929F92AF92BF922A
:103ED000CF92DF92EF92FF920F931F93CF93DF93D6
:103EE000EA01FC01E60FF71F8181833098F082E040
:103EF00090E09983888386EF9FEFDF91CF911F91A8
:103F00000F91FF90EF90DF90CF90BF90AF909F9078
:103F10008F9008958091030490910404892B61F09F
:103F200081E090E02091050430910604232B11F4E8
:103F300090E080E0892B39F482E090E099838883D7
:103F40008EEF9FEFDACFF8948091010490910204F4
:103F5000892B09F4A4C0789482E090E09983888347
:103F600085EF9FEFCACF63817481672B11F0348393
:103F7000238301963D9648175907A9F781E090E001
:103F80006CD980E478D983C08091030490910404B3
:103F9000800F911FFC01438154814230510571F41F
:103FA000F2E0CF16D104E104F10444F4FC014385AE
:103FB00054854F3F5F4F11F443DF9C014FEFC41A0C
:103FC000D40AE40AF40A035F1F4F8091050490911C
:103FD0000604B0E0A0E0C816D906EA06FB06B4F471
:103FE0002115310589F27894232B09F451C082E020
:103FF00090E0998388838DEF9FEF7FCF10E000E002
:1040000030E020E0C12CD12C7601DFCF2115310525
:1040100051F710E000E0812C912C540183E0E82E50
:10402000F12C18C0E0910304F0910404E00FF11F9B
:1040300083819481029739F4F482E38282E090E0F4
:104040000CD980E412D96FEF861A960AA60AB60A2E
:10405000035F1F4F8091050490910604B0E0A0E03B
:1040600088169906AA06BB06ECF230E020E0BBCF2A
:10407000638174816230710511F434832383019666
:104080003D9648175907A1F7FCDB811177CF78944B
:1040900081E090E09983888390E080E02ECF818159
:1040A000813009F4ABCF78F0823089F74091050474
:1040B00050910604E0910304F091040490E080E044
:1040C00021E030E0DECF4091050450910604E091FC
:1040D0000304F091040490E080E021E030E04BCF55
:1040E0004F925F926F927F928F929F92AF92BF9208
:1040F000CF92DF92EF92FF920F931F93CF93DF93B4
:104100003C01660E771EF301C280D380C091030488
:10411000D0910404209741F091E020910504309162
:104120000604C216D30608F090E0911118C082E090
:1041300090E0FA01918380838EEF9FEFDF91CF9122
:104140001F910F91FF90EF90DF90CF90BF90AF90B5
:104150009F908F907F906F905F904F9008958DE02B
:104160008C9D90018D9D300D1124C20FD31FF30142
:104170008181833040F082E090E0FA019183808376
:1041800086EF9FEFDBCF2A012B813C81232BF1F4BB
:10419000288139814F8141FF34C0232B09F48AC023
:1041A000309108042A81432F420F5527551FBA0129
:1041B00041E050E06038710514F050E040E0452BDC
:1041C00009F478C03A87230F209308048150823085
:1041D00008F47FC0F8948091010490910204892B27
:1041E00009F07CC0F3018181813009F491C008F4A9
:1041F0007EC0823009F089C082E090E09C838B838E
:1042000084C0232B09F456C0309107042A81E32F80
:10421000E20FFF27FF1F41E050E0E038F10514F006
:1042200050E040E0452B09F445C03A87230F209326
:104230000704CCCFA881B981A00FB11FED91FC91EB
:1042400011973097B9F121E030E012968C918111ED
:1042500002C030E020E0232B69F190E0F12CE12C4A
:1042600030E020E0281739076CF14701F5E08F0EA8
:10427000911C7CD59C0191E02815390508F490E04B
:10428000A8014B5F5F4F28153905A0F028813981BF
:10429000020F131FF801F482E382FFEFAF1ABF0A87
:1042A0008A018A818A151B0409F00CF493CF9111BD
:1042B000C1CF90CF82E090E0F2019183808387EFBD
:1042C0009FEF3CCF4181E40EF11C2F5F3F4F3796AB
:1042D000C9CF10E000E0B12CA12CE3CF789482E0AC
:1042E00090E0F2019183808385EF9FEF27CF81E0FB
:1042F00090E09C838B83C5DA882339F081E090E0DD
:104300000E942D1980E40E943B1990E080E018C0C3
:10431000F2E0CF16D10460F083E090E09C838B83C1
:1043200082E090E00E942D1980E40E943519EDCFC3
:104330008B859C85019681F7CE0182DD009761F324
:10434000789422E030E0F20131832083892B19F048
:104350008DEF9FEFF3CE90E080E0F0CE0097A9F4D0
:10436000FB01228133818FEF80834DE0429FC001AA
:10437000439F900D1124E0910304F0910404E80F91
:10438000F91F8285FB01818308950C94EF1888E062
:1043900090E0FA019183808390E080E0089510928C
:1043A000020410920104E3E0F4E026E0DF011D9234
:1043B0002A95E9F720EC32E0FC01318320832BE0E1
:1043C00030E03383228308952F923F924F925F9281
:1043D0006F927F928F929F92AF92BF92CF92DF9215
:1043E000EF92FF920F931F93CF93DF93CDB7DEB77A
:1043F0002F970FB6F894DEBF0FBECDBFF894209173
:104400000104309102042F5F3F4F30930204209348
:104410000104789420910304309104043B832A839F
:10442000232B09F421C12091050430910604232B8C
:1044300009F41AC14A875B876C877D8799878887CB
:104440008A819B819F878E87512C412C198210E095
:1044500000E080910504909106044816590618F46E
:104460003981332329F1F894809101049091020459
:10447000019790930204809301047894C8012F96C9
:104480000FB6F894DEBF0FBECDBFDF91CF911F9165
:104490000F91FF90EF90DF90CF90BF90AF909F90E3
:1044A0008F907F906F905F904F903F902F900895E6
:1044B000AE85BF8517968C91179781FD83C01396A3
:1044C0008D919C911497039709F07CC015968D915E
:1044D0009C91E885F9858E179F0709F073C0312CF0
:1044E000212CF12CE12C62C02AD39F838E8310E013
:1044F000E114F10431F4AE85BF8517961C91129535
:104500001170AE85BF85ED91FC91E20DF31D6380C6
:104510007480111161C0BFEF6B1A7B0A61E070E01B
:10452000C301D6D35C01AE85BF851B968D919C914E
:104530008F3F980709F454C0B50174D66C010097F9
:1045400009F48DC0EE81FF81E80FF91FAE85BF85AC
:104550001A968C918E0D8083111145C08F010F5FCB
:104560001F4F1D821C821B821A82AE85BF85ED9172
:10457000FC91E20DF31D82812A813B818217130693
:1045800011F00CF03CC083012E813F81A501B601E2
:1045900090E080E0D7D28C01892B11F0C6010FD5B5
:1045A0008FEFE81AF80A95E0290E311CAE85BF8519
:1045B00012968C918E151F0429F024F0B981BB232B
:1045C00009F492CFEFEF4E1A5E0A2E853F85235FE6
:1045D0003F4F3F872E873DCFE5E06E0E711C9ECF8B
:1045E000C501A0D4ABCF8A859B85AC85BD85818371
:1045F0009283A383B4838F010B5F1F4FB2CF808060
:104600009180AC81BD818A0E9B1EF401638174810F
:1046100080818F3FF1F021E030E001C0220F8A95C8
:10462000EAF7DB018C91822391E009F490E0F80134
:104630009083F4018181080F111D2A813B812F5F36
:104640003F4F3B832A838C819D8107969D838C837A
:104650008CCF418150E0C8010E94A039EACF31E0FF
:10466000398306EF1FEF9CCF10E000E0FCCE2F92C5
:104670003F924F925F926F927F929F92AF92BF92C2
:10468000CF92DF92EF92FF920F931F93CF93DF931E
:1046900000D000D0CDB7DEB7009103041091040420
:1046A0009924939401151105A9F0A0900504B090E8
:1046B0000604F89480910104909102049924939443
:1046C000009709F0912C892B09F472C0789480E44A
:1046D0000E943B19892D26960FB6F894DEBF0FBEB7
:1046E000CDBFDF91CF911F910F91FF90EF90DF90A1
:1046F000CF90BF90AF909F907F906F905F904F90C2
:104700003F902F90089522E0C216D104E104F104F5
:104710006CF4AD81BE811B968D919C918F3F980763
:1047200009F003D5ED81FE8134862386AD81BE81FB
:104730008D919C91B12CA12C412C512C3201892BB3
:1047400031F5BFEFCB1ADB0AEB0AFB0AED81FE81E4
:104750003D96FE83ED8389819A81AB81BC81C81629
:10476000D906EA06FB067CF2C80129D4B0CF8A0D2F
:104770009B1DFC0180819181009709F020D4FFEFFF
:104780004F1A5F0A6F0A7F0A25E0A20EB11CAD81A5
:10479000BE818D919C91119712964C9150E070E0E2
:1047A00060E044165506660677060CF308D4C9CFB8
:1047B000109204041092030410920604109205044F
:1047C00010920704109208047894D2D21E830D83AD
:1047D000C12CD12C7601C501B0E0A0E089839A8379
:1047E000AB83BC8322242A94322CB5CFCF93DF93A2
:1047F000EA013DDF811109C082E090E0998388835E
:1048000085EF9FEFDF91CF91089581E090E00E94C6
:104810002D1981E090E09983888390E080E0F2CFC9
:1048200026CFFF920F931F93CF93DF938A01EC0162
:10483000C60FD71FF9809BD20897F816190671F09A
:1048400068F082E090E0F801918380838EEF9FEF23
:10485000DF91CF911F910F91FF9008956C817D8121
:104860008E819F814B810E94851B811108C082E04F
:1048700090E0F8019183808384EF9FEFE9CF0E945D
:10488000801B498150E0BE01685F7F4F0E94A039C4
:1048900089810E94EF1B81E090E0F8019183808381
:1048A00090E080E0D5CFFF920F931F93CF93DF93DB
:1048B0008A01EC01C60FD71FF98059D2FF2059F0A9
:1048C000029721E030E0F816190619F010F030E0F8
:1048D00020E0232B69F482E090E0F801918380834B
:1048E0008EEF9FEFDF91CF911F910F91FF90089571
:1048F0000E94801B498150E0BE016E5F7F4F0E9485
:10490000A03989810E94EF1B81E090E0F80191833A
:10491000808390E080E0E6CF26E033E0FC01318345
:10492000208322E030E03383228308950895FC0140
:1049300011821082938382830895DB011D921C9261
:10494000DC011296ED91FC911397718360831396AD
:104950007C936E9312970895FC0180819181DB0115
:104960008D939C93A081B181109741F08D919C9182
:1049700091838083892B11F4F383E2830895FC01F2
:1049800080819181DB018D939C93892B11F473833A
:104990006283718360830895FC0111821082938386
:1049A00082830895CF93DF931F921F92CDB7DEB716
:1049B0001A821982F894BE016F5F7F4F8EE094E0F7
:1049C000CBDF89819A81009709F0F9D289819A8198
:1049D000892B89F7BE016F5F7F4F82E194E0BCDFD6
:1049E00089819A81009709F0EAD289819A81892B7D
:1049F00089F778940F900F90DF91CF910895CF931E
:104A0000DF931F921F92CDB7DEB71A821982F894F6
:104A1000BE016F5F7F4F8AE094E09EDF89819A81BB
:104A2000009709F0CCD289819A81892B89F77894F3
:104A30000F900F90DF91CF910895EF92FF920F9317
:104A40001F93CF93DF931F921F92CDB7DEB71A82C9
:104A500019828091090407EF1FEF882391F1F894E0
:104A6000BE016F5F7F4F82E194E076DF89819A819A
:104A7000EE24E394F12C892B41F4BE016F5F7F4F4C
:104A80008EE094E069DFF12CE12C789489819A81A1
:104A90000EEF1FEF0097A9F0FC014281538164E003
:104AA00070E095D58C01892B61F0F89469817A8149
:104AB000C701880F991F880F991F825F9B4F5FDF87
:104AC0007894C8010F900F90DF91CF911F910F91B3
:104AD000FF90EF9008950F931F93CF93DF9300D033
:104AE0001F92CDB7DEB71C821B821A821982809179
:104AF000090407EF1FEF8823C1F0AE014D5F5F4F40
:104B000064E070E0CE010196D5D58C01892B69F463
:104B1000E981FA818B819C8193838283F8946981F6
:104B20007A818AE094E009DF7894C8010F900F90B1
:104B30000F900F90DF91CF911F910F910895DAD6CA
:104B4000049608958F929F92AF92BF92CF92DF9278
:104B5000EF92FF920F931F93CF93DF931F921F92B9
:104B6000CDB7DEB71A8219828230910598F0CC2435
:104B7000CA94DC2CC6010F900F90DF91CF911F914A
:104B80000F91FF90EF90DF90CF90BF90AF909F90EC
:104B90008F9008956115710551F3580149016A011B
:104BA0008B017C01CCDF8815990509F7A114B104AC
:104BB000F1F28A0D9B1DC816D906C8F2809109042E
:104BC0008823F1F0F894B601645071099501AE01A3
:104BD0004F5F5F4FC801049602D66C01892B71F4B8
:104BE00089819A81F80193838283C701880F991F75
:104BF000880F991FB801825F9B4F9FDE7894BACFD0
:104C000087EFC82EDD24DA94B5CFAF92BF92CF9252
:104C1000DF92EF92FF920F931F93CF93DF931F9238
:104C20001F92CDB7DEB71A821982892B09F047C0CF
:104C30006115710509F443C04115510509F43FC0E0
:104C40002115310509F43BC001151105C1F1809111
:104C500009048823B9F179016A015B01F894BE0166
:104C60006F5F7F4F8AE094E077DE789489819A8144
:104C7000009759F1DC0112966D917C91A801049680
:104C8000C7D58C01E981FA81D501ED93FC9382812E
:104C900093810496F6019183808351DFD7018D9330
:104CA0009C93C8010F900F90DF91CF911F910F91AE
:104CB000FF90EF90DF90CF90BF90AF9008950FEFEF
:104CC0001FEFEFCF07EF1FEFECCF0EEF1FEFE9CF96
:104CD000CF93DF93EC01672B71F415D68C179D07EA
:104CE00060F008D62496C80FD91F07D68C0F9D1FD9
:104CF000DF91CF91089504D6F1CF90E080E0F8CF16
:104D00000F931F93CF93DF932091090421112BC0A0
:104D10008B01EC018EE094E00ADE82E194E007DE94
:104D20008AE094E004DE86D00097C1F4ECD570E010
:104D300060E0CEDF42E153E062E070E05ED10097D8
:104D400069F48091120390911303EFD5B801CE015D
:104D500024D4009719F421E020930904DF91CF9126
:104D60001F910F91089584EF9FEFF8CFC9C5CBC570
:104D7000CF93DF93CBD5EC01892B11F413DE3FDE0B
:104D8000CE01DF91CF910895CF93DF93BFD5EC0192
:104D9000892B09F407DECE01DF91CF910895809130
:104DA0001203909113030895CF93DF938091090428
:104DB000D0E0C0E08823D1F0BDD5EC01892BB1F45F
:104DC000F1DD1DDE8091120390911303AED164D208
:104DD000EC01892B59F48EE094E0DEDD82E194E071
:104DE000DBDD8AE094E0D8DD10920904CE01DF918A
:104DF000CF910895CF93DF930097A1F4DF91CF91E6
:104E00000895EC011A821982A883309711F09283D9
:104E100081832F5F3F4FFC01860F971F4217530777
:104E200081F7ECCF30E020E0F0E0E0E0AFEF6F5F43
:104E30007F4FF4CFAF92BF92CF92DF92EF92FF926B
:104E40000F931F93CF93DF9380E99CE07C012CEFBD
:104E5000E22288E5C82E83E0D82E9EE5A92E93E0B5
:104E6000B92EC5E9DFE08E01D6014D915D916D014E
:104E7000F501619171915F01D8011196FC92EE925A
:104E800015965C934E93149713965C934E931297DA
:104E900017967C936E9316979B012F5F3F4F249F2D
:104EA000C001259F900D349F900D112419969C935D
:104EB0008E931897C7019EDFF80180859185E80ED3
:104EC000F91E065F1F4FFEE5CF16F3E0DF0661F621
:104ED000E8E1F4E085E798E0DF019C011D922150B4
:104EE0003040E1F710921704109216041F8E1E8EA8
:104EF0001BA21AA219A218A21DA21CA21FA21EA2C6
:104F00002A963FE0C33BD30789F790E080E0DF912A
:104F1000CF911F910F91FF90EF90DF90CF90BF90B6
:104F2000AF900895F8948132910550F48091970FD5
:104F30009091980F892B39F020E090E080E019C023
:104F40008134910550F48091A10F9091A20F892B8B
:104F500039F021E081E090E00CC081349140A8F468
:104F60008091AB0F9091AC0F892B79F022E082E019
:104F700090E0EAE0E89FD001E99FB00D1124AB5624
:104F8000B04F8D919C91009721F4789490E080E04F
:104F90000895E29FF0011124EB56F04FDC011196C9
:104FA0004D915C915183408342815381415051091D
:104FB00053834283FC012193CF0178940895009795
:104FC000D9F0DC01EE91E630B8F4F8948FEF8C93D1
:104FD0008AE0E89FF0011124EB56F04F8081918127
:104FE00012969C938E931197B183A08382819381B3
:104FF00001969383828378940895CF92DF92EF9203
:10500000FF920F931F93CF93DF939C018BE194E06A
:105010008C7F4115510509F485C02115310509F42E
:1050200081C06115710509F47DC08A01AB01B90128
:105030006D5F7F4F6C7F9B012F5F3F4F249F7001FF
:10504000259FF00C349FF00C1124F894E5E9FFE063
:1050500023E030E0E901A6A1B7A1C68CD78CCD280A
:1050600009F054C0109709F03CC0C0901604D090CD
:10507000170422E738E02C193D092E153F0530F4BE
:105080007894CFEFDFEF86EF9FEF1FC02AE02C9FD1
:10509000F0012D9FF00D1124EB56F04F918380838A
:1050A000558344835383428377836683F186E08606
:1050B000A1DEEC0CFD1CF0921704E092160478942B
:1050C000CF3FDC0701F390E080E0F801D183C0839B
:1050D000DF91CF911F910F91FF90EF90DF90CF90D4
:1050E0000895AE15BF0590F02AE02C9FF0012D9F8A
:1050F000F00D1124EB56F04F918380835583448348
:10510000538342837783668375DED9CF8A0F9B1FD3
:105110002F5F3F4F3A962630310509F09BCFCFEFF6
:10512000DFEFCDCF8FEF9FEFD3CFFF920F931F9382
:10513000CF93DF939C01235031092330310508F0D0
:1051400057C0F8942AE0289FF001299FF00D112400
:10515000EB56F04F4085518525E03AE0022F10E0F4
:1051600080179107ACF12AE0F22EF89EE001F99E3B
:10517000D00D1124CB56D04F70E060E0888199812A
:105180000E94A939F09EF001F19EF00D1124EB561A
:10519000F04F809116049091170420853185821B71
:1051A000930B9093170480931604198218821D8222
:1051B0001C821B821A821F821E821986188678948E
:1051C00090E080E0DF91CF911F910F91FF900895C3
:1051D000309FF001319FF00D1124EB56F04F6081AC
:1051E0007181672B41F44115510529F42150B6CF47
:1051F0008FEF9FEFE7CF2AE0289FE001299FD00D96
:105200001124CB56D04F70E060E0888199810E94D4
:10521000A939198218821D821C821B821A821F8260
:105220001E82CDCF9C01235031092330310510F56A
:105230002AE0289FD001299FB00D1124AB56B04F12
:105240002D913C911197232BA9F016962D913C910D
:1052500017972617370770F0F89412962D913C9106
:1052600013972115310529F0ED91FC911197309795
:1052700021F47894F0E0E0E00DC041815281119674
:105280005C934E932150310913963C932E931297C1
:1052900081937894CF010895EDE8FCE088E093E0F5
:1052A000DF019C011D9221503040E1F7E8E1F4E07C
:1052B00085E798E0DF019C011D9221503040E1F725
:1052C0001092170410921604E5E9FFE08CE3DF0169
:1052D0001D928A95E9F790E080E00895CF93DF93DF
:1052E000C0911403D0911503CF3FDC0759F4CED3FE
:1052F000909315038093140397FF09C0D09315036F
:10530000C093140384EF9FEFDF91CF91089590E055
:1053100080E0FACF8230910528F48093D10F90E09D
:1053200080E008958FEF9FEF08954F925F926F9204
:105330007F92AF92BF92CF92DF92EF92FF920F9344
:105340001F93CF93DF931F921F92CDB7DEB71A82C0
:105350001982009709F475C06115710509F471C0CF
:10536000209114033091150307EF1FEF2F3F3F4F9C
:10537000E9F06B015C01412C512C3201F12CE12C44
:1053800010E000E0EC14FD0440F40A3F8FEF180732
:1053900021F0043F4FEF1407D9F480E8481684E861
:1053A00058068EE16806710408F042C0C8010F90EB
:1053B0000F90DF91CF911F910F91FF90EF90DF90B1
:1053C000CF90BF90AF907F906F905F904F90089577
:1053D0009E012F5F3F4FA6014E195F09B5016E0D6B
:1053E0007F1D8091140390911503B4D3892B19F577
:1053F00089819A81009739F4E114F10421F4209114
:10540000D10F2223D9F0E80EF91E60E070E0CB0145
:105410000E9463338AE0480E511C611C711C40E8F5
:10542000441646E9540648E96406710408F4AACF14
:1054300001EF1FEFBBCF04EF1FEFF1CF0AEF1FEF1C
:10544000EECF0FEF1FEFB2CF4F925F926F927F922E
:10545000AF92BF92CF92DF92EF92FF920F931F9382
:10546000CF93DF931F921F92CDB7DEB71A821982B6
:10547000009709F46CC06115710509F468C02091AA
:1054800014033091150307EF1FEF2F3F3F4FA1F09B
:105490006B015C01412C512C3201F12CE12C10E00C
:1054A00000E0EC14FD0440F40E3F8FEF180721F0EC
:1054B000043F4FEF140791F4C8010F900F90DF9154
:1054C000CF911F910F91FF90EF90DF90CF90BF9001
:1054D000AF907F906F905F904F9008959E012F5FE7
:1054E0003F4FA6014E195F09B5016E0D7F1D8091DA
:1054F000140390911503E1D2892B19F589819A81C2
:10550000009739F4E114F10421F42091D10F222302
:10551000D9F0E80EF91E60E070E0CB010E94633321
:105520008AE0480E511C611C711C40E8441646E993
:10553000540648E96406710408F4B3CF02EF1FEF84
:10554000BBCF04EF1FEFF1CF0EEF1FEFEECF0FEF4A
:105550001FEFB2CF80911403909115038F3F9807EE
:1055600049F08CD2892B49F48FEF9FEF909315036C
:105570008093140390E080E0089584EF9FEF0895F6
:10558000FC01680F791F90E080E0E617F70709F447
:1055900008952191820F911DF8CF2091D20F2111F2
:1055A00013C09CDE009791F41092D80F1092D70F81
:1055B0001092D60F1092D50F1092D40F1092D30FD5
:1055C00021E02093D20F089584EF9FEF0895AF92CA
:1055D000BF92CF92DF92EF92FF920F931F93CF93E0
:1055E000DF93009709F460C04630510508F45CC0B1
:1055F0002091D20FC7EFDFEF222309F449C08C01BD
:10560000060F171FF801C080D180C114D10409F41E
:105610004EC096012A5F3F4F4217530708F447C018
:105620007C018091D70F9091D80F93838283B6012C
:105630006C5F7F4F5801A60EB71EC801A1DFF501B0
:105640009183808364E070E0C8016FDEEC01892BF8
:10565000F9F481E090E05EDEB601C801049665DEF3
:10566000EC01892B91F462E070E0C5015EDEEC0193
:10567000892B59F4C701A3DC8091D70F9091D80FE3
:1056800001969093D80F8093D70F90E080E042DE90
:10569000CE01DF91CF911F910F91FF90EF90DF909E
:1056A000CF90BF90AF900895CFEFDFEFF1CFC9EF6C
:1056B000DFEFEECF6F927F928F929F92AF92BF9269
:1056C000CF92DF92EF92FF920F931F93CF93DF93CE
:1056D00000D01F92CDB7DEB7009709F47AC041150C
:1056E000510509F476C02091D20F07EF1FEF222356
:1056F00009F44DC03A017B015C0164E070E0CE0129
:105700000196A2DE8C01892B09F041C009811A8122
:105710000115110509F45AC0480186E0880E911C54
:10572000B701680D791D80911603909117037ADDFA
:105730006C01009709F450C0A70170E060E00E947E
:10574000A93989819A81AB81BC81EC0CFD1CF701E0
:1057500081939193A193B1937F0181E090E0DADD91
:10576000B801C70171DE892B31F562E070E0C70135
:10577000800F911F69DE8C01892BE9F490E080E0B5
:10578000C9DDF501D182C082F30191828082C80116
:105790000F900F900F900F90DF91CF911F910F916D
:1057A000FF90EF90DF90CF90BF90AF909F908F9041
:1057B0007F906F90089590E080E0ACDDF50111825C
:1057C0001082F30111821082C601F9DB09EF1FEF8D
:1057D000DECF0FEF1FEFDBCF06EF1FEFD8CF009725
:1057E000A1F04115510589F02115310571F0F9013C
:1057F00036966E177F0748F0DC012D933C93DA0153
:10580000ED93FC9390E080E008958FEF9FEF089573
:10581000AF92BF92CF92DF92EF92FF920F931F93BE
:10582000CF93DF93009709F45FC04115510509F448
:105830005BC06530710508F457C02091D20FC7EFE7
:10584000DFEF222391F1DC01CD90DC9011971296CD
:10585000ED91FC9196012A5F3F4FC9EFDFEF2617CC
:10586000370719F5C091D30FD091D40F209749F580
:1058700021E030E03093D40F2093D30F7A018C01D4
:10588000F093D60FE093D50F5601B4E0AB0EB11CE8
:10589000B50176DE0A0D1B1DF801208131818217CA
:1058A000930729F5D701CD92DC92CE01DF91CF91FC
:1058B0001F910F91FF90EF90DF90CF90BF90AF902E
:1058C00008952091D50F3091D60F2F5F3F4FCCEF29
:1058D000DFEFE217F30790F2CBEFDFEF2E173F0772
:1058E00068F2D0E0C0E0CACFCFEFDFEFDECFC3EF8A
:1058F000DFEFDBCF84E090E0089582E090E0089550
:105900008CEF9FEF089580E290E008951092D80FF9
:105910001092D70F1092D60F1092D50F1092D40F6D
:105920001092D30F90E080E0089590931703809336
:10593000160308958091D20F882391F00BDE009713
:1059400089F41092D80F1092D70F1092D60F1092A0
:10595000D50F1092D40F1092D30F1092D20F08953A
:1059600090E080E00895009749F06115710531F0ED
:10597000FC0111821082FB01118210820895F3CF85
:1059800040E855E260E070E090E080E000C08130E7
:10599000910579F01CF4892B39F008958230910536
:1059A00061F0039771F0089526E086EE9FE00C9475
:1059B000903626E083E890E1FACF26E080E291E19C
:1059C000F6CF26E08DEB91E1F2CF1F920F920FB64A
:1059D0000F9211240BB60F922F933F934F935F9327
:1059E0006F937F938F939F93AF93BF93EF93FF93A7
:1059F00086E09FEF9093250180932401BFD0FF9113
:105A0000EF91BF91AF919F918F917F916F915F9136
:105A10004F913F912F910F900BBE0F900FBE0F90A3
:105A20001F90189586E09FEF9093250180932401A5
:105A3000A3E7B0E08C918E7F8C93E0E2F1E080816F
:105A40008C7F8083E1E2F1E08081877E80838081AA
:105A50008360808380818B7F80838C9181608C9335
:105A60000895E3E7F0E0808190819E7F90838170CC
:105A7000089581E008951092D90F089568EE73E0BB
:105A800080E090E020D690E080E0089526E040E0BD
:105A900050E16EE070E086EE9FE00E94903686EE68
:105AA0009FE00E94C635892B29F086EE9FE00E9478
:105AB000E035F5CF90E080E00895CF92DF92EF924D
:105AC000FF920F931F93CF93DF936B017A01E9014C
:105AD0001982188286EE9FE00E94C635892B79F1E3
